{
  "abi": [
    {
      "inputs": [],
      "stateMutability": "nonpayable",
      "type": "constructor"
    },
    {
      "anonymous": false,
      "inputs": [
        {
          "indexed": false,
          "internalType": "string",
          "name": "name",
          "type": "string"
        },
        {
          "indexed": false,
          "internalType": "string",
          "name": "location",
          "type": "string"
        },
        {
          "indexed": false,
          "internalType": "string",
          "name": "lat",
          "type": "string"
        },
        {
          "indexed": false,
          "internalType": "string",
          "name": "lng",
          "type": "string"
        },
        {
          "indexed": false,
          "internalType": "string",
          "name": "description",
          "type": "string"
        },
        {
          "indexed": false,
          "internalType": "string",
          "name": "imgUrl",
          "type": "string"
        },
        {
          "indexed": false,
          "internalType": "string",
          "name": "wikiUrl",
          "type": "string"
        },
        {
          "indexed": false,
          "internalType": "uint256",
          "name": "id",
          "type": "uint256"
        },
        {
          "indexed": false,
          "internalType": "address",
          "name": "owner",
          "type": "address"
        }
      ],
      "name": "siteCreated",
      "type": "event"
    },
    {
      "anonymous": false,
      "inputs": [
        {
          "indexed": false,
          "internalType": "uint256",
          "name": "id",
          "type": "uint256"
        },
        {
          "indexed": false,
          "internalType": "string",
          "name": "userId",
          "type": "string"
        },
        {
          "indexed": false,
          "internalType": "address",
          "name": "user",
          "type": "address"
        },
        {
          "indexed": false,
          "internalType": "string",
          "name": "siteId",
          "type": "string"
        }
      ],
      "name": "userReacted",
      "type": "event"
    },
    {
      "inputs": [
        {
          "internalType": "string",
          "name": "name",
          "type": "string"
        },
        {
          "internalType": "string",
          "name": "location",
          "type": "string"
        },
        {
          "internalType": "string",
          "name": "lat",
          "type": "string"
        },
        {
          "internalType": "string",
          "name": "lng",
          "type": "string"
        },
        {
          "internalType": "string",
          "name": "description",
          "type": "string"
        },
        {
          "internalType": "string",
          "name": "imgUrl",
          "type": "string"
        },
        {
          "internalType": "string",
          "name": "wikiUrl",
          "type": "string"
        }
      ],
      "name": "addSite",
      "outputs": [],
      "stateMutability": "nonpayable",
      "type": "function"
    },
    {
      "inputs": [
        {
          "internalType": "string",
          "name": "userId",
          "type": "string"
        },
        {
          "internalType": "string",
          "name": "siteId",
          "type": "string"
        }
      ],
      "name": "addUserReaction",
      "outputs": [],
      "stateMutability": "nonpayable",
      "type": "function"
    },
    {
      "inputs": [
        {
          "internalType": "uint256",
          "name": "id",
          "type": "uint256"
        }
      ],
      "name": "getSite",
      "outputs": [
        {
          "internalType": "string",
          "name": "",
          "type": "string"
        },
        {
          "internalType": "string",
          "name": "",
          "type": "string"
        },
        {
          "internalType": "address",
          "name": "",
          "type": "address"
        },
        {
          "internalType": "string",
          "name": "",
          "type": "string"
        }
      ],
      "stateMutability": "view",
      "type": "function"
    },
    {
      "inputs": [],
      "name": "owner",
      "outputs": [
        {
          "internalType": "address",
          "name": "",
          "type": "address"
        }
      ],
      "stateMutability": "view",
      "type": "function"
    },
    {
      "inputs": [
        {
          "internalType": "uint256",
          "name": "",
          "type": "uint256"
        }
      ],
      "name": "siteIds",
      "outputs": [
        {
          "internalType": "uint256",
          "name": "",
          "type": "uint256"
        }
      ],
      "stateMutability": "view",
      "type": "function"
    },
    {
      "inputs": [],
      "name": "user",
      "outputs": [
        {
          "internalType": "address",
          "name": "",
          "type": "address"
        }
      ],
      "stateMutability": "view",
      "type": "function"
    },
    {
      "inputs": [
        {
          "internalType": "uint256",
          "name": "",
          "type": "uint256"
        }
      ],
      "name": "userReactionIds",
      "outputs": [
        {
          "internalType": "uint256",
          "name": "",
          "type": "uint256"
        }
      ],
      "stateMutability": "view",
      "type": "function"
    }
  ],
  "devdoc": {
    "kind": "dev",
    "methods": {},
    "version": 1
  },
  "evm": {
    "assembly": "    /* \"archly.sol\":57:6361  contract archly {... */\n  mstore(0x40, 0x80)\n    /* \"archly.sol\":220:346  constructor() {... */\n  callvalue\n  dup1\n  iszero\n  tag_1\n  jumpi\n  0x00\n  dup1\n  revert\ntag_1:\n  pop\n    /* \"archly.sol\":254:255  0 */\n  0x00\n    /* \"archly.sol\":244:251  counter */\n  0x02\n    /* \"archly.sol\":244:255  counter = 0 */\n  dup2\n  swap1\n  sstore\n    /* \"archly.sol\":265:280  reactionCounter */\n  0x03\n    /* \"archly.sol\":265:284  reactionCounter = 0 */\n  dup2\n  swap1\n  sstore\n    /* \"archly.sol\":294:312  owner = msg.sender */\n  dup1\n  sload\n    /* \"archly.sol\":302:312  msg.sender */\n  caller\n  not(sub(shl(0xa0, 0x01), 0x01))\n    /* \"archly.sol\":294:312  owner = msg.sender */\n  swap2\n  dup3\n  and\n  dup2\n  or\n  dup4\n  sstore\n  0x01\n    /* \"archly.sol\":322:339  user = msg.sender */\n  dup1\n  sload\n  swap1\n  swap3\n  and\n  or\n  swap1\n  sstore\n    /* \"archly.sol\":57:6361  contract archly {... */\n  dataSize(sub_0)\n  swap1\n  dup2\n  swap1\n  dataOffset(sub_0)\n  swap1\n  codecopy\n  0x00\n  return\nstop\n\nsub_0: assembly {\n        /* \"archly.sol\":57:6361  contract archly {... */\n      mstore(0x40, 0x80)\n      callvalue\n      dup1\n      iszero\n      tag_1\n      jumpi\n      0x00\n      dup1\n      revert\n    tag_1:\n      pop\n      jumpi(tag_2, lt(calldatasize, 0x04))\n      shr(0xe0, calldataload(0x00))\n      dup1\n      0x5eb4d418\n      gt\n      tag_10\n      jumpi\n      dup1\n      0x5eb4d418\n      eq\n      tag_6\n      jumpi\n      dup1\n      0x7b14119c\n      eq\n      tag_7\n      jumpi\n      dup1\n      0x8da5cb5b\n      eq\n      tag_8\n      jumpi\n      dup1\n      0x912950a0\n      eq\n      tag_9\n      jumpi\n      0x00\n      dup1\n      revert\n    tag_10:\n      dup1\n      0x1b79bd0d\n      eq\n      tag_3\n      jumpi\n      dup1\n      0x4eb7d857\n      eq\n      tag_4\n      jumpi\n      dup1\n      0x4f8632ba\n      eq\n      tag_5\n      jumpi\n    tag_2:\n      0x00\n      dup1\n      revert\n        /* \"archly.sol\":1453:2029  function addUserReaction(... */\n    tag_3:\n      tag_11\n      tag_12\n      calldatasize\n      0x04\n      tag_13\n      jump\t// in\n    tag_12:\n      tag_14\n      jump\t// in\n    tag_11:\n      stop\n        /* \"archly.sol\":6100:6359  function getSite(uint256 id) public view returns (string memory, string memory, address, string memory){... */\n    tag_4:\n      tag_15\n      tag_16\n      calldatasize\n      0x04\n      tag_17\n      jump\t// in\n    tag_16:\n      tag_18\n      jump\t// in\n    tag_15:\n      mload(0x40)\n      tag_19\n      swap5\n      swap4\n      swap3\n      swap2\n      swap1\n      tag_20\n      jump\t// in\n    tag_19:\n      mload(0x40)\n      dup1\n      swap2\n      sub\n      swap1\n      return\n        /* \"archly.sol\":128:147  address public user */\n    tag_5:\n      sload(0x01)\n      tag_21\n      swap1\n      sub(shl(0xa0, 0x01), 0x01)\n      and\n      dup2\n      jump\n    tag_21:\n      mload(0x40)\n      sub(shl(0xa0, 0x01), 0x01)\n        /* \"#utility.yul\":2917:2972   */\n      swap1\n      swap2\n      and\n        /* \"#utility.yul\":2899:2973   */\n      dup2\n      mstore\n        /* \"#utility.yul\":2887:2889   */\n      0x20\n        /* \"#utility.yul\":2872:2890   */\n      add\n        /* \"archly.sol\":128:147  address public user */\n      tag_19\n        /* \"#utility.yul\":2753:2979   */\n      jump\n        /* \"archly.sol\":1277:1309  uint256[] public userReactionIds */\n    tag_6:\n      tag_25\n      tag_26\n      calldatasize\n      0x04\n      tag_17\n      jump\t// in\n    tag_26:\n      tag_27\n      jump\t// in\n    tag_25:\n      mload(0x40)\n        /* \"#utility.yul\":3130:3155   */\n      swap1\n      dup2\n      mstore\n        /* \"#utility.yul\":3118:3120   */\n      0x20\n        /* \"#utility.yul\":3103:3121   */\n      add\n        /* \"archly.sol\":1277:1309  uint256[] public userReactionIds */\n      tag_19\n        /* \"#utility.yul\":2984:3161   */\n      jump\n        /* \"archly.sol\":2067:3222  function addSite(... */\n    tag_7:\n      tag_11\n      tag_31\n      calldatasize\n      0x04\n      tag_32\n      jump\t// in\n    tag_31:\n      tag_33\n      jump\t// in\n        /* \"archly.sol\":102:122  address public owner */\n    tag_8:\n      sload(0x00)\n      tag_21\n      swap1\n      sub(shl(0xa0, 0x01), 0x01)\n      and\n      dup2\n      jump\n        /* \"archly.sol\":1383:1407  uint256[] public siteIds */\n    tag_9:\n      tag_25\n      tag_38\n      calldatasize\n      0x04\n      tag_17\n      jump\t// in\n    tag_38:\n      tag_39\n      jump\t// in\n        /* \"archly.sol\":1453:2029  function addUserReaction(... */\n    tag_14:\n        /* \"archly.sol\":1679:1694  reactionCounter */\n      sload(0x03)\n        /* \"archly.sol\":1626:1662  userReaction storage newUserReaction */\n      0x00\n        /* \"archly.sol\":1665:1695  userReactions[reactionCounter] */\n      swap1\n      dup2\n      mstore\n        /* \"archly.sol\":1665:1678  userReactions */\n      0x04\n        /* \"archly.sol\":1665:1695  userReactions[reactionCounter] */\n      0x20\n      swap1\n      dup2\n      mstore\n      0x40\n      swap1\n      swap2\n      keccak256\n        /* \"archly.sol\":1705:1736  newUserReaction.userId = userId */\n      dup4\n      mload\n        /* \"archly.sol\":1665:1695  userReactions[reactionCounter] */\n      swap1\n      swap2\n        /* \"archly.sol\":1705:1736  newUserReaction.userId = userId */\n      tag_42\n      swap2\n        /* \"archly.sol\":1705:1727  newUserReaction.userId */\n      0x01\n      dup5\n      add\n      swap2\n        /* \"archly.sol\":1705:1736  newUserReaction.userId = userId */\n      dup7\n      add\n      swap1\n      tag_43\n      jump\t// in\n    tag_42:\n      pop\n        /* \"archly.sol\":1769:1773  user */\n      sload(0x01)\n        /* \"archly.sol\":1746:1766  newUserReaction.user */\n      0x02\n      dup3\n      add\n        /* \"archly.sol\":1746:1773  newUserReaction.user = user */\n      dup1\n      sload\n      not(0xffffffffffffffffffffffffffffffffffffffff)\n      and\n      sub(shl(0xa0, 0x01), 0x01)\n        /* \"archly.sol\":1769:1773  user */\n      swap1\n      swap3\n      and\n        /* \"archly.sol\":1746:1773  newUserReaction.user = user */\n      swap2\n      swap1\n      swap2\n      or\n      swap1\n      sstore\n        /* \"archly.sol\":1783:1814  newUserReaction.siteId = siteId */\n      dup2\n      mload\n      tag_44\n      swap1\n        /* \"archly.sol\":1783:1805  newUserReaction.siteId */\n      0x03\n      dup4\n      add\n      swap1\n        /* \"archly.sol\":1783:1814  newUserReaction.siteId = siteId */\n      0x20\n      dup6\n      add\n      swap1\n      tag_43\n      jump\t// in\n    tag_44:\n      pop\n        /* \"archly.sol\":1887:1902  reactionCounter */\n      sload(0x03)\n        /* \"archly.sol\":1866:1881  userReactionIds */\n      0x05\n        /* \"archly.sol\":1866:1903  userReactionIds.push(reactionCounter) */\n      dup1\n      sload\n      0x01\n      dup2\n      dup2\n      add\n      dup4\n      sstore\n      0x00\n      swap3\n      swap1\n      swap3\n      mstore\n      0x036b6384b5eca791c62761152d0c79bb0604c104a5fb6f4eb0703f3154bb3db0\n      add\n      dup3\n      swap1\n      sstore\n        /* \"archly.sol\":1982:1986  user */\n      sload\n        /* \"archly.sol\":1945:1995  userReacted(reactionCounter, userId, user, siteId) */\n      mload(0x40)\n      0xfc7920c4a273b987dec3d6fa3ff1679911a77ccebf8bc070664ddc39e2953dff\n      swap3\n      tag_46\n      swap3\n        /* \"archly.sol\":1887:1902  reactionCounter */\n      swap1\n      swap2\n        /* \"archly.sol\":1974:1980  userId */\n      dup8\n      swap2\n      sub(shl(0xa0, 0x01), 0x01)\n        /* \"archly.sol\":1982:1986  user */\n      and\n      swap1\n        /* \"archly.sol\":1988:1994  siteId */\n      dup8\n      swap1\n        /* \"archly.sol\":1945:1995  userReacted(reactionCounter, userId, user, siteId) */\n      tag_47\n      jump\t// in\n    tag_46:\n      mload(0x40)\n      dup1\n      swap2\n      sub\n      swap1\n      log1\n        /* \"archly.sol\":2005:2020  reactionCounter */\n      0x03\n        /* \"archly.sol\":2005:2022  reactionCounter++ */\n      dup1\n      sload\n      swap1\n        /* \"archly.sol\":2005:2020  reactionCounter */\n      0x00\n        /* \"archly.sol\":2005:2022  reactionCounter++ */\n      tag_48\n      dup4\n      tag_49\n      jump\t// in\n    tag_48:\n      swap2\n      swap1\n      pop\n      sstore\n      pop\n        /* \"archly.sol\":1551:2029  {... */\n      pop\n        /* \"archly.sol\":1453:2029  function addUserReaction(... */\n      pop\n      pop\n      jump\t// out\n        /* \"archly.sol\":6100:6359  function getSite(uint256 id) public view returns (string memory, string memory, address, string memory){... */\n    tag_18:\n        /* \"archly.sol\":6150:6163  string memory */\n      0x60\n        /* \"archly.sol\":6165:6178  string memory */\n      dup1\n        /* \"archly.sol\":6180:6187  address */\n      0x00\n        /* \"archly.sol\":6189:6202  string memory */\n      0x60\n        /* \"archly.sol\":6226:6233  counter */\n      sload(0x02)\n        /* \"archly.sol\":6221:6223  id */\n      dup6\n        /* \"archly.sol\":6221:6233  id < counter */\n      lt\n        /* \"archly.sol\":6213:6250  require(id < counter, \"No such Site\") */\n      tag_51\n      jumpi\n      mload(0x40)\n      shl(0xe5, 0x461bcd)\n      dup2\n      mstore\n        /* \"#utility.yul\":5738:5740   */\n      0x20\n        /* \"archly.sol\":6213:6250  require(id < counter, \"No such Site\") */\n      0x04\n      dup3\n      add\n        /* \"#utility.yul\":5720:5741   */\n      mstore\n        /* \"#utility.yul\":5777:5779   */\n      0x0c\n        /* \"#utility.yul\":5757:5775   */\n      0x24\n      dup3\n      add\n        /* \"#utility.yul\":5750:5780   */\n      mstore\n        /* \"#utility.yul\":5816:5830   */\n      0x4e6f207375636820536974650000000000000000000000000000000000000000\n        /* \"#utility.yul\":5796:5814   */\n      0x44\n      dup3\n      add\n        /* \"#utility.yul\":5789:5831   */\n      mstore\n        /* \"#utility.yul\":5848:5866   */\n      0x64\n      add\n        /* \"archly.sol\":6213:6250  require(id < counter, \"No such Site\") */\n    tag_52:\n      mload(0x40)\n      dup1\n      swap2\n      sub\n      swap1\n      revert\n    tag_51:\n        /* \"archly.sol\":6261:6279  siteInfo storage s */\n      0x00\n        /* \"archly.sol\":6282:6291  sites[id] */\n      dup6\n      dup2\n      mstore\n        /* \"archly.sol\":6282:6287  sites */\n      0x06\n        /* \"archly.sol\":6282:6291  sites[id] */\n      0x20\n      mstore\n      0x40\n      swap1\n      keccak256\n        /* \"archly.sol\":6329:6336  s.owner */\n      0x08\n      dup2\n      add\n      sload\n        /* \"archly.sol\":6301:6352  return (s.name, s.location, s.owner, s.description) */\n      dup2\n      sload\n        /* \"archly.sol\":6282:6291  sites[id] */\n      dup3\n      swap2\n        /* \"archly.sol\":6317:6327  s.location */\n      0x01\n      dup4\n      add\n      swap2\n      sub(shl(0xa0, 0x01), 0x01)\n        /* \"archly.sol\":6329:6336  s.owner */\n      swap1\n      swap2\n      and\n      swap1\n        /* \"archly.sol\":6338:6351  s.description */\n      0x04\n      dup5\n      add\n      swap1\n        /* \"archly.sol\":6282:6291  sites[id] */\n      dup5\n      swap1\n        /* \"archly.sol\":6301:6352  return (s.name, s.location, s.owner, s.description) */\n      tag_54\n      swap1\n      tag_55\n      jump\t// in\n    tag_54:\n      dup1\n      0x1f\n      add\n      0x20\n      dup1\n      swap2\n      div\n      mul\n      0x20\n      add\n      mload(0x40)\n      swap1\n      dup2\n      add\n      0x40\n      mstore\n      dup1\n      swap3\n      swap2\n      swap1\n      dup2\n      dup2\n      mstore\n      0x20\n      add\n      dup3\n      dup1\n      sload\n      tag_56\n      swap1\n      tag_55\n      jump\t// in\n    tag_56:\n      dup1\n      iszero\n      tag_57\n      jumpi\n      dup1\n      0x1f\n      lt\n      tag_58\n      jumpi\n      0x0100\n      dup1\n      dup4\n      sload\n      div\n      mul\n      dup4\n      mstore\n      swap2\n      0x20\n      add\n      swap2\n      jump(tag_57)\n    tag_58:\n      dup3\n      add\n      swap2\n      swap1\n      0x00\n      mstore\n      keccak256(0x00, 0x20)\n      swap1\n    tag_59:\n      dup2\n      sload\n      dup2\n      mstore\n      swap1\n      0x01\n      add\n      swap1\n      0x20\n      add\n      dup1\n      dup4\n      gt\n      tag_59\n      jumpi\n      dup3\n      swap1\n      sub\n      0x1f\n      and\n      dup3\n      add\n      swap2\n    tag_57:\n      pop\n      pop\n      pop\n      pop\n      pop\n      swap4\n      pop\n      dup3\n      dup1\n      sload\n      tag_60\n      swap1\n      tag_55\n      jump\t// in\n    tag_60:\n      dup1\n      0x1f\n      add\n      0x20\n      dup1\n      swap2\n      div\n      mul\n      0x20\n      add\n      mload(0x40)\n      swap1\n      dup2\n      add\n      0x40\n      mstore\n      dup1\n      swap3\n      swap2\n      swap1\n      dup2\n      dup2\n      mstore\n      0x20\n      add\n      dup3\n      dup1\n      sload\n      tag_61\n      swap1\n      tag_55\n      jump\t// in\n    tag_61:\n      dup1\n      iszero\n      tag_62\n      jumpi\n      dup1\n      0x1f\n      lt\n      tag_63\n      jumpi\n      0x0100\n      dup1\n      dup4\n      sload\n      div\n      mul\n      dup4\n      mstore\n      swap2\n      0x20\n      add\n      swap2\n      jump(tag_62)\n    tag_63:\n      dup3\n      add\n      swap2\n      swap1\n      0x00\n      mstore\n      keccak256(0x00, 0x20)\n      swap1\n    tag_64:\n      dup2\n      sload\n      dup2\n      mstore\n      swap1\n      0x01\n      add\n      swap1\n      0x20\n      add\n      dup1\n      dup4\n      gt\n      tag_64\n      jumpi\n      dup3\n      swap1\n      sub\n      0x1f\n      and\n      dup3\n      add\n      swap2\n    tag_62:\n      pop\n      pop\n      pop\n      pop\n      pop\n      swap3\n      pop\n      dup1\n      dup1\n      sload\n      tag_65\n      swap1\n      tag_55\n      jump\t// in\n    tag_65:\n      dup1\n      0x1f\n      add\n      0x20\n      dup1\n      swap2\n      div\n      mul\n      0x20\n      add\n      mload(0x40)\n      swap1\n      dup2\n      add\n      0x40\n      mstore\n      dup1\n      swap3\n      swap2\n      swap1\n      dup2\n      dup2\n      mstore\n      0x20\n      add\n      dup3\n      dup1\n      sload\n      tag_66\n      swap1\n      tag_55\n      jump\t// in\n    tag_66:\n      dup1\n      iszero\n      tag_67\n      jumpi\n      dup1\n      0x1f\n      lt\n      tag_68\n      jumpi\n      0x0100\n      dup1\n      dup4\n      sload\n      div\n      mul\n      dup4\n      mstore\n      swap2\n      0x20\n      add\n      swap2\n      jump(tag_67)\n    tag_68:\n      dup3\n      add\n      swap2\n      swap1\n      0x00\n      mstore\n      keccak256(0x00, 0x20)\n      swap1\n    tag_69:\n      dup2\n      sload\n      dup2\n      mstore\n      swap1\n      0x01\n      add\n      swap1\n      0x20\n      add\n      dup1\n      dup4\n      gt\n      tag_69\n      jumpi\n      dup3\n      swap1\n      sub\n      0x1f\n      and\n      dup3\n      add\n      swap2\n    tag_67:\n      pop\n      pop\n      pop\n      pop\n      pop\n      swap1\n      pop\n      swap5\n      pop\n      swap5\n      pop\n      swap5\n      pop\n      swap5\n      pop\n      pop\n        /* \"archly.sol\":6100:6359  function getSite(uint256 id) public view returns (string memory, string memory, address, string memory){... */\n      swap2\n      swap4\n      pop\n      swap2\n      swap4\n      jump\t// out\n        /* \"archly.sol\":1277:1309  uint256[] public userReactionIds */\n    tag_27:\n      0x05\n      dup2\n      dup2\n      sload\n      dup2\n      lt\n      tag_70\n      jumpi\n      0x00\n      dup1\n      revert\n    tag_70:\n      0x00\n      swap2\n      dup3\n      mstore\n      0x20\n      swap1\n      swap2\n      keccak256\n      add\n      sload\n      swap1\n      pop\n      dup2\n      jump\t// out\n        /* \"archly.sol\":2067:3222  function addSite(... */\n    tag_33:\n        /* \"archly.sol\":2423:2428  owner */\n      and(sub(shl(0xa0, 0x01), 0x01), sload(0x00))\n        /* \"archly.sol\":2409:2419  msg.sender */\n      caller\n        /* \"archly.sol\":2409:2428  msg.sender == owner */\n      eq\n        /* \"archly.sol\":2401:2478  require(msg.sender == owner, \"Only owner of smart contract can put up sites\") */\n      tag_73\n      jumpi\n      mload(0x40)\n      shl(0xe5, 0x461bcd)\n      dup2\n      mstore\n        /* \"#utility.yul\":6464:6466   */\n      0x20\n        /* \"archly.sol\":2401:2478  require(msg.sender == owner, \"Only owner of smart contract can put up sites\") */\n      0x04\n      dup3\n      add\n        /* \"#utility.yul\":6446:6467   */\n      mstore\n        /* \"#utility.yul\":6503:6505   */\n      0x2d\n        /* \"#utility.yul\":6483:6501   */\n      0x24\n      dup3\n      add\n        /* \"#utility.yul\":6476:6506   */\n      mstore\n        /* \"#utility.yul\":6542:6576   */\n      0x4f6e6c79206f776e6572206f6620736d61727420636f6e74726163742063616e\n        /* \"#utility.yul\":6522:6540   */\n      0x44\n      dup3\n      add\n        /* \"#utility.yul\":6515:6577   */\n      mstore\n        /* \"#utility.yul\":6613:6628   */\n      0x2070757420757020736974657300000000000000000000000000000000000000\n        /* \"#utility.yul\":6593:6611   */\n      0x64\n      dup3\n      add\n        /* \"#utility.yul\":6586:6629   */\n      mstore\n        /* \"#utility.yul\":6646:6665   */\n      0x84\n      add\n        /* \"archly.sol\":2401:2478  require(msg.sender == owner, \"Only owner of smart contract can put up sites\") */\n      tag_52\n        /* \"#utility.yul\":6262:6671   */\n      jump\n        /* \"archly.sol\":2401:2478  require(msg.sender == owner, \"Only owner of smart contract can put up sites\") */\n    tag_73:\n        /* \"archly.sol\":2566:2573  counter */\n      sload(0x02)\n        /* \"archly.sol\":2533:2557  siteInfo storage newSite */\n      0x00\n        /* \"archly.sol\":2560:2574  sites[counter] */\n      swap1\n      dup2\n      mstore\n        /* \"archly.sol\":2560:2565  sites */\n      0x06\n        /* \"archly.sol\":2560:2574  sites[counter] */\n      0x20\n      swap1\n      dup2\n      mstore\n      0x40\n      swap1\n      swap2\n      keccak256\n        /* \"archly.sol\":2584:2603  newSite.name = name */\n      dup9\n      mload\n        /* \"archly.sol\":2560:2574  sites[counter] */\n      swap1\n      swap2\n        /* \"archly.sol\":2584:2603  newSite.name = name */\n      tag_76\n      swap2\n        /* \"archly.sol\":2560:2574  sites[counter] */\n      dup4\n      swap2\n        /* \"archly.sol\":2584:2603  newSite.name = name */\n      dup12\n      add\n      swap1\n      tag_43\n      jump\t// in\n    tag_76:\n      pop\n        /* \"archly.sol\":2613:2640  newSite.location = location */\n      dup7\n      mload\n      tag_77\n      swap1\n        /* \"archly.sol\":2613:2629  newSite.location */\n      0x01\n      dup4\n      add\n      swap1\n        /* \"archly.sol\":2613:2640  newSite.location = location */\n      0x20\n      dup11\n      add\n      swap1\n      tag_43\n      jump\t// in\n    tag_77:\n      pop\n        /* \"archly.sol\":2650:2667  newSite.lat = lat */\n      dup6\n      mload\n      tag_78\n      swap1\n        /* \"archly.sol\":2650:2661  newSite.lat */\n      0x02\n      dup4\n      add\n      swap1\n        /* \"archly.sol\":2650:2667  newSite.lat = lat */\n      0x20\n      dup10\n      add\n      swap1\n      tag_43\n      jump\t// in\n    tag_78:\n      pop\n        /* \"archly.sol\":2677:2694  newSite.lng = lng */\n      dup5\n      mload\n      tag_79\n      swap1\n        /* \"archly.sol\":2677:2688  newSite.lng */\n      0x03\n      dup4\n      add\n      swap1\n        /* \"archly.sol\":2677:2694  newSite.lng = lng */\n      0x20\n      dup9\n      add\n      swap1\n      tag_43\n      jump\t// in\n    tag_79:\n      pop\n        /* \"archly.sol\":2704:2737  newSite.description = description */\n      dup4\n      mload\n      tag_80\n      swap1\n        /* \"archly.sol\":2704:2723  newSite.description */\n      0x04\n      dup4\n      add\n      swap1\n        /* \"archly.sol\":2704:2737  newSite.description = description */\n      0x20\n      dup8\n      add\n      swap1\n      tag_43\n      jump\t// in\n    tag_80:\n      pop\n        /* \"archly.sol\":2747:2770  newSite.imgUrl = imgUrl */\n      dup3\n      mload\n      tag_81\n      swap1\n        /* \"archly.sol\":2747:2761  newSite.imgUrl */\n      0x05\n      dup4\n      add\n      swap1\n        /* \"archly.sol\":2747:2770  newSite.imgUrl = imgUrl */\n      0x20\n      dup7\n      add\n      swap1\n      tag_43\n      jump\t// in\n    tag_81:\n      pop\n        /* \"archly.sol\":2780:2805  newSite.wikiUrl = wikiUrl */\n      dup2\n      mload\n      tag_82\n      swap1\n        /* \"archly.sol\":2780:2795  newSite.wikiUrl */\n      0x06\n      dup4\n      add\n      swap1\n        /* \"archly.sol\":2780:2805  newSite.wikiUrl = wikiUrl */\n      0x20\n      dup6\n      add\n      swap1\n      tag_43\n      jump\t// in\n    tag_82:\n      pop\n        /* \"archly.sol\":2828:2835  counter */\n      0x02\n      dup1\n      sload\n        /* \"archly.sol\":2815:2825  newSite.id */\n      0x07\n      dup1\n      dup5\n      add\n        /* \"archly.sol\":2815:2835  newSite.id = counter */\n      swap2\n      swap1\n      swap2\n      sstore\n        /* \"archly.sol\":2861:2866  owner */\n      0x00\n      dup1\n      sload\n        /* \"archly.sol\":2845:2858  newSite.owner */\n      0x08\n      dup6\n      add\n        /* \"archly.sol\":2845:2866  newSite.owner = owner */\n      dup1\n      sload\n      not(0xffffffffffffffffffffffffffffffffffffffff)\n      and\n      sub(shl(0xa0, 0x01), 0x01)\n        /* \"archly.sol\":2861:2866  owner */\n      swap3\n      dup4\n      and\n        /* \"archly.sol\":2845:2866  newSite.owner = owner */\n      or\n      swap1\n      sstore\n        /* \"archly.sol\":2889:2896  counter */\n      swap3\n      sload\n        /* \"archly.sol\":2876:2897  siteIds.push(counter) */\n      dup3\n      sload\n        /* \"archly.sol\":2861:2866  owner */\n      0x01\n        /* \"archly.sol\":2876:2897  siteIds.push(counter) */\n      dup2\n      add\n      dup5\n      sstore\n      swap3\n      dup3\n      mstore\n      0xa66cc928b5edb82af9bd49922954155ab7b0942694bea4ce44661d9a8736c688\n      swap1\n      swap3\n      add\n      dup3\n      swap1\n      sstore\n        /* \"archly.sol\":3160:3165  owner */\n      sload\n        /* \"archly.sol\":2938:3166  siteCreated(... */\n      mload(0x40)\n      0xb8155a08f2f674afad6b2fd39104a24bab050fd9313f36b2137d6dde7126c49d\n      swap4\n      tag_84\n      swap4\n        /* \"archly.sol\":2967:2971  name */\n      dup14\n      swap4\n        /* \"archly.sol\":2989:2997  location */\n      dup14\n      swap4\n        /* \"archly.sol\":3015:3018  lat */\n      dup14\n      swap4\n        /* \"archly.sol\":3036:3039  lng */\n      dup14\n      swap4\n        /* \"archly.sol\":3057:3068  description */\n      dup14\n      swap4\n        /* \"archly.sol\":3086:3092  imgUrl */\n      dup14\n      swap4\n        /* \"archly.sol\":3110:3117  wikiUrl */\n      dup14\n      swap4\n        /* \"archly.sol\":3160:3165  owner */\n      swap2\n      swap1\n      swap2\n      and\n      swap1\n        /* \"archly.sol\":2938:3166  siteCreated(... */\n      tag_85\n      jump\t// in\n    tag_84:\n      mload(0x40)\n      dup1\n      swap2\n      sub\n      swap1\n      log1\n        /* \"archly.sol\":3206:3213  counter */\n      0x02\n        /* \"archly.sol\":3206:3215  counter++ */\n      dup1\n      sload\n      swap1\n        /* \"archly.sol\":3206:3213  counter */\n      0x00\n        /* \"archly.sol\":3206:3215  counter++ */\n      tag_86\n      dup4\n      tag_49\n      jump\t// in\n    tag_86:\n      swap2\n      swap1\n      pop\n      sstore\n      pop\n        /* \"archly.sol\":2307:3222  {... */\n      pop\n        /* \"archly.sol\":2067:3222  function addSite(... */\n      pop\n      pop\n      pop\n      pop\n      pop\n      pop\n      pop\n      jump\t// out\n        /* \"archly.sol\":1383:1407  uint256[] public siteIds */\n    tag_39:\n      0x07\n      dup2\n      dup2\n      sload\n      dup2\n      lt\n      tag_70\n      jumpi\n      0x00\n      dup1\n      revert\n    tag_43:\n      dup3\n      dup1\n      sload\n      tag_89\n      swap1\n      tag_55\n      jump\t// in\n    tag_89:\n      swap1\n      0x00\n      mstore\n      keccak256(0x00, 0x20)\n      swap1\n      0x1f\n      add\n      0x20\n      swap1\n      div\n      dup2\n      add\n      swap3\n      dup3\n      tag_91\n      jumpi\n      0x00\n      dup6\n      sstore\n      jump(tag_94)\n    tag_91:\n      dup3\n      0x1f\n      lt\n      tag_92\n      jumpi\n      dup1\n      mload\n      not(0xff)\n      and\n      dup4\n      dup1\n      add\n      or\n      dup6\n      sstore\n      jump(tag_94)\n    tag_92:\n      dup3\n      dup1\n      add\n      0x01\n      add\n      dup6\n      sstore\n      dup3\n      iszero\n      tag_94\n      jumpi\n      swap2\n      dup3\n      add\n    tag_93:\n      dup3\n      dup2\n      gt\n      iszero\n      tag_94\n      jumpi\n      dup3\n      mload\n      dup3\n      sstore\n      swap2\n      0x20\n      add\n      swap2\n      swap1\n      0x01\n      add\n      swap1\n      jump(tag_93)\n    tag_94:\n      pop\n      tag_95\n      swap3\n      swap2\n      pop\n      tag_96\n      jump\t// in\n    tag_95:\n      pop\n      swap1\n      jump\t// out\n    tag_96:\n    tag_97:\n      dup1\n      dup3\n      gt\n      iszero\n      tag_95\n      jumpi\n      0x00\n      dup2\n      sstore\n      0x01\n      add\n      jump(tag_97)\n        /* \"#utility.yul\":14:141   */\n    tag_99:\n        /* \"#utility.yul\":75:85   */\n      0x4e487b71\n        /* \"#utility.yul\":70:73   */\n      0xe0\n        /* \"#utility.yul\":66:86   */\n      shl\n        /* \"#utility.yul\":63:64   */\n      0x00\n        /* \"#utility.yul\":56:87   */\n      mstore\n        /* \"#utility.yul\":106:110   */\n      0x41\n        /* \"#utility.yul\":103:104   */\n      0x04\n        /* \"#utility.yul\":96:111   */\n      mstore\n        /* \"#utility.yul\":130:134   */\n      0x24\n        /* \"#utility.yul\":127:128   */\n      0x00\n        /* \"#utility.yul\":120:135   */\n      revert\n        /* \"#utility.yul\":146:865   */\n    tag_100:\n        /* \"#utility.yul\":189:194   */\n      0x00\n        /* \"#utility.yul\":242:245   */\n      dup3\n        /* \"#utility.yul\":235:239   */\n      0x1f\n        /* \"#utility.yul\":227:233   */\n      dup4\n        /* \"#utility.yul\":223:240   */\n      add\n        /* \"#utility.yul\":219:246   */\n      slt\n        /* \"#utility.yul\":209:264   */\n      tag_105\n      jumpi\n        /* \"#utility.yul\":260:261   */\n      0x00\n        /* \"#utility.yul\":257:258   */\n      dup1\n        /* \"#utility.yul\":250:262   */\n      revert\n        /* \"#utility.yul\":209:264   */\n    tag_105:\n        /* \"#utility.yul\":296:302   */\n      dup2\n        /* \"#utility.yul\":283:303   */\n      calldataload\n        /* \"#utility.yul\":322:340   */\n      0xffffffffffffffff\n        /* \"#utility.yul\":359:361   */\n      dup1\n        /* \"#utility.yul\":355:357   */\n      dup3\n        /* \"#utility.yul\":352:362   */\n      gt\n        /* \"#utility.yul\":349:385   */\n      iszero\n      tag_107\n      jumpi\n        /* \"#utility.yul\":365:383   */\n      tag_107\n      tag_99\n      jump\t// in\n    tag_107:\n        /* \"#utility.yul\":440:442   */\n      0x40\n        /* \"#utility.yul\":434:443   */\n      mload\n        /* \"#utility.yul\":408:410   */\n      0x1f\n        /* \"#utility.yul\":494:507   */\n      dup4\n      add\n      not(0x1f)\n        /* \"#utility.yul\":490:512   */\n      swap1\n      dup2\n      and\n        /* \"#utility.yul\":514:516   */\n      0x3f\n        /* \"#utility.yul\":486:517   */\n      add\n        /* \"#utility.yul\":482:522   */\n      and\n        /* \"#utility.yul\":470:523   */\n      dup2\n      add\n      swap1\n        /* \"#utility.yul\":538:556   */\n      dup3\n      dup3\n      gt\n        /* \"#utility.yul\":558:580   */\n      dup2\n      dup4\n      lt\n        /* \"#utility.yul\":535:581   */\n      or\n        /* \"#utility.yul\":532:604   */\n      iszero\n      tag_109\n      jumpi\n        /* \"#utility.yul\":584:602   */\n      tag_109\n      tag_99\n      jump\t// in\n    tag_109:\n        /* \"#utility.yul\":624:634   */\n      dup2\n        /* \"#utility.yul\":620:622   */\n      0x40\n        /* \"#utility.yul\":613:635   */\n      mstore\n        /* \"#utility.yul\":659:661   */\n      dup4\n        /* \"#utility.yul\":651:657   */\n      dup2\n        /* \"#utility.yul\":644:662   */\n      mstore\n        /* \"#utility.yul\":705:708   */\n      dup7\n        /* \"#utility.yul\":698:702   */\n      0x20\n        /* \"#utility.yul\":693:695   */\n      dup6\n        /* \"#utility.yul\":685:691   */\n      dup9\n        /* \"#utility.yul\":681:696   */\n      add\n        /* \"#utility.yul\":677:703   */\n      add\n        /* \"#utility.yul\":674:709   */\n      gt\n        /* \"#utility.yul\":671:726   */\n      iszero\n      tag_110\n      jumpi\n        /* \"#utility.yul\":722:723   */\n      0x00\n        /* \"#utility.yul\":719:720   */\n      dup1\n        /* \"#utility.yul\":712:724   */\n      revert\n        /* \"#utility.yul\":671:726   */\n    tag_110:\n        /* \"#utility.yul\":786:788   */\n      dup4\n        /* \"#utility.yul\":779:783   */\n      0x20\n        /* \"#utility.yul\":771:777   */\n      dup8\n        /* \"#utility.yul\":767:784   */\n      add\n        /* \"#utility.yul\":760:764   */\n      0x20\n        /* \"#utility.yul\":752:758   */\n      dup4\n        /* \"#utility.yul\":748:765   */\n      add\n        /* \"#utility.yul\":735:789   */\n      calldatacopy\n        /* \"#utility.yul\":833:834   */\n      0x00\n        /* \"#utility.yul\":826:830   */\n      0x20\n        /* \"#utility.yul\":821:823   */\n      dup6\n        /* \"#utility.yul\":813:819   */\n      dup4\n        /* \"#utility.yul\":809:824   */\n      add\n        /* \"#utility.yul\":805:831   */\n      add\n        /* \"#utility.yul\":798:835   */\n      mstore\n        /* \"#utility.yul\":853:859   */\n      dup1\n        /* \"#utility.yul\":844:859   */\n      swap5\n      pop\n      pop\n      pop\n      pop\n      pop\n        /* \"#utility.yul\":146:865   */\n      swap3\n      swap2\n      pop\n      pop\n      jump\t// out\n        /* \"#utility.yul\":870:1413   */\n    tag_13:\n        /* \"#utility.yul\":958:964   */\n      0x00\n        /* \"#utility.yul\":966:972   */\n      dup1\n        /* \"#utility.yul\":1019:1021   */\n      0x40\n        /* \"#utility.yul\":1007:1016   */\n      dup4\n        /* \"#utility.yul\":998:1005   */\n      dup6\n        /* \"#utility.yul\":994:1017   */\n      sub\n        /* \"#utility.yul\":990:1022   */\n      slt\n        /* \"#utility.yul\":987:1039   */\n      iszero\n      tag_112\n      jumpi\n        /* \"#utility.yul\":1035:1036   */\n      0x00\n        /* \"#utility.yul\":1032:1033   */\n      dup1\n        /* \"#utility.yul\":1025:1037   */\n      revert\n        /* \"#utility.yul\":987:1039   */\n    tag_112:\n        /* \"#utility.yul\":1075:1084   */\n      dup3\n        /* \"#utility.yul\":1062:1085   */\n      calldataload\n        /* \"#utility.yul\":1104:1122   */\n      0xffffffffffffffff\n        /* \"#utility.yul\":1145:1147   */\n      dup1\n        /* \"#utility.yul\":1137:1143   */\n      dup3\n        /* \"#utility.yul\":1134:1148   */\n      gt\n        /* \"#utility.yul\":1131:1165   */\n      iszero\n      tag_113\n      jumpi\n        /* \"#utility.yul\":1161:1162   */\n      0x00\n        /* \"#utility.yul\":1158:1159   */\n      dup1\n        /* \"#utility.yul\":1151:1163   */\n      revert\n        /* \"#utility.yul\":1131:1165   */\n    tag_113:\n        /* \"#utility.yul\":1184:1234   */\n      tag_114\n        /* \"#utility.yul\":1226:1233   */\n      dup7\n        /* \"#utility.yul\":1217:1223   */\n      dup4\n        /* \"#utility.yul\":1206:1215   */\n      dup8\n        /* \"#utility.yul\":1202:1224   */\n      add\n        /* \"#utility.yul\":1184:1234   */\n      tag_100\n      jump\t// in\n    tag_114:\n        /* \"#utility.yul\":1174:1234   */\n      swap4\n      pop\n        /* \"#utility.yul\":1287:1289   */\n      0x20\n        /* \"#utility.yul\":1276:1285   */\n      dup6\n        /* \"#utility.yul\":1272:1290   */\n      add\n        /* \"#utility.yul\":1259:1291   */\n      calldataload\n        /* \"#utility.yul\":1243:1291   */\n      swap2\n      pop\n        /* \"#utility.yul\":1316:1318   */\n      dup1\n        /* \"#utility.yul\":1306:1314   */\n      dup3\n        /* \"#utility.yul\":1303:1319   */\n      gt\n        /* \"#utility.yul\":1300:1336   */\n      iszero\n      tag_115\n      jumpi\n        /* \"#utility.yul\":1332:1333   */\n      0x00\n        /* \"#utility.yul\":1329:1330   */\n      dup1\n        /* \"#utility.yul\":1322:1334   */\n      revert\n        /* \"#utility.yul\":1300:1336   */\n    tag_115:\n      pop\n        /* \"#utility.yul\":1355:1407   */\n      tag_116\n        /* \"#utility.yul\":1399:1406   */\n      dup6\n        /* \"#utility.yul\":1388:1396   */\n      dup3\n        /* \"#utility.yul\":1377:1386   */\n      dup7\n        /* \"#utility.yul\":1373:1397   */\n      add\n        /* \"#utility.yul\":1355:1407   */\n      tag_100\n      jump\t// in\n    tag_116:\n        /* \"#utility.yul\":1345:1407   */\n      swap2\n      pop\n      pop\n        /* \"#utility.yul\":870:1413   */\n      swap3\n      pop\n      swap3\n      swap1\n      pop\n      jump\t// out\n        /* \"#utility.yul\":1418:1598   */\n    tag_17:\n        /* \"#utility.yul\":1477:1483   */\n      0x00\n        /* \"#utility.yul\":1530:1532   */\n      0x20\n        /* \"#utility.yul\":1518:1527   */\n      dup3\n        /* \"#utility.yul\":1509:1516   */\n      dup5\n        /* \"#utility.yul\":1505:1528   */\n      sub\n        /* \"#utility.yul\":1501:1533   */\n      slt\n        /* \"#utility.yul\":1498:1550   */\n      iszero\n      tag_118\n      jumpi\n        /* \"#utility.yul\":1546:1547   */\n      0x00\n        /* \"#utility.yul\":1543:1544   */\n      dup1\n        /* \"#utility.yul\":1536:1548   */\n      revert\n        /* \"#utility.yul\":1498:1550   */\n    tag_118:\n      pop\n        /* \"#utility.yul\":1569:1592   */\n      calldataload\n      swap2\n        /* \"#utility.yul\":1418:1598   */\n      swap1\n      pop\n      jump\t// out\n        /* \"#utility.yul\":1603:2075   */\n    tag_101:\n        /* \"#utility.yul\":1645:1648   */\n      0x00\n        /* \"#utility.yul\":1683:1688   */\n      dup2\n        /* \"#utility.yul\":1677:1689   */\n      mload\n        /* \"#utility.yul\":1710:1716   */\n      dup1\n        /* \"#utility.yul\":1705:1708   */\n      dup5\n        /* \"#utility.yul\":1698:1717   */\n      mstore\n        /* \"#utility.yul\":1735:1736   */\n      0x00\n        /* \"#utility.yul\":1745:1907   */\n    tag_120:\n        /* \"#utility.yul\":1759:1765   */\n      dup2\n        /* \"#utility.yul\":1756:1757   */\n      dup2\n        /* \"#utility.yul\":1753:1766   */\n      lt\n        /* \"#utility.yul\":1745:1907   */\n      iszero\n      tag_122\n      jumpi\n        /* \"#utility.yul\":1821:1825   */\n      0x20\n        /* \"#utility.yul\":1877:1890   */\n      dup2\n      dup6\n      add\n        /* \"#utility.yul\":1873:1895   */\n      dup2\n      add\n        /* \"#utility.yul\":1867:1896   */\n      mload\n        /* \"#utility.yul\":1849:1860   */\n      dup7\n      dup4\n      add\n        /* \"#utility.yul\":1845:1865   */\n      dup3\n      add\n        /* \"#utility.yul\":1838:1897   */\n      mstore\n        /* \"#utility.yul\":1774:1786   */\n      add\n        /* \"#utility.yul\":1745:1907   */\n      jump(tag_120)\n    tag_122:\n        /* \"#utility.yul\":1925:1931   */\n      dup2\n        /* \"#utility.yul\":1922:1923   */\n      dup2\n        /* \"#utility.yul\":1919:1932   */\n      gt\n        /* \"#utility.yul\":1916:2003   */\n      iszero\n      tag_123\n      jumpi\n        /* \"#utility.yul\":1991:1992   */\n      0x00\n        /* \"#utility.yul\":1984:1988   */\n      0x20\n        /* \"#utility.yul\":1975:1981   */\n      dup4\n        /* \"#utility.yul\":1970:1973   */\n      dup8\n        /* \"#utility.yul\":1966:1982   */\n      add\n        /* \"#utility.yul\":1962:1989   */\n      add\n        /* \"#utility.yul\":1955:1993   */\n      mstore\n        /* \"#utility.yul\":1916:2003   */\n    tag_123:\n      pop\n        /* \"#utility.yul\":2057:2059   */\n      0x1f\n        /* \"#utility.yul\":2036:2051   */\n      add\n      not(0x1f)\n        /* \"#utility.yul\":2032:2061   */\n      and\n        /* \"#utility.yul\":2023:2062   */\n      swap3\n      swap1\n      swap3\n      add\n        /* \"#utility.yul\":2064:2068   */\n      0x20\n        /* \"#utility.yul\":2019:2069   */\n      add\n      swap3\n        /* \"#utility.yul\":1603:2075   */\n      swap2\n      pop\n      pop\n      jump\t// out\n        /* \"#utility.yul\":2080:2748   */\n    tag_20:\n        /* \"#utility.yul\":2353:2356   */\n      0x80\n        /* \"#utility.yul\":2342:2351   */\n      dup2\n        /* \"#utility.yul\":2335:2357   */\n      mstore\n        /* \"#utility.yul\":2316:2320   */\n      0x00\n        /* \"#utility.yul\":2380:2426   */\n      tag_125\n        /* \"#utility.yul\":2421:2424   */\n      0x80\n        /* \"#utility.yul\":2410:2419   */\n      dup4\n        /* \"#utility.yul\":2406:2425   */\n      add\n        /* \"#utility.yul\":2398:2404   */\n      dup8\n        /* \"#utility.yul\":2380:2426   */\n      tag_101\n      jump\t// in\n    tag_125:\n        /* \"#utility.yul\":2474:2483   */\n      dup3\n        /* \"#utility.yul\":2466:2472   */\n      dup2\n        /* \"#utility.yul\":2462:2484   */\n      sub\n        /* \"#utility.yul\":2457:2459   */\n      0x20\n        /* \"#utility.yul\":2446:2455   */\n      dup5\n        /* \"#utility.yul\":2442:2460   */\n      add\n        /* \"#utility.yul\":2435:2485   */\n      mstore\n        /* \"#utility.yul\":2508:2541   */\n      tag_126\n        /* \"#utility.yul\":2534:2540   */\n      dup2\n        /* \"#utility.yul\":2526:2532   */\n      dup8\n        /* \"#utility.yul\":2508:2541   */\n      tag_101\n      jump\t// in\n    tag_126:\n        /* \"#utility.yul\":2494:2541   */\n      swap1\n      pop\n      sub(shl(0xa0, 0x01), 0x01)\n        /* \"#utility.yul\":2581:2587   */\n      dup6\n        /* \"#utility.yul\":2577:2632   */\n      and\n        /* \"#utility.yul\":2572:2574   */\n      0x40\n        /* \"#utility.yul\":2561:2570   */\n      dup5\n        /* \"#utility.yul\":2557:2575   */\n      add\n        /* \"#utility.yul\":2550:2633   */\n      mstore\n        /* \"#utility.yul\":2681:2690   */\n      dup3\n        /* \"#utility.yul\":2673:2679   */\n      dup2\n        /* \"#utility.yul\":2669:2691   */\n      sub\n        /* \"#utility.yul\":2664:2666   */\n      0x60\n        /* \"#utility.yul\":2653:2662   */\n      dup5\n        /* \"#utility.yul\":2649:2667   */\n      add\n        /* \"#utility.yul\":2642:2692   */\n      mstore\n        /* \"#utility.yul\":2709:2742   */\n      tag_127\n        /* \"#utility.yul\":2735:2741   */\n      dup2\n        /* \"#utility.yul\":2727:2733   */\n      dup6\n        /* \"#utility.yul\":2709:2742   */\n      tag_101\n      jump\t// in\n    tag_127:\n        /* \"#utility.yul\":2701:2742   */\n      swap8\n        /* \"#utility.yul\":2080:2748   */\n      swap7\n      pop\n      pop\n      pop\n      pop\n      pop\n      pop\n      pop\n      jump\t// out\n        /* \"#utility.yul\":3166:4713   */\n    tag_32:\n        /* \"#utility.yul\":3349:3355   */\n      0x00\n        /* \"#utility.yul\":3357:3363   */\n      dup1\n        /* \"#utility.yul\":3365:3371   */\n      0x00\n        /* \"#utility.yul\":3373:3379   */\n      dup1\n        /* \"#utility.yul\":3381:3387   */\n      0x00\n        /* \"#utility.yul\":3389:3395   */\n      dup1\n        /* \"#utility.yul\":3397:3403   */\n      0x00\n        /* \"#utility.yul\":3450:3453   */\n      0xe0\n        /* \"#utility.yul\":3438:3447   */\n      dup9\n        /* \"#utility.yul\":3429:3436   */\n      dup11\n        /* \"#utility.yul\":3425:3448   */\n      sub\n        /* \"#utility.yul\":3421:3454   */\n      slt\n        /* \"#utility.yul\":3418:3471   */\n      iszero\n      tag_131\n      jumpi\n        /* \"#utility.yul\":3467:3468   */\n      0x00\n        /* \"#utility.yul\":3464:3465   */\n      dup1\n        /* \"#utility.yul\":3457:3469   */\n      revert\n        /* \"#utility.yul\":3418:3471   */\n    tag_131:\n        /* \"#utility.yul\":3507:3516   */\n      dup8\n        /* \"#utility.yul\":3494:3517   */\n      calldataload\n        /* \"#utility.yul\":3536:3554   */\n      0xffffffffffffffff\n        /* \"#utility.yul\":3577:3579   */\n      dup1\n        /* \"#utility.yul\":3569:3575   */\n      dup3\n        /* \"#utility.yul\":3566:3580   */\n      gt\n        /* \"#utility.yul\":3563:3597   */\n      iszero\n      tag_132\n      jumpi\n        /* \"#utility.yul\":3593:3594   */\n      0x00\n        /* \"#utility.yul\":3590:3591   */\n      dup1\n        /* \"#utility.yul\":3583:3595   */\n      revert\n        /* \"#utility.yul\":3563:3597   */\n    tag_132:\n        /* \"#utility.yul\":3616:3666   */\n      tag_133\n        /* \"#utility.yul\":3658:3665   */\n      dup12\n        /* \"#utility.yul\":3649:3655   */\n      dup4\n        /* \"#utility.yul\":3638:3647   */\n      dup13\n        /* \"#utility.yul\":3634:3656   */\n      add\n        /* \"#utility.yul\":3616:3666   */\n      tag_100\n      jump\t// in\n    tag_133:\n        /* \"#utility.yul\":3606:3666   */\n      swap9\n      pop\n        /* \"#utility.yul\":3719:3721   */\n      0x20\n        /* \"#utility.yul\":3708:3717   */\n      dup11\n        /* \"#utility.yul\":3704:3722   */\n      add\n        /* \"#utility.yul\":3691:3723   */\n      calldataload\n        /* \"#utility.yul\":3675:3723   */\n      swap2\n      pop\n        /* \"#utility.yul\":3748:3750   */\n      dup1\n        /* \"#utility.yul\":3738:3746   */\n      dup3\n        /* \"#utility.yul\":3735:3751   */\n      gt\n        /* \"#utility.yul\":3732:3768   */\n      iszero\n      tag_134\n      jumpi\n        /* \"#utility.yul\":3764:3765   */\n      0x00\n        /* \"#utility.yul\":3761:3762   */\n      dup1\n        /* \"#utility.yul\":3754:3766   */\n      revert\n        /* \"#utility.yul\":3732:3768   */\n    tag_134:\n        /* \"#utility.yul\":3787:3839   */\n      tag_135\n        /* \"#utility.yul\":3831:3838   */\n      dup12\n        /* \"#utility.yul\":3820:3828   */\n      dup4\n        /* \"#utility.yul\":3809:3818   */\n      dup13\n        /* \"#utility.yul\":3805:3829   */\n      add\n        /* \"#utility.yul\":3787:3839   */\n      tag_100\n      jump\t// in\n    tag_135:\n        /* \"#utility.yul\":3777:3839   */\n      swap8\n      pop\n        /* \"#utility.yul\":3892:3894   */\n      0x40\n        /* \"#utility.yul\":3881:3890   */\n      dup11\n        /* \"#utility.yul\":3877:3895   */\n      add\n        /* \"#utility.yul\":3864:3896   */\n      calldataload\n        /* \"#utility.yul\":3848:3896   */\n      swap2\n      pop\n        /* \"#utility.yul\":3921:3923   */\n      dup1\n        /* \"#utility.yul\":3911:3919   */\n      dup3\n        /* \"#utility.yul\":3908:3924   */\n      gt\n        /* \"#utility.yul\":3905:3941   */\n      iszero\n      tag_136\n      jumpi\n        /* \"#utility.yul\":3937:3938   */\n      0x00\n        /* \"#utility.yul\":3934:3935   */\n      dup1\n        /* \"#utility.yul\":3927:3939   */\n      revert\n        /* \"#utility.yul\":3905:3941   */\n    tag_136:\n        /* \"#utility.yul\":3960:4012   */\n      tag_137\n        /* \"#utility.yul\":4004:4011   */\n      dup12\n        /* \"#utility.yul\":3993:4001   */\n      dup4\n        /* \"#utility.yul\":3982:3991   */\n      dup13\n        /* \"#utility.yul\":3978:4002   */\n      add\n        /* \"#utility.yul\":3960:4012   */\n      tag_100\n      jump\t// in\n    tag_137:\n        /* \"#utility.yul\":3950:4012   */\n      swap7\n      pop\n        /* \"#utility.yul\":4065:4067   */\n      0x60\n        /* \"#utility.yul\":4054:4063   */\n      dup11\n        /* \"#utility.yul\":4050:4068   */\n      add\n        /* \"#utility.yul\":4037:4069   */\n      calldataload\n        /* \"#utility.yul\":4021:4069   */\n      swap2\n      pop\n        /* \"#utility.yul\":4094:4096   */\n      dup1\n        /* \"#utility.yul\":4084:4092   */\n      dup3\n        /* \"#utility.yul\":4081:4097   */\n      gt\n        /* \"#utility.yul\":4078:4114   */\n      iszero\n      tag_138\n      jumpi\n        /* \"#utility.yul\":4110:4111   */\n      0x00\n        /* \"#utility.yul\":4107:4108   */\n      dup1\n        /* \"#utility.yul\":4100:4112   */\n      revert\n        /* \"#utility.yul\":4078:4114   */\n    tag_138:\n        /* \"#utility.yul\":4133:4185   */\n      tag_139\n        /* \"#utility.yul\":4177:4184   */\n      dup12\n        /* \"#utility.yul\":4166:4174   */\n      dup4\n        /* \"#utility.yul\":4155:4164   */\n      dup13\n        /* \"#utility.yul\":4151:4175   */\n      add\n        /* \"#utility.yul\":4133:4185   */\n      tag_100\n      jump\t// in\n    tag_139:\n        /* \"#utility.yul\":4123:4185   */\n      swap6\n      pop\n        /* \"#utility.yul\":4238:4241   */\n      0x80\n        /* \"#utility.yul\":4227:4236   */\n      dup11\n        /* \"#utility.yul\":4223:4242   */\n      add\n        /* \"#utility.yul\":4210:4243   */\n      calldataload\n        /* \"#utility.yul\":4194:4243   */\n      swap2\n      pop\n        /* \"#utility.yul\":4268:4270   */\n      dup1\n        /* \"#utility.yul\":4258:4266   */\n      dup3\n        /* \"#utility.yul\":4255:4271   */\n      gt\n        /* \"#utility.yul\":4252:4288   */\n      iszero\n      tag_140\n      jumpi\n        /* \"#utility.yul\":4284:4285   */\n      0x00\n        /* \"#utility.yul\":4281:4282   */\n      dup1\n        /* \"#utility.yul\":4274:4286   */\n      revert\n        /* \"#utility.yul\":4252:4288   */\n    tag_140:\n        /* \"#utility.yul\":4307:4359   */\n      tag_141\n        /* \"#utility.yul\":4351:4358   */\n      dup12\n        /* \"#utility.yul\":4340:4348   */\n      dup4\n        /* \"#utility.yul\":4329:4338   */\n      dup13\n        /* \"#utility.yul\":4325:4349   */\n      add\n        /* \"#utility.yul\":4307:4359   */\n      tag_100\n      jump\t// in\n    tag_141:\n        /* \"#utility.yul\":4297:4359   */\n      swap5\n      pop\n        /* \"#utility.yul\":4412:4415   */\n      0xa0\n        /* \"#utility.yul\":4401:4410   */\n      dup11\n        /* \"#utility.yul\":4397:4416   */\n      add\n        /* \"#utility.yul\":4384:4417   */\n      calldataload\n        /* \"#utility.yul\":4368:4417   */\n      swap2\n      pop\n        /* \"#utility.yul\":4442:4444   */\n      dup1\n        /* \"#utility.yul\":4432:4440   */\n      dup3\n        /* \"#utility.yul\":4429:4445   */\n      gt\n        /* \"#utility.yul\":4426:4462   */\n      iszero\n      tag_142\n      jumpi\n        /* \"#utility.yul\":4458:4459   */\n      0x00\n        /* \"#utility.yul\":4455:4456   */\n      dup1\n        /* \"#utility.yul\":4448:4460   */\n      revert\n        /* \"#utility.yul\":4426:4462   */\n    tag_142:\n        /* \"#utility.yul\":4481:4533   */\n      tag_143\n        /* \"#utility.yul\":4525:4532   */\n      dup12\n        /* \"#utility.yul\":4514:4522   */\n      dup4\n        /* \"#utility.yul\":4503:4512   */\n      dup13\n        /* \"#utility.yul\":4499:4523   */\n      add\n        /* \"#utility.yul\":4481:4533   */\n      tag_100\n      jump\t// in\n    tag_143:\n        /* \"#utility.yul\":4471:4533   */\n      swap4\n      pop\n        /* \"#utility.yul\":4586:4589   */\n      0xc0\n        /* \"#utility.yul\":4575:4584   */\n      dup11\n        /* \"#utility.yul\":4571:4590   */\n      add\n        /* \"#utility.yul\":4558:4591   */\n      calldataload\n        /* \"#utility.yul\":4542:4591   */\n      swap2\n      pop\n        /* \"#utility.yul\":4616:4618   */\n      dup1\n        /* \"#utility.yul\":4606:4614   */\n      dup3\n        /* \"#utility.yul\":4603:4619   */\n      gt\n        /* \"#utility.yul\":4600:4636   */\n      iszero\n      tag_144\n      jumpi\n        /* \"#utility.yul\":4632:4633   */\n      0x00\n        /* \"#utility.yul\":4629:4630   */\n      dup1\n        /* \"#utility.yul\":4622:4634   */\n      revert\n        /* \"#utility.yul\":4600:4636   */\n    tag_144:\n      pop\n        /* \"#utility.yul\":4655:4707   */\n      tag_145\n        /* \"#utility.yul\":4699:4706   */\n      dup11\n        /* \"#utility.yul\":4688:4696   */\n      dup3\n        /* \"#utility.yul\":4677:4686   */\n      dup12\n        /* \"#utility.yul\":4673:4697   */\n      add\n        /* \"#utility.yul\":4655:4707   */\n      tag_100\n      jump\t// in\n    tag_145:\n        /* \"#utility.yul\":4645:4707   */\n      swap2\n      pop\n      pop\n        /* \"#utility.yul\":3166:4713   */\n      swap3\n      swap6\n      swap9\n      swap2\n      swap5\n      swap8\n      pop\n      swap3\n      swap6\n      pop\n      jump\t// out\n        /* \"#utility.yul\":4718:5294   */\n    tag_47:\n        /* \"#utility.yul\":4971:4977   */\n      dup5\n        /* \"#utility.yul\":4960:4969   */\n      dup2\n        /* \"#utility.yul\":4953:4978   */\n      mstore\n        /* \"#utility.yul\":5014:5017   */\n      0x80\n        /* \"#utility.yul\":5009:5011   */\n      0x20\n        /* \"#utility.yul\":4998:5007   */\n      dup3\n        /* \"#utility.yul\":4994:5012   */\n      add\n        /* \"#utility.yul\":4987:5018   */\n      mstore\n        /* \"#utility.yul\":4934:4938   */\n      0x00\n        /* \"#utility.yul\":5041:5087   */\n      tag_147\n        /* \"#utility.yul\":5082:5085   */\n      0x80\n        /* \"#utility.yul\":5071:5080   */\n      dup4\n        /* \"#utility.yul\":5067:5086   */\n      add\n        /* \"#utility.yul\":5059:5065   */\n      dup7\n        /* \"#utility.yul\":5041:5087   */\n      tag_101\n      jump\t// in\n    tag_147:\n      sub(shl(0xa0, 0x01), 0x01)\n        /* \"#utility.yul\":5127:5133   */\n      dup6\n        /* \"#utility.yul\":5123:5178   */\n      and\n        /* \"#utility.yul\":5118:5120   */\n      0x40\n        /* \"#utility.yul\":5107:5116   */\n      dup5\n        /* \"#utility.yul\":5103:5121   */\n      add\n        /* \"#utility.yul\":5096:5179   */\n      mstore\n        /* \"#utility.yul\":5227:5236   */\n      dup3\n        /* \"#utility.yul\":5219:5225   */\n      dup2\n        /* \"#utility.yul\":5215:5237   */\n      sub\n        /* \"#utility.yul\":5210:5212   */\n      0x60\n        /* \"#utility.yul\":5199:5208   */\n      dup5\n        /* \"#utility.yul\":5195:5213   */\n      add\n        /* \"#utility.yul\":5188:5238   */\n      mstore\n        /* \"#utility.yul\":5255:5288   */\n      tag_127\n        /* \"#utility.yul\":5281:5287   */\n      dup2\n        /* \"#utility.yul\":5273:5279   */\n      dup6\n        /* \"#utility.yul\":5255:5288   */\n      tag_101\n      jump\t// in\n        /* \"#utility.yul\":5299:5531   */\n    tag_49:\n        /* \"#utility.yul\":5338:5341   */\n      0x00\n        /* \"#utility.yul\":5359:5376   */\n      0x01\n      dup3\n      add\n        /* \"#utility.yul\":5356:5496   */\n      tag_150\n      jumpi\n        /* \"#utility.yul\":5418:5428   */\n      0x4e487b71\n        /* \"#utility.yul\":5413:5416   */\n      0xe0\n        /* \"#utility.yul\":5409:5429   */\n      shl\n        /* \"#utility.yul\":5406:5407   */\n      0x00\n        /* \"#utility.yul\":5399:5430   */\n      mstore\n        /* \"#utility.yul\":5453:5457   */\n      0x11\n        /* \"#utility.yul\":5450:5451   */\n      0x04\n        /* \"#utility.yul\":5443:5458   */\n      mstore\n        /* \"#utility.yul\":5481:5485   */\n      0x24\n        /* \"#utility.yul\":5478:5479   */\n      0x00\n        /* \"#utility.yul\":5471:5486   */\n      revert\n        /* \"#utility.yul\":5356:5496   */\n    tag_150:\n      pop\n        /* \"#utility.yul\":5523:5524   */\n      0x01\n        /* \"#utility.yul\":5512:5525   */\n      add\n      swap1\n        /* \"#utility.yul\":5299:5531   */\n      jump\t// out\n        /* \"#utility.yul\":5877:6257   */\n    tag_55:\n        /* \"#utility.yul\":5956:5957   */\n      0x01\n        /* \"#utility.yul\":5952:5964   */\n      dup2\n      dup2\n      shr\n      swap1\n        /* \"#utility.yul\":5999:6011   */\n      dup3\n      and\n      dup1\n        /* \"#utility.yul\":6020:6081   */\n      tag_153\n      jumpi\n        /* \"#utility.yul\":6074:6078   */\n      0x7f\n        /* \"#utility.yul\":6066:6072   */\n      dup3\n        /* \"#utility.yul\":6062:6079   */\n      and\n        /* \"#utility.yul\":6052:6079   */\n      swap2\n      pop\n        /* \"#utility.yul\":6020:6081   */\n    tag_153:\n        /* \"#utility.yul\":6127:6129   */\n      0x20\n        /* \"#utility.yul\":6119:6125   */\n      dup3\n        /* \"#utility.yul\":6116:6130   */\n      lt\n        /* \"#utility.yul\":6096:6114   */\n      dup2\n        /* \"#utility.yul\":6093:6131   */\n      sub\n        /* \"#utility.yul\":6090:6251   */\n      tag_154\n      jumpi\n        /* \"#utility.yul\":6173:6183   */\n      0x4e487b71\n        /* \"#utility.yul\":6168:6171   */\n      0xe0\n        /* \"#utility.yul\":6164:6184   */\n      shl\n        /* \"#utility.yul\":6161:6162   */\n      0x00\n        /* \"#utility.yul\":6154:6185   */\n      mstore\n        /* \"#utility.yul\":6208:6212   */\n      0x22\n        /* \"#utility.yul\":6205:6206   */\n      0x04\n        /* \"#utility.yul\":6198:6213   */\n      mstore\n        /* \"#utility.yul\":6236:6240   */\n      0x24\n        /* \"#utility.yul\":6233:6234   */\n      0x00\n        /* \"#utility.yul\":6226:6241   */\n      revert\n        /* \"#utility.yul\":6090:6251   */\n    tag_154:\n      pop\n        /* \"#utility.yul\":5877:6257   */\n      swap2\n      swap1\n      pop\n      jump\t// out\n        /* \"#utility.yul\":6676:8092   */\n    tag_85:\n        /* \"#utility.yul\":7132:7136   */\n      0x00\n        /* \"#utility.yul\":7161:7164   */\n      0x0120\n        /* \"#utility.yul\":7191:7193   */\n      dup1\n        /* \"#utility.yul\":7180:7189   */\n      dup4\n        /* \"#utility.yul\":7173:7194   */\n      mstore\n        /* \"#utility.yul\":7217:7262   */\n      tag_157\n        /* \"#utility.yul\":7258:7260   */\n      dup2\n        /* \"#utility.yul\":7247:7256   */\n      dup5\n        /* \"#utility.yul\":7243:7261   */\n      add\n        /* \"#utility.yul\":7235:7241   */\n      dup14\n        /* \"#utility.yul\":7217:7262   */\n      tag_101\n      jump\t// in\n    tag_157:\n        /* \"#utility.yul\":7203:7262   */\n      swap1\n      pop\n        /* \"#utility.yul\":7310:7319   */\n      dup3\n        /* \"#utility.yul\":7302:7308   */\n      dup2\n        /* \"#utility.yul\":7298:7320   */\n      sub\n        /* \"#utility.yul\":7293:7295   */\n      0x20\n        /* \"#utility.yul\":7282:7291   */\n      dup5\n        /* \"#utility.yul\":7278:7296   */\n      add\n        /* \"#utility.yul\":7271:7321   */\n      mstore\n        /* \"#utility.yul\":7344:7377   */\n      tag_158\n        /* \"#utility.yul\":7370:7376   */\n      dup2\n        /* \"#utility.yul\":7362:7368   */\n      dup13\n        /* \"#utility.yul\":7344:7377   */\n      tag_101\n      jump\t// in\n    tag_158:\n        /* \"#utility.yul\":7330:7377   */\n      swap1\n      pop\n        /* \"#utility.yul\":7425:7434   */\n      dup3\n        /* \"#utility.yul\":7417:7423   */\n      dup2\n        /* \"#utility.yul\":7413:7435   */\n      sub\n        /* \"#utility.yul\":7408:7410   */\n      0x40\n        /* \"#utility.yul\":7397:7406   */\n      dup5\n        /* \"#utility.yul\":7393:7411   */\n      add\n        /* \"#utility.yul\":7386:7436   */\n      mstore\n        /* \"#utility.yul\":7459:7492   */\n      tag_159\n        /* \"#utility.yul\":7485:7491   */\n      dup2\n        /* \"#utility.yul\":7477:7483   */\n      dup12\n        /* \"#utility.yul\":7459:7492   */\n      tag_101\n      jump\t// in\n    tag_159:\n        /* \"#utility.yul\":7445:7492   */\n      swap1\n      pop\n        /* \"#utility.yul\":7540:7549   */\n      dup3\n        /* \"#utility.yul\":7532:7538   */\n      dup2\n        /* \"#utility.yul\":7528:7550   */\n      sub\n        /* \"#utility.yul\":7523:7525   */\n      0x60\n        /* \"#utility.yul\":7512:7521   */\n      dup5\n        /* \"#utility.yul\":7508:7526   */\n      add\n        /* \"#utility.yul\":7501:7551   */\n      mstore\n        /* \"#utility.yul\":7574:7607   */\n      tag_160\n        /* \"#utility.yul\":7600:7606   */\n      dup2\n        /* \"#utility.yul\":7592:7598   */\n      dup11\n        /* \"#utility.yul\":7574:7607   */\n      tag_101\n      jump\t// in\n    tag_160:\n        /* \"#utility.yul\":7560:7607   */\n      swap1\n      pop\n        /* \"#utility.yul\":7656:7665   */\n      dup3\n        /* \"#utility.yul\":7648:7654   */\n      dup2\n        /* \"#utility.yul\":7644:7666   */\n      sub\n        /* \"#utility.yul\":7638:7641   */\n      0x80\n        /* \"#utility.yul\":7627:7636   */\n      dup5\n        /* \"#utility.yul\":7623:7642   */\n      add\n        /* \"#utility.yul\":7616:7667   */\n      mstore\n        /* \"#utility.yul\":7690:7723   */\n      tag_161\n        /* \"#utility.yul\":7716:7722   */\n      dup2\n        /* \"#utility.yul\":7708:7714   */\n      dup10\n        /* \"#utility.yul\":7690:7723   */\n      tag_101\n      jump\t// in\n    tag_161:\n        /* \"#utility.yul\":7676:7723   */\n      swap1\n      pop\n        /* \"#utility.yul\":7772:7781   */\n      dup3\n        /* \"#utility.yul\":7764:7770   */\n      dup2\n        /* \"#utility.yul\":7760:7782   */\n      sub\n        /* \"#utility.yul\":7754:7757   */\n      0xa0\n        /* \"#utility.yul\":7743:7752   */\n      dup5\n        /* \"#utility.yul\":7739:7758   */\n      add\n        /* \"#utility.yul\":7732:7783   */\n      mstore\n        /* \"#utility.yul\":7806:7839   */\n      tag_162\n        /* \"#utility.yul\":7832:7838   */\n      dup2\n        /* \"#utility.yul\":7824:7830   */\n      dup9\n        /* \"#utility.yul\":7806:7839   */\n      tag_101\n      jump\t// in\n    tag_162:\n        /* \"#utility.yul\":7792:7839   */\n      swap1\n      pop\n        /* \"#utility.yul\":7888:7897   */\n      dup3\n        /* \"#utility.yul\":7880:7886   */\n      dup2\n        /* \"#utility.yul\":7876:7898   */\n      sub\n        /* \"#utility.yul\":7870:7873   */\n      0xc0\n        /* \"#utility.yul\":7859:7868   */\n      dup5\n        /* \"#utility.yul\":7855:7874   */\n      add\n        /* \"#utility.yul\":7848:7899   */\n      mstore\n        /* \"#utility.yul\":7916:7949   */\n      tag_163\n        /* \"#utility.yul\":7942:7948   */\n      dup2\n        /* \"#utility.yul\":7934:7940   */\n      dup8\n        /* \"#utility.yul\":7916:7949   */\n      tag_101\n      jump\t// in\n    tag_163:\n        /* \"#utility.yul\":7908:7949   */\n      swap2\n      pop\n      pop\n        /* \"#utility.yul\":7986:7992   */\n      dup4\n        /* \"#utility.yul\":7980:7983   */\n      0xe0\n        /* \"#utility.yul\":7969:7978   */\n      dup4\n        /* \"#utility.yul\":7965:7984   */\n      add\n        /* \"#utility.yul\":7958:7993   */\n      mstore\n      sub(shl(0xa0, 0x01), 0x01)\n        /* \"#utility.yul\":8034:8040   */\n      dup4\n        /* \"#utility.yul\":8030:8085   */\n      and\n        /* \"#utility.yul\":8024:8027   */\n      0x0100\n        /* \"#utility.yul\":8013:8022   */\n      dup4\n        /* \"#utility.yul\":8009:8028   */\n      add\n        /* \"#utility.yul\":8002:8086   */\n      mstore\n        /* \"#utility.yul\":6676:8092   */\n      swap11\n      swap10\n      pop\n      pop\n      pop\n      pop\n      pop\n      pop\n      pop\n      pop\n      pop\n      pop\n      jump\t// out\n\n    auxdata: 0xa26469706673582212207ecdaeb17d7ab0f99e51e5b7cce4197c3908507c2f3cd3fa7e1a3e4b0c77636c64736f6c634300080d0033\n}\n",
    "bytecode": {
      "linkReferences": {},
      "object": "608060405234801561001057600080fd5b506000600281905560038190558054336001600160a01b03199182168117835560018054909216179055610bbd90819061004a90396000f3fe608060405234801561001057600080fd5b506004361061007d5760003560e01c80635eb4d4181161005b5780635eb4d418146100ee5780637b14119c1461010f5780638da5cb5b14610122578063912950a01461013557600080fd5b80631b79bd0d146100825780634eb7d857146100975780634f8632ba146100c3575b600080fd5b610095610090366004610801565b610148565b005b6100aa6100a5366004610865565b610253565b6040516100ba94939291906108cb565b60405180910390f35b6001546100d6906001600160a01b031681565b6040516001600160a01b0390911681526020016100ba565b6101016100fc366004610865565b610490565b6040519081526020016100ba565b61009561011d36600461091e565b6104b1565b6000546100d6906001600160a01b031681565b610101610143366004610865565b6106b5565b6003546000908152600460209081526040909120835190916101719160018401918601906106c5565b5060015460028201805473ffffffffffffffffffffffffffffffffffffffff19166001600160a01b0390921691909117905581516101b890600383019060208501906106c5565b5060035460058054600181810183556000929092527f036b6384b5eca791c62761152d0c79bb0604c104a5fb6f4eb0703f3154bb3db001829055546040517ffc7920c4a273b987dec3d6fa3ff1679911a77ccebf8bc070664ddc39e2953dff9261023192909187916001600160a01b0316908790610a39565b60405180910390a16003805490600061024983610a73565b9190505550505050565b6060806000606060025485106102b05760405162461bcd60e51b815260206004820152600c60248201527f4e6f20737563682053697465000000000000000000000000000000000000000060448201526064015b60405180910390fd5b600085815260066020526040902060088101548154829160018301916001600160a01b0390911690600484019084906102e890610a9a565b80601f016020809104026020016040519081016040528092919081815260200182805461031490610a9a565b80156103615780601f1061033657610100808354040283529160200191610361565b820191906000526020600020905b81548152906001019060200180831161034457829003601f168201915b5050505050935082805461037490610a9a565b80601f01602080910402602001604051908101604052809291908181526020018280546103a090610a9a565b80156103ed5780601f106103c2576101008083540402835291602001916103ed565b820191906000526020600020905b8154815290600101906020018083116103d057829003601f168201915b5050505050925080805461040090610a9a565b80601f016020809104026020016040519081016040528092919081815260200182805461042c90610a9a565b80156104795780601f1061044e57610100808354040283529160200191610479565b820191906000526020600020905b81548152906001019060200180831161045c57829003601f168201915b505050505090509450945094509450509193509193565b600581815481106104a057600080fd5b600091825260209091200154905081565b6000546001600160a01b031633146105315760405162461bcd60e51b815260206004820152602d60248201527f4f6e6c79206f776e6572206f6620736d61727420636f6e74726163742063616e60448201527f207075742075702073697465730000000000000000000000000000000000000060648201526084016102a7565b6002546000908152600660209081526040909120885190916105579183918b01906106c5565b50865161056d90600183019060208a01906106c5565b50855161058390600283019060208901906106c5565b50845161059990600383019060208801906106c5565b5083516105af90600483019060208701906106c5565b5082516105c590600583019060208601906106c5565b5081516105db90600683019060208501906106c5565b50600280546007808401919091556000805460088501805473ffffffffffffffffffffffffffffffffffffffff19166001600160a01b03928316179055925482546001810184559282527fa66cc928b5edb82af9bd49922954155ab7b0942694bea4ce44661d9a8736c688909201829055546040517fb8155a08f2f674afad6b2fd39104a24bab050fd9313f36b2137d6dde7126c49d9361068e938d938d938d938d938d938d938d939190911690610ad4565b60405180910390a1600280549060006106a683610a73565b91905055505050505050505050565b600781815481106104a057600080fd5b8280546106d190610a9a565b90600052602060002090601f0160209004810192826106f35760008555610739565b82601f1061070c57805160ff1916838001178555610739565b82800160010185558215610739579182015b8281111561073957825182559160200191906001019061071e565b50610745929150610749565b5090565b5b80821115610745576000815560010161074a565b634e487b7160e01b600052604160045260246000fd5b600082601f83011261078557600080fd5b813567ffffffffffffffff808211156107a0576107a061075e565b604051601f8301601f19908116603f011681019082821181831017156107c8576107c861075e565b816040528381528660208588010111156107e157600080fd5b836020870160208301376000602085830101528094505050505092915050565b6000806040838503121561081457600080fd5b823567ffffffffffffffff8082111561082c57600080fd5b61083886838701610774565b9350602085013591508082111561084e57600080fd5b5061085b85828601610774565b9150509250929050565b60006020828403121561087757600080fd5b5035919050565b6000815180845260005b818110156108a457602081850181015186830182015201610888565b818111156108b6576000602083870101525b50601f01601f19169290920160200192915050565b6080815260006108de608083018761087e565b82810360208401526108f0818761087e565b90506001600160a01b03851660408401528281036060840152610913818561087e565b979650505050505050565b600080600080600080600060e0888a03121561093957600080fd5b873567ffffffffffffffff8082111561095157600080fd5b61095d8b838c01610774565b985060208a013591508082111561097357600080fd5b61097f8b838c01610774565b975060408a013591508082111561099557600080fd5b6109a18b838c01610774565b965060608a01359150808211156109b757600080fd5b6109c38b838c01610774565b955060808a01359150808211156109d957600080fd5b6109e58b838c01610774565b945060a08a01359150808211156109fb57600080fd5b610a078b838c01610774565b935060c08a0135915080821115610a1d57600080fd5b50610a2a8a828b01610774565b91505092959891949750929550565b848152608060208201526000610a52608083018661087e565b6001600160a01b03851660408401528281036060840152610913818561087e565b600060018201610a9357634e487b7160e01b600052601160045260246000fd5b5060010190565b600181811c90821680610aae57607f821691505b602082108103610ace57634e487b7160e01b600052602260045260246000fd5b50919050565b6000610120808352610ae88184018d61087e565b90508281036020840152610afc818c61087e565b90508281036040840152610b10818b61087e565b90508281036060840152610b24818a61087e565b90508281036080840152610b38818961087e565b905082810360a0840152610b4c818861087e565b905082810360c0840152610b60818761087e565b9150508360e08301526001600160a01b0383166101008301529a995050505050505050505056fea26469706673582212207ecdaeb17d7ab0f99e51e5b7cce4197c3908507c2f3cd3fa7e1a3e4b0c77636c64736f6c634300080d0033",
      "opcodes": "PUSH1 0x80 PUSH1 0x40 MSTORE CALLVALUE DUP1 ISZERO PUSH2 0x10 JUMPI PUSH1 0x0 DUP1 REVERT JUMPDEST POP PUSH1 0x0 PUSH1 0x2 DUP2 SWAP1 SSTORE PUSH1 0x3 DUP2 SWAP1 SSTORE DUP1 SLOAD CALLER PUSH1 0x1 PUSH1 0x1 PUSH1 0xA0 SHL SUB NOT SWAP2 DUP3 AND DUP2 OR DUP4 SSTORE PUSH1 0x1 DUP1 SLOAD SWAP1 SWAP3 AND OR SWAP1 SSTORE PUSH2 0xBBD SWAP1 DUP2 SWAP1 PUSH2 0x4A SWAP1 CODECOPY PUSH1 0x0 RETURN INVALID PUSH1 0x80 PUSH1 0x40 MSTORE CALLVALUE DUP1 ISZERO PUSH2 0x10 JUMPI PUSH1 0x0 DUP1 REVERT JUMPDEST POP PUSH1 0x4 CALLDATASIZE LT PUSH2 0x7D JUMPI PUSH1 0x0 CALLDATALOAD PUSH1 0xE0 SHR DUP1 PUSH4 0x5EB4D418 GT PUSH2 0x5B JUMPI DUP1 PUSH4 0x5EB4D418 EQ PUSH2 0xEE JUMPI DUP1 PUSH4 0x7B14119C EQ PUSH2 0x10F JUMPI DUP1 PUSH4 0x8DA5CB5B EQ PUSH2 0x122 JUMPI DUP1 PUSH4 0x912950A0 EQ PUSH2 0x135 JUMPI PUSH1 0x0 DUP1 REVERT JUMPDEST DUP1 PUSH4 0x1B79BD0D EQ PUSH2 0x82 JUMPI DUP1 PUSH4 0x4EB7D857 EQ PUSH2 0x97 JUMPI DUP1 PUSH4 0x4F8632BA EQ PUSH2 0xC3 JUMPI JUMPDEST PUSH1 0x0 DUP1 REVERT JUMPDEST PUSH2 0x95 PUSH2 0x90 CALLDATASIZE PUSH1 0x4 PUSH2 0x801 JUMP JUMPDEST PUSH2 0x148 JUMP JUMPDEST STOP JUMPDEST PUSH2 0xAA PUSH2 0xA5 CALLDATASIZE PUSH1 0x4 PUSH2 0x865 JUMP JUMPDEST PUSH2 0x253 JUMP JUMPDEST PUSH1 0x40 MLOAD PUSH2 0xBA SWAP5 SWAP4 SWAP3 SWAP2 SWAP1 PUSH2 0x8CB JUMP JUMPDEST PUSH1 0x40 MLOAD DUP1 SWAP2 SUB SWAP1 RETURN JUMPDEST PUSH1 0x1 SLOAD PUSH2 0xD6 SWAP1 PUSH1 0x1 PUSH1 0x1 PUSH1 0xA0 SHL SUB AND DUP2 JUMP JUMPDEST PUSH1 0x40 MLOAD PUSH1 0x1 PUSH1 0x1 PUSH1 0xA0 SHL SUB SWAP1 SWAP2 AND DUP2 MSTORE PUSH1 0x20 ADD PUSH2 0xBA JUMP JUMPDEST PUSH2 0x101 PUSH2 0xFC CALLDATASIZE PUSH1 0x4 PUSH2 0x865 JUMP JUMPDEST PUSH2 0x490 JUMP JUMPDEST PUSH1 0x40 MLOAD SWAP1 DUP2 MSTORE PUSH1 0x20 ADD PUSH2 0xBA JUMP JUMPDEST PUSH2 0x95 PUSH2 0x11D CALLDATASIZE PUSH1 0x4 PUSH2 0x91E JUMP JUMPDEST PUSH2 0x4B1 JUMP JUMPDEST PUSH1 0x0 SLOAD PUSH2 0xD6 SWAP1 PUSH1 0x1 PUSH1 0x1 PUSH1 0xA0 SHL SUB AND DUP2 JUMP JUMPDEST PUSH2 0x101 PUSH2 0x143 CALLDATASIZE PUSH1 0x4 PUSH2 0x865 JUMP JUMPDEST PUSH2 0x6B5 JUMP JUMPDEST PUSH1 0x3 SLOAD PUSH1 0x0 SWAP1 DUP2 MSTORE PUSH1 0x4 PUSH1 0x20 SWAP1 DUP2 MSTORE PUSH1 0x40 SWAP1 SWAP2 KECCAK256 DUP4 MLOAD SWAP1 SWAP2 PUSH2 0x171 SWAP2 PUSH1 0x1 DUP5 ADD SWAP2 DUP7 ADD SWAP1 PUSH2 0x6C5 JUMP JUMPDEST POP PUSH1 0x1 SLOAD PUSH1 0x2 DUP3 ADD DUP1 SLOAD PUSH20 0xFFFFFFFFFFFFFFFFFFFFFFFFFFFFFFFFFFFFFFFF NOT AND PUSH1 0x1 PUSH1 0x1 PUSH1 0xA0 SHL SUB SWAP1 SWAP3 AND SWAP2 SWAP1 SWAP2 OR SWAP1 SSTORE DUP2 MLOAD PUSH2 0x1B8 SWAP1 PUSH1 0x3 DUP4 ADD SWAP1 PUSH1 0x20 DUP6 ADD SWAP1 PUSH2 0x6C5 JUMP JUMPDEST POP PUSH1 0x3 SLOAD PUSH1 0x5 DUP1 SLOAD PUSH1 0x1 DUP2 DUP2 ADD DUP4 SSTORE PUSH1 0x0 SWAP3 SWAP1 SWAP3 MSTORE PUSH32 0x36B6384B5ECA791C62761152D0C79BB0604C104A5FB6F4EB0703F3154BB3DB0 ADD DUP3 SWAP1 SSTORE SLOAD PUSH1 0x40 MLOAD PUSH32 0xFC7920C4A273B987DEC3D6FA3FF1679911A77CCEBF8BC070664DDC39E2953DFF SWAP3 PUSH2 0x231 SWAP3 SWAP1 SWAP2 DUP8 SWAP2 PUSH1 0x1 PUSH1 0x1 PUSH1 0xA0 SHL SUB AND SWAP1 DUP8 SWAP1 PUSH2 0xA39 JUMP JUMPDEST PUSH1 0x40 MLOAD DUP1 SWAP2 SUB SWAP1 LOG1 PUSH1 0x3 DUP1 SLOAD SWAP1 PUSH1 0x0 PUSH2 0x249 DUP4 PUSH2 0xA73 JUMP JUMPDEST SWAP2 SWAP1 POP SSTORE POP POP POP POP JUMP JUMPDEST PUSH1 0x60 DUP1 PUSH1 0x0 PUSH1 0x60 PUSH1 0x2 SLOAD DUP6 LT PUSH2 0x2B0 JUMPI PUSH1 0x40 MLOAD PUSH3 0x461BCD PUSH1 0xE5 SHL DUP2 MSTORE PUSH1 0x20 PUSH1 0x4 DUP3 ADD MSTORE PUSH1 0xC PUSH1 0x24 DUP3 ADD MSTORE PUSH32 0x4E6F207375636820536974650000000000000000000000000000000000000000 PUSH1 0x44 DUP3 ADD MSTORE PUSH1 0x64 ADD JUMPDEST PUSH1 0x40 MLOAD DUP1 SWAP2 SUB SWAP1 REVERT JUMPDEST PUSH1 0x0 DUP6 DUP2 MSTORE PUSH1 0x6 PUSH1 0x20 MSTORE PUSH1 0x40 SWAP1 KECCAK256 PUSH1 0x8 DUP2 ADD SLOAD DUP2 SLOAD DUP3 SWAP2 PUSH1 0x1 DUP4 ADD SWAP2 PUSH1 0x1 PUSH1 0x1 PUSH1 0xA0 SHL SUB SWAP1 SWAP2 AND SWAP1 PUSH1 0x4 DUP5 ADD SWAP1 DUP5 SWAP1 PUSH2 0x2E8 SWAP1 PUSH2 0xA9A JUMP JUMPDEST DUP1 PUSH1 0x1F ADD PUSH1 0x20 DUP1 SWAP2 DIV MUL PUSH1 0x20 ADD PUSH1 0x40 MLOAD SWAP1 DUP2 ADD PUSH1 0x40 MSTORE DUP1 SWAP3 SWAP2 SWAP1 DUP2 DUP2 MSTORE PUSH1 0x20 ADD DUP3 DUP1 SLOAD PUSH2 0x314 SWAP1 PUSH2 0xA9A JUMP JUMPDEST DUP1 ISZERO PUSH2 0x361 JUMPI DUP1 PUSH1 0x1F LT PUSH2 0x336 JUMPI PUSH2 0x100 DUP1 DUP4 SLOAD DIV MUL DUP4 MSTORE SWAP2 PUSH1 0x20 ADD SWAP2 PUSH2 0x361 JUMP JUMPDEST DUP3 ADD SWAP2 SWAP1 PUSH1 0x0 MSTORE PUSH1 0x20 PUSH1 0x0 KECCAK256 SWAP1 JUMPDEST DUP2 SLOAD DUP2 MSTORE SWAP1 PUSH1 0x1 ADD SWAP1 PUSH1 0x20 ADD DUP1 DUP4 GT PUSH2 0x344 JUMPI DUP3 SWAP1 SUB PUSH1 0x1F AND DUP3 ADD SWAP2 JUMPDEST POP POP POP POP POP SWAP4 POP DUP3 DUP1 SLOAD PUSH2 0x374 SWAP1 PUSH2 0xA9A JUMP JUMPDEST DUP1 PUSH1 0x1F ADD PUSH1 0x20 DUP1 SWAP2 DIV MUL PUSH1 0x20 ADD PUSH1 0x40 MLOAD SWAP1 DUP2 ADD PUSH1 0x40 MSTORE DUP1 SWAP3 SWAP2 SWAP1 DUP2 DUP2 MSTORE PUSH1 0x20 ADD DUP3 DUP1 SLOAD PUSH2 0x3A0 SWAP1 PUSH2 0xA9A JUMP JUMPDEST DUP1 ISZERO PUSH2 0x3ED JUMPI DUP1 PUSH1 0x1F LT PUSH2 0x3C2 JUMPI PUSH2 0x100 DUP1 DUP4 SLOAD DIV MUL DUP4 MSTORE SWAP2 PUSH1 0x20 ADD SWAP2 PUSH2 0x3ED JUMP JUMPDEST DUP3 ADD SWAP2 SWAP1 PUSH1 0x0 MSTORE PUSH1 0x20 PUSH1 0x0 KECCAK256 SWAP1 JUMPDEST DUP2 SLOAD DUP2 MSTORE SWAP1 PUSH1 0x1 ADD SWAP1 PUSH1 0x20 ADD DUP1 DUP4 GT PUSH2 0x3D0 JUMPI DUP3 SWAP1 SUB PUSH1 0x1F AND DUP3 ADD SWAP2 JUMPDEST POP POP POP POP POP SWAP3 POP DUP1 DUP1 SLOAD PUSH2 0x400 SWAP1 PUSH2 0xA9A JUMP JUMPDEST DUP1 PUSH1 0x1F ADD PUSH1 0x20 DUP1 SWAP2 DIV MUL PUSH1 0x20 ADD PUSH1 0x40 MLOAD SWAP1 DUP2 ADD PUSH1 0x40 MSTORE DUP1 SWAP3 SWAP2 SWAP1 DUP2 DUP2 MSTORE PUSH1 0x20 ADD DUP3 DUP1 SLOAD PUSH2 0x42C SWAP1 PUSH2 0xA9A JUMP JUMPDEST DUP1 ISZERO PUSH2 0x479 JUMPI DUP1 PUSH1 0x1F LT PUSH2 0x44E JUMPI PUSH2 0x100 DUP1 DUP4 SLOAD DIV MUL DUP4 MSTORE SWAP2 PUSH1 0x20 ADD SWAP2 PUSH2 0x479 JUMP JUMPDEST DUP3 ADD SWAP2 SWAP1 PUSH1 0x0 MSTORE PUSH1 0x20 PUSH1 0x0 KECCAK256 SWAP1 JUMPDEST DUP2 SLOAD DUP2 MSTORE SWAP1 PUSH1 0x1 ADD SWAP1 PUSH1 0x20 ADD DUP1 DUP4 GT PUSH2 0x45C JUMPI DUP3 SWAP1 SUB PUSH1 0x1F AND DUP3 ADD SWAP2 JUMPDEST POP POP POP POP POP SWAP1 POP SWAP5 POP SWAP5 POP SWAP5 POP SWAP5 POP POP SWAP2 SWAP4 POP SWAP2 SWAP4 JUMP JUMPDEST PUSH1 0x5 DUP2 DUP2 SLOAD DUP2 LT PUSH2 0x4A0 JUMPI PUSH1 0x0 DUP1 REVERT JUMPDEST PUSH1 0x0 SWAP2 DUP3 MSTORE PUSH1 0x20 SWAP1 SWAP2 KECCAK256 ADD SLOAD SWAP1 POP DUP2 JUMP JUMPDEST PUSH1 0x0 SLOAD PUSH1 0x1 PUSH1 0x1 PUSH1 0xA0 SHL SUB AND CALLER EQ PUSH2 0x531 JUMPI PUSH1 0x40 MLOAD PUSH3 0x461BCD PUSH1 0xE5 SHL DUP2 MSTORE PUSH1 0x20 PUSH1 0x4 DUP3 ADD MSTORE PUSH1 0x2D PUSH1 0x24 DUP3 ADD MSTORE PUSH32 0x4F6E6C79206F776E6572206F6620736D61727420636F6E74726163742063616E PUSH1 0x44 DUP3 ADD MSTORE PUSH32 0x2070757420757020736974657300000000000000000000000000000000000000 PUSH1 0x64 DUP3 ADD MSTORE PUSH1 0x84 ADD PUSH2 0x2A7 JUMP JUMPDEST PUSH1 0x2 SLOAD PUSH1 0x0 SWAP1 DUP2 MSTORE PUSH1 0x6 PUSH1 0x20 SWAP1 DUP2 MSTORE PUSH1 0x40 SWAP1 SWAP2 KECCAK256 DUP9 MLOAD SWAP1 SWAP2 PUSH2 0x557 SWAP2 DUP4 SWAP2 DUP12 ADD SWAP1 PUSH2 0x6C5 JUMP JUMPDEST POP DUP7 MLOAD PUSH2 0x56D SWAP1 PUSH1 0x1 DUP4 ADD SWAP1 PUSH1 0x20 DUP11 ADD SWAP1 PUSH2 0x6C5 JUMP JUMPDEST POP DUP6 MLOAD PUSH2 0x583 SWAP1 PUSH1 0x2 DUP4 ADD SWAP1 PUSH1 0x20 DUP10 ADD SWAP1 PUSH2 0x6C5 JUMP JUMPDEST POP DUP5 MLOAD PUSH2 0x599 SWAP1 PUSH1 0x3 DUP4 ADD SWAP1 PUSH1 0x20 DUP9 ADD SWAP1 PUSH2 0x6C5 JUMP JUMPDEST POP DUP4 MLOAD PUSH2 0x5AF SWAP1 PUSH1 0x4 DUP4 ADD SWAP1 PUSH1 0x20 DUP8 ADD SWAP1 PUSH2 0x6C5 JUMP JUMPDEST POP DUP3 MLOAD PUSH2 0x5C5 SWAP1 PUSH1 0x5 DUP4 ADD SWAP1 PUSH1 0x20 DUP7 ADD SWAP1 PUSH2 0x6C5 JUMP JUMPDEST POP DUP2 MLOAD PUSH2 0x5DB SWAP1 PUSH1 0x6 DUP4 ADD SWAP1 PUSH1 0x20 DUP6 ADD SWAP1 PUSH2 0x6C5 JUMP JUMPDEST POP PUSH1 0x2 DUP1 SLOAD PUSH1 0x7 DUP1 DUP5 ADD SWAP2 SWAP1 SWAP2 SSTORE PUSH1 0x0 DUP1 SLOAD PUSH1 0x8 DUP6 ADD DUP1 SLOAD PUSH20 0xFFFFFFFFFFFFFFFFFFFFFFFFFFFFFFFFFFFFFFFF NOT AND PUSH1 0x1 PUSH1 0x1 PUSH1 0xA0 SHL SUB SWAP3 DUP4 AND OR SWAP1 SSTORE SWAP3 SLOAD DUP3 SLOAD PUSH1 0x1 DUP2 ADD DUP5 SSTORE SWAP3 DUP3 MSTORE PUSH32 0xA66CC928B5EDB82AF9BD49922954155AB7B0942694BEA4CE44661D9A8736C688 SWAP1 SWAP3 ADD DUP3 SWAP1 SSTORE SLOAD PUSH1 0x40 MLOAD PUSH32 0xB8155A08F2F674AFAD6B2FD39104A24BAB050FD9313F36B2137D6DDE7126C49D SWAP4 PUSH2 0x68E SWAP4 DUP14 SWAP4 DUP14 SWAP4 DUP14 SWAP4 DUP14 SWAP4 DUP14 SWAP4 DUP14 SWAP4 DUP14 SWAP4 SWAP2 SWAP1 SWAP2 AND SWAP1 PUSH2 0xAD4 JUMP JUMPDEST PUSH1 0x40 MLOAD DUP1 SWAP2 SUB SWAP1 LOG1 PUSH1 0x2 DUP1 SLOAD SWAP1 PUSH1 0x0 PUSH2 0x6A6 DUP4 PUSH2 0xA73 JUMP JUMPDEST SWAP2 SWAP1 POP SSTORE POP POP POP POP POP POP POP POP POP JUMP JUMPDEST PUSH1 0x7 DUP2 DUP2 SLOAD DUP2 LT PUSH2 0x4A0 JUMPI PUSH1 0x0 DUP1 REVERT JUMPDEST DUP3 DUP1 SLOAD PUSH2 0x6D1 SWAP1 PUSH2 0xA9A JUMP JUMPDEST SWAP1 PUSH1 0x0 MSTORE PUSH1 0x20 PUSH1 0x0 KECCAK256 SWAP1 PUSH1 0x1F ADD PUSH1 0x20 SWAP1 DIV DUP2 ADD SWAP3 DUP3 PUSH2 0x6F3 JUMPI PUSH1 0x0 DUP6 SSTORE PUSH2 0x739 JUMP JUMPDEST DUP3 PUSH1 0x1F LT PUSH2 0x70C JUMPI DUP1 MLOAD PUSH1 0xFF NOT AND DUP4 DUP1 ADD OR DUP6 SSTORE PUSH2 0x739 JUMP JUMPDEST DUP3 DUP1 ADD PUSH1 0x1 ADD DUP6 SSTORE DUP3 ISZERO PUSH2 0x739 JUMPI SWAP2 DUP3 ADD JUMPDEST DUP3 DUP2 GT ISZERO PUSH2 0x739 JUMPI DUP3 MLOAD DUP3 SSTORE SWAP2 PUSH1 0x20 ADD SWAP2 SWAP1 PUSH1 0x1 ADD SWAP1 PUSH2 0x71E JUMP JUMPDEST POP PUSH2 0x745 SWAP3 SWAP2 POP PUSH2 0x749 JUMP JUMPDEST POP SWAP1 JUMP JUMPDEST JUMPDEST DUP1 DUP3 GT ISZERO PUSH2 0x745 JUMPI PUSH1 0x0 DUP2 SSTORE PUSH1 0x1 ADD PUSH2 0x74A JUMP JUMPDEST PUSH4 0x4E487B71 PUSH1 0xE0 SHL PUSH1 0x0 MSTORE PUSH1 0x41 PUSH1 0x4 MSTORE PUSH1 0x24 PUSH1 0x0 REVERT JUMPDEST PUSH1 0x0 DUP3 PUSH1 0x1F DUP4 ADD SLT PUSH2 0x785 JUMPI PUSH1 0x0 DUP1 REVERT JUMPDEST DUP2 CALLDATALOAD PUSH8 0xFFFFFFFFFFFFFFFF DUP1 DUP3 GT ISZERO PUSH2 0x7A0 JUMPI PUSH2 0x7A0 PUSH2 0x75E JUMP JUMPDEST PUSH1 0x40 MLOAD PUSH1 0x1F DUP4 ADD PUSH1 0x1F NOT SWAP1 DUP2 AND PUSH1 0x3F ADD AND DUP2 ADD SWAP1 DUP3 DUP3 GT DUP2 DUP4 LT OR ISZERO PUSH2 0x7C8 JUMPI PUSH2 0x7C8 PUSH2 0x75E JUMP JUMPDEST DUP2 PUSH1 0x40 MSTORE DUP4 DUP2 MSTORE DUP7 PUSH1 0x20 DUP6 DUP9 ADD ADD GT ISZERO PUSH2 0x7E1 JUMPI PUSH1 0x0 DUP1 REVERT JUMPDEST DUP4 PUSH1 0x20 DUP8 ADD PUSH1 0x20 DUP4 ADD CALLDATACOPY PUSH1 0x0 PUSH1 0x20 DUP6 DUP4 ADD ADD MSTORE DUP1 SWAP5 POP POP POP POP POP SWAP3 SWAP2 POP POP JUMP JUMPDEST PUSH1 0x0 DUP1 PUSH1 0x40 DUP4 DUP6 SUB SLT ISZERO PUSH2 0x814 JUMPI PUSH1 0x0 DUP1 REVERT JUMPDEST DUP3 CALLDATALOAD PUSH8 0xFFFFFFFFFFFFFFFF DUP1 DUP3 GT ISZERO PUSH2 0x82C JUMPI PUSH1 0x0 DUP1 REVERT JUMPDEST PUSH2 0x838 DUP7 DUP4 DUP8 ADD PUSH2 0x774 JUMP JUMPDEST SWAP4 POP PUSH1 0x20 DUP6 ADD CALLDATALOAD SWAP2 POP DUP1 DUP3 GT ISZERO PUSH2 0x84E JUMPI PUSH1 0x0 DUP1 REVERT JUMPDEST POP PUSH2 0x85B DUP6 DUP3 DUP7 ADD PUSH2 0x774 JUMP JUMPDEST SWAP2 POP POP SWAP3 POP SWAP3 SWAP1 POP JUMP JUMPDEST PUSH1 0x0 PUSH1 0x20 DUP3 DUP5 SUB SLT ISZERO PUSH2 0x877 JUMPI PUSH1 0x0 DUP1 REVERT JUMPDEST POP CALLDATALOAD SWAP2 SWAP1 POP JUMP JUMPDEST PUSH1 0x0 DUP2 MLOAD DUP1 DUP5 MSTORE PUSH1 0x0 JUMPDEST DUP2 DUP2 LT ISZERO PUSH2 0x8A4 JUMPI PUSH1 0x20 DUP2 DUP6 ADD DUP2 ADD MLOAD DUP7 DUP4 ADD DUP3 ADD MSTORE ADD PUSH2 0x888 JUMP JUMPDEST DUP2 DUP2 GT ISZERO PUSH2 0x8B6 JUMPI PUSH1 0x0 PUSH1 0x20 DUP4 DUP8 ADD ADD MSTORE JUMPDEST POP PUSH1 0x1F ADD PUSH1 0x1F NOT AND SWAP3 SWAP1 SWAP3 ADD PUSH1 0x20 ADD SWAP3 SWAP2 POP POP JUMP JUMPDEST PUSH1 0x80 DUP2 MSTORE PUSH1 0x0 PUSH2 0x8DE PUSH1 0x80 DUP4 ADD DUP8 PUSH2 0x87E JUMP JUMPDEST DUP3 DUP2 SUB PUSH1 0x20 DUP5 ADD MSTORE PUSH2 0x8F0 DUP2 DUP8 PUSH2 0x87E JUMP JUMPDEST SWAP1 POP PUSH1 0x1 PUSH1 0x1 PUSH1 0xA0 SHL SUB DUP6 AND PUSH1 0x40 DUP5 ADD MSTORE DUP3 DUP2 SUB PUSH1 0x60 DUP5 ADD MSTORE PUSH2 0x913 DUP2 DUP6 PUSH2 0x87E JUMP JUMPDEST SWAP8 SWAP7 POP POP POP POP POP POP POP JUMP JUMPDEST PUSH1 0x0 DUP1 PUSH1 0x0 DUP1 PUSH1 0x0 DUP1 PUSH1 0x0 PUSH1 0xE0 DUP9 DUP11 SUB SLT ISZERO PUSH2 0x939 JUMPI PUSH1 0x0 DUP1 REVERT JUMPDEST DUP8 CALLDATALOAD PUSH8 0xFFFFFFFFFFFFFFFF DUP1 DUP3 GT ISZERO PUSH2 0x951 JUMPI PUSH1 0x0 DUP1 REVERT JUMPDEST PUSH2 0x95D DUP12 DUP4 DUP13 ADD PUSH2 0x774 JUMP JUMPDEST SWAP9 POP PUSH1 0x20 DUP11 ADD CALLDATALOAD SWAP2 POP DUP1 DUP3 GT ISZERO PUSH2 0x973 JUMPI PUSH1 0x0 DUP1 REVERT JUMPDEST PUSH2 0x97F DUP12 DUP4 DUP13 ADD PUSH2 0x774 JUMP JUMPDEST SWAP8 POP PUSH1 0x40 DUP11 ADD CALLDATALOAD SWAP2 POP DUP1 DUP3 GT ISZERO PUSH2 0x995 JUMPI PUSH1 0x0 DUP1 REVERT JUMPDEST PUSH2 0x9A1 DUP12 DUP4 DUP13 ADD PUSH2 0x774 JUMP JUMPDEST SWAP7 POP PUSH1 0x60 DUP11 ADD CALLDATALOAD SWAP2 POP DUP1 DUP3 GT ISZERO PUSH2 0x9B7 JUMPI PUSH1 0x0 DUP1 REVERT JUMPDEST PUSH2 0x9C3 DUP12 DUP4 DUP13 ADD PUSH2 0x774 JUMP JUMPDEST SWAP6 POP PUSH1 0x80 DUP11 ADD CALLDATALOAD SWAP2 POP DUP1 DUP3 GT ISZERO PUSH2 0x9D9 JUMPI PUSH1 0x0 DUP1 REVERT JUMPDEST PUSH2 0x9E5 DUP12 DUP4 DUP13 ADD PUSH2 0x774 JUMP JUMPDEST SWAP5 POP PUSH1 0xA0 DUP11 ADD CALLDATALOAD SWAP2 POP DUP1 DUP3 GT ISZERO PUSH2 0x9FB JUMPI PUSH1 0x0 DUP1 REVERT JUMPDEST PUSH2 0xA07 DUP12 DUP4 DUP13 ADD PUSH2 0x774 JUMP JUMPDEST SWAP4 POP PUSH1 0xC0 DUP11 ADD CALLDATALOAD SWAP2 POP DUP1 DUP3 GT ISZERO PUSH2 0xA1D JUMPI PUSH1 0x0 DUP1 REVERT JUMPDEST POP PUSH2 0xA2A DUP11 DUP3 DUP12 ADD PUSH2 0x774 JUMP JUMPDEST SWAP2 POP POP SWAP3 SWAP6 SWAP9 SWAP2 SWAP5 SWAP8 POP SWAP3 SWAP6 POP JUMP JUMPDEST DUP5 DUP2 MSTORE PUSH1 0x80 PUSH1 0x20 DUP3 ADD MSTORE PUSH1 0x0 PUSH2 0xA52 PUSH1 0x80 DUP4 ADD DUP7 PUSH2 0x87E JUMP JUMPDEST PUSH1 0x1 PUSH1 0x1 PUSH1 0xA0 SHL SUB DUP6 AND PUSH1 0x40 DUP5 ADD MSTORE DUP3 DUP2 SUB PUSH1 0x60 DUP5 ADD MSTORE PUSH2 0x913 DUP2 DUP6 PUSH2 0x87E JUMP JUMPDEST PUSH1 0x0 PUSH1 0x1 DUP3 ADD PUSH2 0xA93 JUMPI PUSH4 0x4E487B71 PUSH1 0xE0 SHL PUSH1 0x0 MSTORE PUSH1 0x11 PUSH1 0x4 MSTORE PUSH1 0x24 PUSH1 0x0 REVERT JUMPDEST POP PUSH1 0x1 ADD SWAP1 JUMP JUMPDEST PUSH1 0x1 DUP2 DUP2 SHR SWAP1 DUP3 AND DUP1 PUSH2 0xAAE JUMPI PUSH1 0x7F DUP3 AND SWAP2 POP JUMPDEST PUSH1 0x20 DUP3 LT DUP2 SUB PUSH2 0xACE JUMPI PUSH4 0x4E487B71 PUSH1 0xE0 SHL PUSH1 0x0 MSTORE PUSH1 0x22 PUSH1 0x4 MSTORE PUSH1 0x24 PUSH1 0x0 REVERT JUMPDEST POP SWAP2 SWAP1 POP JUMP JUMPDEST PUSH1 0x0 PUSH2 0x120 DUP1 DUP4 MSTORE PUSH2 0xAE8 DUP2 DUP5 ADD DUP14 PUSH2 0x87E JUMP JUMPDEST SWAP1 POP DUP3 DUP2 SUB PUSH1 0x20 DUP5 ADD MSTORE PUSH2 0xAFC DUP2 DUP13 PUSH2 0x87E JUMP JUMPDEST SWAP1 POP DUP3 DUP2 SUB PUSH1 0x40 DUP5 ADD MSTORE PUSH2 0xB10 DUP2 DUP12 PUSH2 0x87E JUMP JUMPDEST SWAP1 POP DUP3 DUP2 SUB PUSH1 0x60 DUP5 ADD MSTORE PUSH2 0xB24 DUP2 DUP11 PUSH2 0x87E JUMP JUMPDEST SWAP1 POP DUP3 DUP2 SUB PUSH1 0x80 DUP5 ADD MSTORE PUSH2 0xB38 DUP2 DUP10 PUSH2 0x87E JUMP JUMPDEST SWAP1 POP DUP3 DUP2 SUB PUSH1 0xA0 DUP5 ADD MSTORE PUSH2 0xB4C DUP2 DUP9 PUSH2 0x87E JUMP JUMPDEST SWAP1 POP DUP3 DUP2 SUB PUSH1 0xC0 DUP5 ADD MSTORE PUSH2 0xB60 DUP2 DUP8 PUSH2 0x87E JUMP JUMPDEST SWAP2 POP POP DUP4 PUSH1 0xE0 DUP4 ADD MSTORE PUSH1 0x1 PUSH1 0x1 PUSH1 0xA0 SHL SUB DUP4 AND PUSH2 0x100 DUP4 ADD MSTORE SWAP11 SWAP10 POP POP POP POP POP POP POP POP POP POP JUMP INVALID LOG2 PUSH5 0x6970667358 0x22 SLT KECCAK256 PUSH31 0xCDAEB17D7AB0F99E51E5B7CCE4197C3908507C2F3CD3FA7E1A3E4B0C77636C PUSH5 0x736F6C6343 STOP ADDMOD 0xD STOP CALLER "
    },
    "gasEstimates": {
      "creation": {
        "codeDepositCost": "601000",
        "executionCost": "59121",
        "totalCost": "660121"
      },
      "external": {
        "addSite(string,string,string,string,string,string,string)": "infinite",
        "addUserReaction(string,string)": "infinite",
        "getSite(uint256)": "infinite",
        "owner()": "2381",
        "siteIds(uint256)": "4641",
        "user()": "2382",
        "userReactionIds(uint256)": "4575"
      }
    },
    "methodIdentifiers": {
      "addSite(string,string,string,string,string,string,string)": "7b14119c",
      "addUserReaction(string,string)": "1b79bd0d",
      "getSite(uint256)": "4eb7d857",
      "owner()": "8da5cb5b",
      "siteIds(uint256)": "912950a0",
      "user()": "4f8632ba",
      "userReactionIds(uint256)": "5eb4d418"
    }
  },
  "storageLayout": {
    "storage": [
      {
        "astId": 3,
        "contract": "archly.sol:archly",
        "label": "owner",
        "offset": 0,
        "slot": "0",
        "type": "t_address"
      },
      {
        "astId": 5,
        "contract": "archly.sol:archly",
        "label": "user",
        "offset": 0,
        "slot": "1",
        "type": "t_address"
      },
      {
        "astId": 7,
        "contract": "archly.sol:archly",
        "label": "counter",
        "offset": 0,
        "slot": "2",
        "type": "t_uint256"
      },
      {
        "astId": 9,
        "contract": "archly.sol:archly",
        "label": "reactionCounter",
        "offset": 0,
        "slot": "3",
        "type": "t_uint256"
      },
      {
        "astId": 94,
        "contract": "archly.sol:archly",
        "label": "userReactions",
        "offset": 0,
        "slot": "4",
        "type": "t_mapping(t_uint256,t_struct(userReaction)79_storage)"
      },
      {
        "astId": 97,
        "contract": "archly.sol:archly",
        "label": "userReactionIds",
        "offset": 0,
        "slot": "5",
        "type": "t_array(t_uint256)dyn_storage"
      },
      {
        "astId": 102,
        "contract": "archly.sol:archly",
        "label": "sites",
        "offset": 0,
        "slot": "6",
        "type": "t_mapping(t_uint256,t_struct(siteInfo)50_storage)"
      },
      {
        "astId": 105,
        "contract": "archly.sol:archly",
        "label": "siteIds",
        "offset": 0,
        "slot": "7",
        "type": "t_array(t_uint256)dyn_storage"
      }
    ],
    "types": {
      "t_address": {
        "encoding": "inplace",
        "label": "address",
        "numberOfBytes": "20"
      },
      "t_array(t_uint256)dyn_storage": {
        "base": "t_uint256",
        "encoding": "dynamic_array",
        "label": "uint256[]",
        "numberOfBytes": "32"
      },
      "t_mapping(t_uint256,t_struct(siteInfo)50_storage)": {
        "encoding": "mapping",
        "key": "t_uint256",
        "label": "mapping(uint256 => struct archly.siteInfo)",
        "numberOfBytes": "32",
        "value": "t_struct(siteInfo)50_storage"
      },
      "t_mapping(t_uint256,t_struct(userReaction)79_storage)": {
        "encoding": "mapping",
        "key": "t_uint256",
        "label": "mapping(uint256 => struct archly.userReaction)",
        "numberOfBytes": "32",
        "value": "t_struct(userReaction)79_storage"
      },
      "t_string_storage": {
        "encoding": "bytes",
        "label": "string",
        "numberOfBytes": "32"
      },
      "t_struct(siteInfo)50_storage": {
        "encoding": "inplace",
        "label": "struct archly.siteInfo",
        "members": [
          {
            "astId": 33,
            "contract": "archly.sol:archly",
            "label": "name",
            "offset": 0,
            "slot": "0",
            "type": "t_string_storage"
          },
          {
            "astId": 35,
            "contract": "archly.sol:archly",
            "label": "location",
            "offset": 0,
            "slot": "1",
            "type": "t_string_storage"
          },
          {
            "astId": 37,
            "contract": "archly.sol:archly",
            "label": "lat",
            "offset": 0,
            "slot": "2",
            "type": "t_string_storage"
          },
          {
            "astId": 39,
            "contract": "archly.sol:archly",
            "label": "lng",
            "offset": 0,
            "slot": "3",
            "type": "t_string_storage"
          },
          {
            "astId": 41,
            "contract": "archly.sol:archly",
            "label": "description",
            "offset": 0,
            "slot": "4",
            "type": "t_string_storage"
          },
          {
            "astId": 43,
            "contract": "archly.sol:archly",
            "label": "imgUrl",
            "offset": 0,
            "slot": "5",
            "type": "t_string_storage"
          },
          {
            "astId": 45,
            "contract": "archly.sol:archly",
            "label": "wikiUrl",
            "offset": 0,
            "slot": "6",
            "type": "t_string_storage"
          },
          {
            "astId": 47,
            "contract": "archly.sol:archly",
            "label": "id",
            "offset": 0,
            "slot": "7",
            "type": "t_uint256"
          },
          {
            "astId": 49,
            "contract": "archly.sol:archly",
            "label": "owner",
            "offset": 0,
            "slot": "8",
            "type": "t_address"
          }
        ],
        "numberOfBytes": "288"
      },
      "t_struct(userReaction)79_storage": {
        "encoding": "inplace",
        "label": "struct archly.userReaction",
        "members": [
          {
            "astId": 72,
            "contract": "archly.sol:archly",
            "label": "id",
            "offset": 0,
            "slot": "0",
            "type": "t_uint256"
          },
          {
            "astId": 74,
            "contract": "archly.sol:archly",
            "label": "userId",
            "offset": 0,
            "slot": "1",
            "type": "t_string_storage"
          },
          {
            "astId": 76,
            "contract": "archly.sol:archly",
            "label": "user",
            "offset": 0,
            "slot": "2",
            "type": "t_address"
          },
          {
            "astId": 78,
            "contract": "archly.sol:archly",
            "label": "siteId",
            "offset": 0,
            "slot": "3",
            "type": "t_string_storage"
          }
        ],
        "numberOfBytes": "128"
      },
      "t_uint256": {
        "encoding": "inplace",
        "label": "uint256",
        "numberOfBytes": "32"
      }
    }
  },
  "userdoc": {
    "kind": "user",
    "methods": {},
    "version": 1
  }
}