{
  "abi": [
    {
      "inputs": [],
      "stateMutability": "nonpayable",
      "type": "constructor"
    },
    {
      "anonymous": false,
      "inputs": [
        {
          "indexed": false,
          "internalType": "string",
          "name": "name",
          "type": "string"
        },
        {
          "indexed": false,
          "internalType": "string",
          "name": "location",
          "type": "string"
        },
        {
          "indexed": false,
          "internalType": "string",
          "name": "lat",
          "type": "string"
        },
        {
          "indexed": false,
          "internalType": "string",
          "name": "lng",
          "type": "string"
        },
        {
          "indexed": false,
          "internalType": "string",
          "name": "description",
          "type": "string"
        },
        {
          "indexed": false,
          "internalType": "string",
          "name": "imgUrl",
          "type": "string"
        },
        {
          "indexed": false,
          "internalType": "string",
          "name": "wikiUrl",
          "type": "string"
        },
        {
          "indexed": false,
          "internalType": "uint256",
          "name": "id",
          "type": "uint256"
        },
        {
          "indexed": false,
          "internalType": "address",
          "name": "owner",
          "type": "address"
        }
      ],
      "name": "siteCreated",
      "type": "event"
    },
    {
      "anonymous": false,
      "inputs": [
        {
          "indexed": false,
          "internalType": "uint256",
          "name": "id",
          "type": "uint256"
        },
        {
          "indexed": false,
          "internalType": "address",
          "name": "user",
          "type": "address"
        }
      ],
      "name": "userReaction",
      "type": "event"
    },
    {
      "inputs": [
        {
          "internalType": "string",
          "name": "name",
          "type": "string"
        },
        {
          "internalType": "string",
          "name": "location",
          "type": "string"
        },
        {
          "internalType": "string",
          "name": "lat",
          "type": "string"
        },
        {
          "internalType": "string",
          "name": "lng",
          "type": "string"
        },
        {
          "internalType": "string",
          "name": "description",
          "type": "string"
        },
        {
          "internalType": "string",
          "name": "imgUrl",
          "type": "string"
        },
        {
          "internalType": "string",
          "name": "wikiUrl",
          "type": "string"
        }
      ],
      "name": "addSite",
      "outputs": [],
      "stateMutability": "nonpayable",
      "type": "function"
    },
    {
      "inputs": [
        {
          "internalType": "uint256",
          "name": "id",
          "type": "uint256"
        }
      ],
      "name": "getSite",
      "outputs": [
        {
          "internalType": "string",
          "name": "",
          "type": "string"
        },
        {
          "internalType": "string",
          "name": "",
          "type": "string"
        },
        {
          "internalType": "address",
          "name": "",
          "type": "address"
        },
        {
          "internalType": "string",
          "name": "",
          "type": "string"
        }
      ],
      "stateMutability": "view",
      "type": "function"
    },
    {
      "inputs": [],
      "name": "owner",
      "outputs": [
        {
          "internalType": "address",
          "name": "",
          "type": "address"
        }
      ],
      "stateMutability": "view",
      "type": "function"
    },
    {
      "inputs": [
        {
          "internalType": "uint256",
          "name": "",
          "type": "uint256"
        }
      ],
      "name": "siteIds",
      "outputs": [
        {
          "internalType": "uint256",
          "name": "",
          "type": "uint256"
        }
      ],
      "stateMutability": "view",
      "type": "function"
    }
  ],
  "devdoc": {
    "kind": "dev",
    "methods": {},
    "version": 1
  },
  "evm": {
    "assembly": "    /* \"archly.sol\":57:4236  contract archly {... */\n  mstore(0x40, 0x80)\n    /* \"archly.sol\":158:229  constructor() {... */\n  callvalue\n  dup1\n  iszero\n  tag_1\n  jumpi\n  0x00\n  dup1\n  revert\ntag_1:\n  pop\n    /* \"archly.sol\":192:193  0 */\n  0x00\n    /* \"archly.sol\":182:189  counter */\n  0x01\n    /* \"archly.sol\":182:193  counter = 0 */\n  dup2\n  swap1\n  sstore\n    /* \"archly.sol\":203:221  owner = msg.sender */\n  dup1\n  sload\n  not(sub(shl(0xa0, 0x01), 0x01))\n  and\n    /* \"archly.sol\":211:221  msg.sender */\n  caller\n    /* \"archly.sol\":203:221  owner = msg.sender */\n  or\n  swap1\n  sstore\n    /* \"archly.sol\":57:4236  contract archly {... */\n  dataSize(sub_0)\n  dup1\n  dataOffset(sub_0)\n  0x00\n  codecopy\n  0x00\n  return\nstop\n\nsub_0: assembly {\n        /* \"archly.sol\":57:4236  contract archly {... */\n      mstore(0x40, 0x80)\n      callvalue\n      dup1\n      iszero\n      tag_1\n      jumpi\n      0x00\n      dup1\n      revert\n    tag_1:\n      pop\n      jumpi(tag_2, lt(calldatasize, 0x04))\n      shr(0xe0, calldataload(0x00))\n      dup1\n      0x4eb7d857\n      eq\n      tag_3\n      jumpi\n      dup1\n      0x7b14119c\n      eq\n      tag_4\n      jumpi\n      dup1\n      0x8da5cb5b\n      eq\n      tag_5\n      jumpi\n      dup1\n      0x912950a0\n      eq\n      tag_6\n      jumpi\n    tag_2:\n      0x00\n      dup1\n      revert\n        /* \"archly.sol\":3975:4234  function getSite(uint256 id) public view returns (string memory, string memory, address, string memory){... */\n    tag_3:\n      tag_7\n      tag_8\n      calldatasize\n      0x04\n      tag_9\n      jump\t// in\n    tag_8:\n      tag_10\n      jump\t// in\n    tag_7:\n      mload(0x40)\n      tag_11\n      swap5\n      swap4\n      swap3\n      swap2\n      swap1\n      tag_12\n      jump\t// in\n    tag_11:\n      mload(0x40)\n      dup1\n      swap2\n      sub\n      swap1\n      return\n        /* \"archly.sol\":1057:2212  function addSite(... */\n    tag_4:\n      tag_13\n      tag_14\n      calldatasize\n      0x04\n      tag_15\n      jump\t// in\n    tag_14:\n      tag_16\n      jump\t// in\n    tag_13:\n      stop\n        /* \"archly.sol\":102:122  address public owner */\n    tag_5:\n      sload(0x00)\n      tag_17\n      swap1\n      sub(shl(0xa0, 0x01), 0x01)\n      and\n      dup2\n      jump\n    tag_17:\n      mload(0x40)\n      sub(shl(0xa0, 0x01), 0x01)\n        /* \"#utility.yul\":3921:3976   */\n      swap1\n      swap2\n      and\n        /* \"#utility.yul\":3903:3977   */\n      dup2\n      mstore\n        /* \"#utility.yul\":3891:3893   */\n      0x20\n        /* \"#utility.yul\":3876:3894   */\n      add\n        /* \"archly.sol\":102:122  address public owner */\n      tag_11\n        /* \"#utility.yul\":3757:3983   */\n      jump\n        /* \"archly.sol\":982:1006  uint256[] public siteIds */\n    tag_6:\n      tag_21\n      tag_22\n      calldatasize\n      0x04\n      tag_9\n      jump\t// in\n    tag_22:\n      tag_23\n      jump\t// in\n    tag_21:\n      mload(0x40)\n        /* \"#utility.yul\":4134:4159   */\n      swap1\n      dup2\n      mstore\n        /* \"#utility.yul\":4122:4124   */\n      0x20\n        /* \"#utility.yul\":4107:4125   */\n      add\n        /* \"archly.sol\":982:1006  uint256[] public siteIds */\n      tag_11\n        /* \"#utility.yul\":3988:4165   */\n      jump\n        /* \"archly.sol\":3975:4234  function getSite(uint256 id) public view returns (string memory, string memory, address, string memory){... */\n    tag_10:\n        /* \"archly.sol\":4025:4038  string memory */\n      0x60\n        /* \"archly.sol\":4040:4053  string memory */\n      dup1\n        /* \"archly.sol\":4055:4062  address */\n      0x00\n        /* \"archly.sol\":4064:4077  string memory */\n      0x60\n        /* \"archly.sol\":4101:4108  counter */\n      sload(0x01)\n        /* \"archly.sol\":4096:4098  id */\n      dup6\n        /* \"archly.sol\":4096:4108  id < counter */\n      lt\n        /* \"archly.sol\":4088:4125  require(id < counter, \"No such Site\") */\n      tag_27\n      jumpi\n      mload(0x40)\n      shl(0xe5, 0x461bcd)\n      dup2\n      mstore\n        /* \"#utility.yul\":4372:4374   */\n      0x20\n        /* \"archly.sol\":4088:4125  require(id < counter, \"No such Site\") */\n      0x04\n      dup3\n      add\n        /* \"#utility.yul\":4354:4375   */\n      mstore\n        /* \"#utility.yul\":4411:4413   */\n      0x0c\n        /* \"#utility.yul\":4391:4409   */\n      0x24\n      dup3\n      add\n        /* \"#utility.yul\":4384:4414   */\n      mstore\n        /* \"#utility.yul\":4450:4464   */\n      0x4e6f207375636820536974650000000000000000000000000000000000000000\n        /* \"#utility.yul\":4430:4448   */\n      0x44\n      dup3\n      add\n        /* \"#utility.yul\":4423:4465   */\n      mstore\n        /* \"#utility.yul\":4482:4500   */\n      0x64\n      add\n        /* \"archly.sol\":4088:4125  require(id < counter, \"No such Site\") */\n    tag_28:\n      mload(0x40)\n      dup1\n      swap2\n      sub\n      swap1\n      revert\n    tag_27:\n        /* \"archly.sol\":4136:4154  siteInfo storage s */\n      0x00\n        /* \"archly.sol\":4157:4166  sites[id] */\n      dup6\n      dup2\n      mstore\n        /* \"archly.sol\":4157:4162  sites */\n      0x02\n        /* \"archly.sol\":4157:4166  sites[id] */\n      0x20\n      mstore\n      0x40\n      swap1\n      keccak256\n        /* \"archly.sol\":4204:4211  s.owner */\n      0x08\n      dup2\n      add\n      sload\n        /* \"archly.sol\":4176:4227  return (s.name, s.location, s.owner, s.description) */\n      dup2\n      sload\n        /* \"archly.sol\":4157:4166  sites[id] */\n      dup3\n      swap2\n        /* \"archly.sol\":4192:4202  s.location */\n      0x01\n      dup4\n      add\n      swap2\n      sub(shl(0xa0, 0x01), 0x01)\n        /* \"archly.sol\":4204:4211  s.owner */\n      swap1\n      swap2\n      and\n      swap1\n        /* \"archly.sol\":4213:4226  s.description */\n      0x04\n      dup5\n      add\n      swap1\n        /* \"archly.sol\":4157:4166  sites[id] */\n      dup5\n      swap1\n        /* \"archly.sol\":4176:4227  return (s.name, s.location, s.owner, s.description) */\n      tag_30\n      swap1\n      tag_31\n      jump\t// in\n    tag_30:\n      dup1\n      0x1f\n      add\n      0x20\n      dup1\n      swap2\n      div\n      mul\n      0x20\n      add\n      mload(0x40)\n      swap1\n      dup2\n      add\n      0x40\n      mstore\n      dup1\n      swap3\n      swap2\n      swap1\n      dup2\n      dup2\n      mstore\n      0x20\n      add\n      dup3\n      dup1\n      sload\n      tag_32\n      swap1\n      tag_31\n      jump\t// in\n    tag_32:\n      dup1\n      iszero\n      tag_33\n      jumpi\n      dup1\n      0x1f\n      lt\n      tag_34\n      jumpi\n      0x0100\n      dup1\n      dup4\n      sload\n      div\n      mul\n      dup4\n      mstore\n      swap2\n      0x20\n      add\n      swap2\n      jump(tag_33)\n    tag_34:\n      dup3\n      add\n      swap2\n      swap1\n      0x00\n      mstore\n      keccak256(0x00, 0x20)\n      swap1\n    tag_35:\n      dup2\n      sload\n      dup2\n      mstore\n      swap1\n      0x01\n      add\n      swap1\n      0x20\n      add\n      dup1\n      dup4\n      gt\n      tag_35\n      jumpi\n      dup3\n      swap1\n      sub\n      0x1f\n      and\n      dup3\n      add\n      swap2\n    tag_33:\n      pop\n      pop\n      pop\n      pop\n      pop\n      swap4\n      pop\n      dup3\n      dup1\n      sload\n      tag_36\n      swap1\n      tag_31\n      jump\t// in\n    tag_36:\n      dup1\n      0x1f\n      add\n      0x20\n      dup1\n      swap2\n      div\n      mul\n      0x20\n      add\n      mload(0x40)\n      swap1\n      dup2\n      add\n      0x40\n      mstore\n      dup1\n      swap3\n      swap2\n      swap1\n      dup2\n      dup2\n      mstore\n      0x20\n      add\n      dup3\n      dup1\n      sload\n      tag_37\n      swap1\n      tag_31\n      jump\t// in\n    tag_37:\n      dup1\n      iszero\n      tag_38\n      jumpi\n      dup1\n      0x1f\n      lt\n      tag_39\n      jumpi\n      0x0100\n      dup1\n      dup4\n      sload\n      div\n      mul\n      dup4\n      mstore\n      swap2\n      0x20\n      add\n      swap2\n      jump(tag_38)\n    tag_39:\n      dup3\n      add\n      swap2\n      swap1\n      0x00\n      mstore\n      keccak256(0x00, 0x20)\n      swap1\n    tag_40:\n      dup2\n      sload\n      dup2\n      mstore\n      swap1\n      0x01\n      add\n      swap1\n      0x20\n      add\n      dup1\n      dup4\n      gt\n      tag_40\n      jumpi\n      dup3\n      swap1\n      sub\n      0x1f\n      and\n      dup3\n      add\n      swap2\n    tag_38:\n      pop\n      pop\n      pop\n      pop\n      pop\n      swap3\n      pop\n      dup1\n      dup1\n      sload\n      tag_41\n      swap1\n      tag_31\n      jump\t// in\n    tag_41:\n      dup1\n      0x1f\n      add\n      0x20\n      dup1\n      swap2\n      div\n      mul\n      0x20\n      add\n      mload(0x40)\n      swap1\n      dup2\n      add\n      0x40\n      mstore\n      dup1\n      swap3\n      swap2\n      swap1\n      dup2\n      dup2\n      mstore\n      0x20\n      add\n      dup3\n      dup1\n      sload\n      tag_42\n      swap1\n      tag_31\n      jump\t// in\n    tag_42:\n      dup1\n      iszero\n      tag_43\n      jumpi\n      dup1\n      0x1f\n      lt\n      tag_44\n      jumpi\n      0x0100\n      dup1\n      dup4\n      sload\n      div\n      mul\n      dup4\n      mstore\n      swap2\n      0x20\n      add\n      swap2\n      jump(tag_43)\n    tag_44:\n      dup3\n      add\n      swap2\n      swap1\n      0x00\n      mstore\n      keccak256(0x00, 0x20)\n      swap1\n    tag_45:\n      dup2\n      sload\n      dup2\n      mstore\n      swap1\n      0x01\n      add\n      swap1\n      0x20\n      add\n      dup1\n      dup4\n      gt\n      tag_45\n      jumpi\n      dup3\n      swap1\n      sub\n      0x1f\n      and\n      dup3\n      add\n      swap2\n    tag_43:\n      pop\n      pop\n      pop\n      pop\n      pop\n      swap1\n      pop\n      swap5\n      pop\n      swap5\n      pop\n      swap5\n      pop\n      swap5\n      pop\n      pop\n        /* \"archly.sol\":3975:4234  function getSite(uint256 id) public view returns (string memory, string memory, address, string memory){... */\n      swap2\n      swap4\n      pop\n      swap2\n      swap4\n      jump\t// out\n        /* \"archly.sol\":1057:2212  function addSite(... */\n    tag_16:\n        /* \"archly.sol\":1413:1418  owner */\n      and(sub(shl(0xa0, 0x01), 0x01), sload(0x00))\n        /* \"archly.sol\":1399:1409  msg.sender */\n      caller\n        /* \"archly.sol\":1399:1418  msg.sender == owner */\n      eq\n        /* \"archly.sol\":1391:1468  require(msg.sender == owner, \"Only owner of smart contract can put up sites\") */\n      tag_47\n      jumpi\n      mload(0x40)\n      shl(0xe5, 0x461bcd)\n      dup2\n      mstore\n        /* \"#utility.yul\":5098:5100   */\n      0x20\n        /* \"archly.sol\":1391:1468  require(msg.sender == owner, \"Only owner of smart contract can put up sites\") */\n      0x04\n      dup3\n      add\n        /* \"#utility.yul\":5080:5101   */\n      mstore\n        /* \"#utility.yul\":5137:5139   */\n      0x2d\n        /* \"#utility.yul\":5117:5135   */\n      0x24\n      dup3\n      add\n        /* \"#utility.yul\":5110:5140   */\n      mstore\n        /* \"#utility.yul\":5176:5210   */\n      0x4f6e6c79206f776e6572206f6620736d61727420636f6e74726163742063616e\n        /* \"#utility.yul\":5156:5174   */\n      0x44\n      dup3\n      add\n        /* \"#utility.yul\":5149:5211   */\n      mstore\n        /* \"#utility.yul\":5247:5262   */\n      0x2070757420757020736974657300000000000000000000000000000000000000\n        /* \"#utility.yul\":5227:5245   */\n      0x64\n      dup3\n      add\n        /* \"#utility.yul\":5220:5263   */\n      mstore\n        /* \"#utility.yul\":5280:5299   */\n      0x84\n      add\n        /* \"archly.sol\":1391:1468  require(msg.sender == owner, \"Only owner of smart contract can put up sites\") */\n      tag_28\n        /* \"#utility.yul\":4896:5305   */\n      jump\n        /* \"archly.sol\":1391:1468  require(msg.sender == owner, \"Only owner of smart contract can put up sites\") */\n    tag_47:\n        /* \"archly.sol\":1556:1563  counter */\n      sload(0x01)\n        /* \"archly.sol\":1523:1547  siteInfo storage newSite */\n      0x00\n        /* \"archly.sol\":1550:1564  sites[counter] */\n      swap1\n      dup2\n      mstore\n        /* \"archly.sol\":1550:1555  sites */\n      0x02\n        /* \"archly.sol\":1550:1564  sites[counter] */\n      0x20\n      swap1\n      dup2\n      mstore\n      0x40\n      swap1\n      swap2\n      keccak256\n        /* \"archly.sol\":1574:1593  newSite.name = name */\n      dup9\n      mload\n        /* \"archly.sol\":1550:1564  sites[counter] */\n      swap1\n      swap2\n        /* \"archly.sol\":1574:1593  newSite.name = name */\n      tag_50\n      swap2\n        /* \"archly.sol\":1550:1564  sites[counter] */\n      dup4\n      swap2\n        /* \"archly.sol\":1574:1593  newSite.name = name */\n      dup12\n      add\n      swap1\n      tag_51\n      jump\t// in\n    tag_50:\n      pop\n        /* \"archly.sol\":1603:1630  newSite.location = location */\n      dup7\n      mload\n      tag_52\n      swap1\n        /* \"archly.sol\":1603:1619  newSite.location */\n      0x01\n      dup4\n      add\n      swap1\n        /* \"archly.sol\":1603:1630  newSite.location = location */\n      0x20\n      dup11\n      add\n      swap1\n      tag_51\n      jump\t// in\n    tag_52:\n      pop\n        /* \"archly.sol\":1640:1657  newSite.lat = lat */\n      dup6\n      mload\n      tag_53\n      swap1\n        /* \"archly.sol\":1640:1651  newSite.lat */\n      0x02\n      dup4\n      add\n      swap1\n        /* \"archly.sol\":1640:1657  newSite.lat = lat */\n      0x20\n      dup10\n      add\n      swap1\n      tag_51\n      jump\t// in\n    tag_53:\n      pop\n        /* \"archly.sol\":1667:1684  newSite.lng = lng */\n      dup5\n      mload\n      tag_54\n      swap1\n        /* \"archly.sol\":1667:1678  newSite.lng */\n      0x03\n      dup4\n      add\n      swap1\n        /* \"archly.sol\":1667:1684  newSite.lng = lng */\n      0x20\n      dup9\n      add\n      swap1\n      tag_51\n      jump\t// in\n    tag_54:\n      pop\n        /* \"archly.sol\":1694:1727  newSite.description = description */\n      dup4\n      mload\n      tag_55\n      swap1\n        /* \"archly.sol\":1694:1713  newSite.description */\n      0x04\n      dup4\n      add\n      swap1\n        /* \"archly.sol\":1694:1727  newSite.description = description */\n      0x20\n      dup8\n      add\n      swap1\n      tag_51\n      jump\t// in\n    tag_55:\n      pop\n        /* \"archly.sol\":1737:1760  newSite.imgUrl = imgUrl */\n      dup3\n      mload\n      tag_56\n      swap1\n        /* \"archly.sol\":1737:1751  newSite.imgUrl */\n      0x05\n      dup4\n      add\n      swap1\n        /* \"archly.sol\":1737:1760  newSite.imgUrl = imgUrl */\n      0x20\n      dup7\n      add\n      swap1\n      tag_51\n      jump\t// in\n    tag_56:\n      pop\n        /* \"archly.sol\":1770:1795  newSite.wikiUrl = wikiUrl */\n      dup2\n      mload\n      tag_57\n      swap1\n        /* \"archly.sol\":1770:1785  newSite.wikiUrl */\n      0x06\n      dup4\n      add\n      swap1\n        /* \"archly.sol\":1770:1795  newSite.wikiUrl = wikiUrl */\n      0x20\n      dup6\n      add\n      swap1\n      tag_51\n      jump\t// in\n    tag_57:\n      pop\n        /* \"archly.sol\":1818:1825  counter */\n      0x01\n      dup1\n      sload\n        /* \"archly.sol\":1805:1815  newSite.id */\n      0x07\n      dup4\n      add\n        /* \"archly.sol\":1805:1825  newSite.id = counter */\n      sstore\n        /* \"archly.sol\":1851:1856  owner */\n      0x00\n      dup1\n      sload\n        /* \"archly.sol\":1835:1848  newSite.owner */\n      0x08\n      dup5\n      add\n        /* \"archly.sol\":1835:1856  newSite.owner = owner */\n      dup1\n      sload\n      0xffffffffffffffffffffffff0000000000000000000000000000000000000000\n      and\n      sub(shl(0xa0, 0x01), 0x01)\n        /* \"archly.sol\":1851:1856  owner */\n      swap3\n      dup4\n      and\n        /* \"archly.sol\":1835:1856  newSite.owner = owner */\n      or\n      swap1\n      sstore\n        /* \"archly.sol\":1879:1886  counter */\n      dup3\n      sload\n        /* \"archly.sol\":1866:1873  siteIds */\n      0x03\n        /* \"archly.sol\":1866:1887  siteIds.push(counter) */\n      dup1\n      sload\n      swap5\n      dup6\n      add\n      dup2\n      sstore\n      dup4\n      mstore\n      0xc2575a0e9e593c00f959f8c92f12db2869c3395a3b0502d05e2516446f71f85b\n      swap1\n      swap4\n      add\n      dup4\n      swap1\n      sstore\n        /* \"archly.sol\":2150:2155  owner */\n      swap1\n      sload\n        /* \"archly.sol\":1928:2156  siteCreated(... */\n      mload(0x40)\n      0xb8155a08f2f674afad6b2fd39104a24bab050fd9313f36b2137d6dde7126c49d\n      swap4\n      tag_59\n      swap4\n        /* \"archly.sol\":1957:1961  name */\n      dup14\n      swap4\n        /* \"archly.sol\":1979:1987  location */\n      dup14\n      swap4\n        /* \"archly.sol\":2005:2008  lat */\n      dup14\n      swap4\n        /* \"archly.sol\":2026:2029  lng */\n      dup14\n      swap4\n        /* \"archly.sol\":2047:2058  description */\n      dup14\n      swap4\n        /* \"archly.sol\":2076:2082  imgUrl */\n      dup14\n      swap4\n        /* \"archly.sol\":2100:2107  wikiUrl */\n      dup14\n      swap4\n        /* \"archly.sol\":1879:1886  counter */\n      swap3\n        /* \"archly.sol\":2150:2155  owner */\n      swap2\n      swap1\n      swap2\n      and\n      swap1\n        /* \"archly.sol\":1928:2156  siteCreated(... */\n      tag_60\n      jump\t// in\n    tag_59:\n      mload(0x40)\n      dup1\n      swap2\n      sub\n      swap1\n      log1\n        /* \"archly.sol\":2196:2203  counter */\n      0x01\n        /* \"archly.sol\":2196:2205  counter++ */\n      dup1\n      sload\n      swap1\n        /* \"archly.sol\":2196:2203  counter */\n      0x00\n        /* \"archly.sol\":2196:2205  counter++ */\n      tag_61\n      dup4\n      tag_62\n      jump\t// in\n    tag_61:\n      swap2\n      swap1\n      pop\n      sstore\n      pop\n        /* \"archly.sol\":1297:2212  {... */\n      pop\n        /* \"archly.sol\":1057:2212  function addSite(... */\n      pop\n      pop\n      pop\n      pop\n      pop\n      pop\n      pop\n      jump\t// out\n        /* \"archly.sol\":982:1006  uint256[] public siteIds */\n    tag_23:\n      0x03\n      dup2\n      dup2\n      sload\n      dup2\n      lt\n      tag_63\n      jumpi\n      0x00\n      dup1\n      revert\n    tag_63:\n      0x00\n      swap2\n      dup3\n      mstore\n      0x20\n      swap1\n      swap2\n      keccak256\n      add\n      sload\n      swap1\n      pop\n      dup2\n      jump\t// out\n    tag_51:\n      dup3\n      dup1\n      sload\n      tag_65\n      swap1\n      tag_31\n      jump\t// in\n    tag_65:\n      swap1\n      0x00\n      mstore\n      keccak256(0x00, 0x20)\n      swap1\n      0x1f\n      add\n      0x20\n      swap1\n      div\n      dup2\n      add\n      swap3\n      dup3\n      tag_67\n      jumpi\n      0x00\n      dup6\n      sstore\n      jump(tag_70)\n    tag_67:\n      dup3\n      0x1f\n      lt\n      tag_68\n      jumpi\n      dup1\n      mload\n      not(0xff)\n      and\n      dup4\n      dup1\n      add\n      or\n      dup6\n      sstore\n      jump(tag_70)\n    tag_68:\n      dup3\n      dup1\n      add\n      0x01\n      add\n      dup6\n      sstore\n      dup3\n      iszero\n      tag_70\n      jumpi\n      swap2\n      dup3\n      add\n    tag_69:\n      dup3\n      dup2\n      gt\n      iszero\n      tag_70\n      jumpi\n      dup3\n      mload\n      dup3\n      sstore\n      swap2\n      0x20\n      add\n      swap2\n      swap1\n      0x01\n      add\n      swap1\n      jump(tag_69)\n    tag_70:\n      pop\n      tag_71\n      swap3\n      swap2\n      pop\n      tag_72\n      jump\t// in\n    tag_71:\n      pop\n      swap1\n      jump\t// out\n    tag_72:\n    tag_73:\n      dup1\n      dup3\n      gt\n      iszero\n      tag_71\n      jumpi\n      0x00\n      dup2\n      sstore\n      0x01\n      add\n      jump(tag_73)\n        /* \"#utility.yul\":14:194   */\n    tag_9:\n        /* \"#utility.yul\":73:79   */\n      0x00\n        /* \"#utility.yul\":126:128   */\n      0x20\n        /* \"#utility.yul\":114:123   */\n      dup3\n        /* \"#utility.yul\":105:112   */\n      dup5\n        /* \"#utility.yul\":101:124   */\n      sub\n        /* \"#utility.yul\":97:129   */\n      slt\n        /* \"#utility.yul\":94:146   */\n      iszero\n      tag_80\n      jumpi\n        /* \"#utility.yul\":142:143   */\n      0x00\n        /* \"#utility.yul\":139:140   */\n      dup1\n        /* \"#utility.yul\":132:144   */\n      revert\n        /* \"#utility.yul\":94:146   */\n    tag_80:\n      pop\n        /* \"#utility.yul\":165:188   */\n      calldataload\n      swap2\n        /* \"#utility.yul\":14:194   */\n      swap1\n      pop\n      jump\t// out\n        /* \"#utility.yul\":199:671   */\n    tag_75:\n        /* \"#utility.yul\":241:244   */\n      0x00\n        /* \"#utility.yul\":279:284   */\n      dup2\n        /* \"#utility.yul\":273:285   */\n      mload\n        /* \"#utility.yul\":306:312   */\n      dup1\n        /* \"#utility.yul\":301:304   */\n      dup5\n        /* \"#utility.yul\":294:313   */\n      mstore\n        /* \"#utility.yul\":331:332   */\n      0x00\n        /* \"#utility.yul\":341:503   */\n    tag_82:\n        /* \"#utility.yul\":355:361   */\n      dup2\n        /* \"#utility.yul\":352:353   */\n      dup2\n        /* \"#utility.yul\":349:362   */\n      lt\n        /* \"#utility.yul\":341:503   */\n      iszero\n      tag_84\n      jumpi\n        /* \"#utility.yul\":417:421   */\n      0x20\n        /* \"#utility.yul\":473:486   */\n      dup2\n      dup6\n      add\n        /* \"#utility.yul\":469:491   */\n      dup2\n      add\n        /* \"#utility.yul\":463:492   */\n      mload\n        /* \"#utility.yul\":445:456   */\n      dup7\n      dup4\n      add\n        /* \"#utility.yul\":441:461   */\n      dup3\n      add\n        /* \"#utility.yul\":434:493   */\n      mstore\n        /* \"#utility.yul\":370:382   */\n      add\n        /* \"#utility.yul\":341:503   */\n      jump(tag_82)\n    tag_84:\n        /* \"#utility.yul\":521:527   */\n      dup2\n        /* \"#utility.yul\":518:519   */\n      dup2\n        /* \"#utility.yul\":515:528   */\n      gt\n        /* \"#utility.yul\":512:599   */\n      iszero\n      tag_85\n      jumpi\n        /* \"#utility.yul\":587:588   */\n      0x00\n        /* \"#utility.yul\":580:584   */\n      0x20\n        /* \"#utility.yul\":571:577   */\n      dup4\n        /* \"#utility.yul\":566:569   */\n      dup8\n        /* \"#utility.yul\":562:578   */\n      add\n        /* \"#utility.yul\":558:585   */\n      add\n        /* \"#utility.yul\":551:589   */\n      mstore\n        /* \"#utility.yul\":512:599   */\n    tag_85:\n      pop\n        /* \"#utility.yul\":653:655   */\n      0x1f\n        /* \"#utility.yul\":632:647   */\n      add\n      not(0x1f)\n        /* \"#utility.yul\":628:657   */\n      and\n        /* \"#utility.yul\":619:658   */\n      swap3\n      swap1\n      swap3\n      add\n        /* \"#utility.yul\":660:664   */\n      0x20\n        /* \"#utility.yul\":615:665   */\n      add\n      swap3\n        /* \"#utility.yul\":199:671   */\n      swap2\n      pop\n      pop\n      jump\t// out\n        /* \"#utility.yul\":676:1344   */\n    tag_12:\n        /* \"#utility.yul\":949:952   */\n      0x80\n        /* \"#utility.yul\":938:947   */\n      dup2\n        /* \"#utility.yul\":931:953   */\n      mstore\n        /* \"#utility.yul\":912:916   */\n      0x00\n        /* \"#utility.yul\":976:1022   */\n      tag_87\n        /* \"#utility.yul\":1017:1020   */\n      0x80\n        /* \"#utility.yul\":1006:1015   */\n      dup4\n        /* \"#utility.yul\":1002:1021   */\n      add\n        /* \"#utility.yul\":994:1000   */\n      dup8\n        /* \"#utility.yul\":976:1022   */\n      tag_75\n      jump\t// in\n    tag_87:\n        /* \"#utility.yul\":1070:1079   */\n      dup3\n        /* \"#utility.yul\":1062:1068   */\n      dup2\n        /* \"#utility.yul\":1058:1080   */\n      sub\n        /* \"#utility.yul\":1053:1055   */\n      0x20\n        /* \"#utility.yul\":1042:1051   */\n      dup5\n        /* \"#utility.yul\":1038:1056   */\n      add\n        /* \"#utility.yul\":1031:1081   */\n      mstore\n        /* \"#utility.yul\":1104:1137   */\n      tag_88\n        /* \"#utility.yul\":1130:1136   */\n      dup2\n        /* \"#utility.yul\":1122:1128   */\n      dup8\n        /* \"#utility.yul\":1104:1137   */\n      tag_75\n      jump\t// in\n    tag_88:\n        /* \"#utility.yul\":1090:1137   */\n      swap1\n      pop\n      sub(shl(0xa0, 0x01), 0x01)\n        /* \"#utility.yul\":1177:1183   */\n      dup6\n        /* \"#utility.yul\":1173:1228   */\n      and\n        /* \"#utility.yul\":1168:1170   */\n      0x40\n        /* \"#utility.yul\":1157:1166   */\n      dup5\n        /* \"#utility.yul\":1153:1171   */\n      add\n        /* \"#utility.yul\":1146:1229   */\n      mstore\n        /* \"#utility.yul\":1277:1286   */\n      dup3\n        /* \"#utility.yul\":1269:1275   */\n      dup2\n        /* \"#utility.yul\":1265:1287   */\n      sub\n        /* \"#utility.yul\":1260:1262   */\n      0x60\n        /* \"#utility.yul\":1249:1258   */\n      dup5\n        /* \"#utility.yul\":1245:1263   */\n      add\n        /* \"#utility.yul\":1238:1288   */\n      mstore\n        /* \"#utility.yul\":1305:1338   */\n      tag_89\n        /* \"#utility.yul\":1331:1337   */\n      dup2\n        /* \"#utility.yul\":1323:1329   */\n      dup6\n        /* \"#utility.yul\":1305:1338   */\n      tag_75\n      jump\t// in\n    tag_89:\n        /* \"#utility.yul\":1297:1338   */\n      swap8\n        /* \"#utility.yul\":676:1344   */\n      swap7\n      pop\n      pop\n      pop\n      pop\n      pop\n      pop\n      pop\n      jump\t// out\n        /* \"#utility.yul\":1349:1476   */\n    tag_76:\n        /* \"#utility.yul\":1410:1420   */\n      0x4e487b71\n        /* \"#utility.yul\":1405:1408   */\n      0xe0\n        /* \"#utility.yul\":1401:1421   */\n      shl\n        /* \"#utility.yul\":1398:1399   */\n      0x00\n        /* \"#utility.yul\":1391:1422   */\n      mstore\n        /* \"#utility.yul\":1441:1445   */\n      0x41\n        /* \"#utility.yul\":1438:1439   */\n      0x04\n        /* \"#utility.yul\":1431:1446   */\n      mstore\n        /* \"#utility.yul\":1465:1469   */\n      0x24\n        /* \"#utility.yul\":1462:1463   */\n      0x00\n        /* \"#utility.yul\":1455:1470   */\n      revert\n        /* \"#utility.yul\":1481:2200   */\n    tag_77:\n        /* \"#utility.yul\":1524:1529   */\n      0x00\n        /* \"#utility.yul\":1577:1580   */\n      dup3\n        /* \"#utility.yul\":1570:1574   */\n      0x1f\n        /* \"#utility.yul\":1562:1568   */\n      dup4\n        /* \"#utility.yul\":1558:1575   */\n      add\n        /* \"#utility.yul\":1554:1581   */\n      slt\n        /* \"#utility.yul\":1544:1599   */\n      tag_92\n      jumpi\n        /* \"#utility.yul\":1595:1596   */\n      0x00\n        /* \"#utility.yul\":1592:1593   */\n      dup1\n        /* \"#utility.yul\":1585:1597   */\n      revert\n        /* \"#utility.yul\":1544:1599   */\n    tag_92:\n        /* \"#utility.yul\":1631:1637   */\n      dup2\n        /* \"#utility.yul\":1618:1638   */\n      calldataload\n        /* \"#utility.yul\":1657:1675   */\n      0xffffffffffffffff\n        /* \"#utility.yul\":1694:1696   */\n      dup1\n        /* \"#utility.yul\":1690:1692   */\n      dup3\n        /* \"#utility.yul\":1687:1697   */\n      gt\n        /* \"#utility.yul\":1684:1720   */\n      iszero\n      tag_94\n      jumpi\n        /* \"#utility.yul\":1700:1718   */\n      tag_94\n      tag_76\n      jump\t// in\n    tag_94:\n        /* \"#utility.yul\":1775:1777   */\n      0x40\n        /* \"#utility.yul\":1769:1778   */\n      mload\n        /* \"#utility.yul\":1743:1745   */\n      0x1f\n        /* \"#utility.yul\":1829:1842   */\n      dup4\n      add\n      not(0x1f)\n        /* \"#utility.yul\":1825:1847   */\n      swap1\n      dup2\n      and\n        /* \"#utility.yul\":1849:1851   */\n      0x3f\n        /* \"#utility.yul\":1821:1852   */\n      add\n        /* \"#utility.yul\":1817:1857   */\n      and\n        /* \"#utility.yul\":1805:1858   */\n      dup2\n      add\n      swap1\n        /* \"#utility.yul\":1873:1891   */\n      dup3\n      dup3\n      gt\n        /* \"#utility.yul\":1893:1915   */\n      dup2\n      dup4\n      lt\n        /* \"#utility.yul\":1870:1916   */\n      or\n        /* \"#utility.yul\":1867:1939   */\n      iszero\n      tag_96\n      jumpi\n        /* \"#utility.yul\":1919:1937   */\n      tag_96\n      tag_76\n      jump\t// in\n    tag_96:\n        /* \"#utility.yul\":1959:1969   */\n      dup2\n        /* \"#utility.yul\":1955:1957   */\n      0x40\n        /* \"#utility.yul\":1948:1970   */\n      mstore\n        /* \"#utility.yul\":1994:1996   */\n      dup4\n        /* \"#utility.yul\":1986:1992   */\n      dup2\n        /* \"#utility.yul\":1979:1997   */\n      mstore\n        /* \"#utility.yul\":2040:2043   */\n      dup7\n        /* \"#utility.yul\":2033:2037   */\n      0x20\n        /* \"#utility.yul\":2028:2030   */\n      dup6\n        /* \"#utility.yul\":2020:2026   */\n      dup9\n        /* \"#utility.yul\":2016:2031   */\n      add\n        /* \"#utility.yul\":2012:2038   */\n      add\n        /* \"#utility.yul\":2009:2044   */\n      gt\n        /* \"#utility.yul\":2006:2061   */\n      iszero\n      tag_97\n      jumpi\n        /* \"#utility.yul\":2057:2058   */\n      0x00\n        /* \"#utility.yul\":2054:2055   */\n      dup1\n        /* \"#utility.yul\":2047:2059   */\n      revert\n        /* \"#utility.yul\":2006:2061   */\n    tag_97:\n        /* \"#utility.yul\":2121:2123   */\n      dup4\n        /* \"#utility.yul\":2114:2118   */\n      0x20\n        /* \"#utility.yul\":2106:2112   */\n      dup8\n        /* \"#utility.yul\":2102:2119   */\n      add\n        /* \"#utility.yul\":2095:2099   */\n      0x20\n        /* \"#utility.yul\":2087:2093   */\n      dup4\n        /* \"#utility.yul\":2083:2100   */\n      add\n        /* \"#utility.yul\":2070:2124   */\n      calldatacopy\n        /* \"#utility.yul\":2168:2169   */\n      0x00\n        /* \"#utility.yul\":2161:2165   */\n      0x20\n        /* \"#utility.yul\":2156:2158   */\n      dup6\n        /* \"#utility.yul\":2148:2154   */\n      dup4\n        /* \"#utility.yul\":2144:2159   */\n      add\n        /* \"#utility.yul\":2140:2166   */\n      add\n        /* \"#utility.yul\":2133:2170   */\n      mstore\n        /* \"#utility.yul\":2188:2194   */\n      dup1\n        /* \"#utility.yul\":2179:2194   */\n      swap5\n      pop\n      pop\n      pop\n      pop\n      pop\n        /* \"#utility.yul\":1481:2200   */\n      swap3\n      swap2\n      pop\n      pop\n      jump\t// out\n        /* \"#utility.yul\":2205:3752   */\n    tag_15:\n        /* \"#utility.yul\":2388:2394   */\n      0x00\n        /* \"#utility.yul\":2396:2402   */\n      dup1\n        /* \"#utility.yul\":2404:2410   */\n      0x00\n        /* \"#utility.yul\":2412:2418   */\n      dup1\n        /* \"#utility.yul\":2420:2426   */\n      0x00\n        /* \"#utility.yul\":2428:2434   */\n      dup1\n        /* \"#utility.yul\":2436:2442   */\n      0x00\n        /* \"#utility.yul\":2489:2492   */\n      0xe0\n        /* \"#utility.yul\":2477:2486   */\n      dup9\n        /* \"#utility.yul\":2468:2475   */\n      dup11\n        /* \"#utility.yul\":2464:2487   */\n      sub\n        /* \"#utility.yul\":2460:2493   */\n      slt\n        /* \"#utility.yul\":2457:2510   */\n      iszero\n      tag_99\n      jumpi\n        /* \"#utility.yul\":2506:2507   */\n      0x00\n        /* \"#utility.yul\":2503:2504   */\n      dup1\n        /* \"#utility.yul\":2496:2508   */\n      revert\n        /* \"#utility.yul\":2457:2510   */\n    tag_99:\n        /* \"#utility.yul\":2546:2555   */\n      dup8\n        /* \"#utility.yul\":2533:2556   */\n      calldataload\n        /* \"#utility.yul\":2575:2593   */\n      0xffffffffffffffff\n        /* \"#utility.yul\":2616:2618   */\n      dup1\n        /* \"#utility.yul\":2608:2614   */\n      dup3\n        /* \"#utility.yul\":2605:2619   */\n      gt\n        /* \"#utility.yul\":2602:2636   */\n      iszero\n      tag_100\n      jumpi\n        /* \"#utility.yul\":2632:2633   */\n      0x00\n        /* \"#utility.yul\":2629:2630   */\n      dup1\n        /* \"#utility.yul\":2622:2634   */\n      revert\n        /* \"#utility.yul\":2602:2636   */\n    tag_100:\n        /* \"#utility.yul\":2655:2705   */\n      tag_101\n        /* \"#utility.yul\":2697:2704   */\n      dup12\n        /* \"#utility.yul\":2688:2694   */\n      dup4\n        /* \"#utility.yul\":2677:2686   */\n      dup13\n        /* \"#utility.yul\":2673:2695   */\n      add\n        /* \"#utility.yul\":2655:2705   */\n      tag_77\n      jump\t// in\n    tag_101:\n        /* \"#utility.yul\":2645:2705   */\n      swap9\n      pop\n        /* \"#utility.yul\":2758:2760   */\n      0x20\n        /* \"#utility.yul\":2747:2756   */\n      dup11\n        /* \"#utility.yul\":2743:2761   */\n      add\n        /* \"#utility.yul\":2730:2762   */\n      calldataload\n        /* \"#utility.yul\":2714:2762   */\n      swap2\n      pop\n        /* \"#utility.yul\":2787:2789   */\n      dup1\n        /* \"#utility.yul\":2777:2785   */\n      dup3\n        /* \"#utility.yul\":2774:2790   */\n      gt\n        /* \"#utility.yul\":2771:2807   */\n      iszero\n      tag_102\n      jumpi\n        /* \"#utility.yul\":2803:2804   */\n      0x00\n        /* \"#utility.yul\":2800:2801   */\n      dup1\n        /* \"#utility.yul\":2793:2805   */\n      revert\n        /* \"#utility.yul\":2771:2807   */\n    tag_102:\n        /* \"#utility.yul\":2826:2878   */\n      tag_103\n        /* \"#utility.yul\":2870:2877   */\n      dup12\n        /* \"#utility.yul\":2859:2867   */\n      dup4\n        /* \"#utility.yul\":2848:2857   */\n      dup13\n        /* \"#utility.yul\":2844:2868   */\n      add\n        /* \"#utility.yul\":2826:2878   */\n      tag_77\n      jump\t// in\n    tag_103:\n        /* \"#utility.yul\":2816:2878   */\n      swap8\n      pop\n        /* \"#utility.yul\":2931:2933   */\n      0x40\n        /* \"#utility.yul\":2920:2929   */\n      dup11\n        /* \"#utility.yul\":2916:2934   */\n      add\n        /* \"#utility.yul\":2903:2935   */\n      calldataload\n        /* \"#utility.yul\":2887:2935   */\n      swap2\n      pop\n        /* \"#utility.yul\":2960:2962   */\n      dup1\n        /* \"#utility.yul\":2950:2958   */\n      dup3\n        /* \"#utility.yul\":2947:2963   */\n      gt\n        /* \"#utility.yul\":2944:2980   */\n      iszero\n      tag_104\n      jumpi\n        /* \"#utility.yul\":2976:2977   */\n      0x00\n        /* \"#utility.yul\":2973:2974   */\n      dup1\n        /* \"#utility.yul\":2966:2978   */\n      revert\n        /* \"#utility.yul\":2944:2980   */\n    tag_104:\n        /* \"#utility.yul\":2999:3051   */\n      tag_105\n        /* \"#utility.yul\":3043:3050   */\n      dup12\n        /* \"#utility.yul\":3032:3040   */\n      dup4\n        /* \"#utility.yul\":3021:3030   */\n      dup13\n        /* \"#utility.yul\":3017:3041   */\n      add\n        /* \"#utility.yul\":2999:3051   */\n      tag_77\n      jump\t// in\n    tag_105:\n        /* \"#utility.yul\":2989:3051   */\n      swap7\n      pop\n        /* \"#utility.yul\":3104:3106   */\n      0x60\n        /* \"#utility.yul\":3093:3102   */\n      dup11\n        /* \"#utility.yul\":3089:3107   */\n      add\n        /* \"#utility.yul\":3076:3108   */\n      calldataload\n        /* \"#utility.yul\":3060:3108   */\n      swap2\n      pop\n        /* \"#utility.yul\":3133:3135   */\n      dup1\n        /* \"#utility.yul\":3123:3131   */\n      dup3\n        /* \"#utility.yul\":3120:3136   */\n      gt\n        /* \"#utility.yul\":3117:3153   */\n      iszero\n      tag_106\n      jumpi\n        /* \"#utility.yul\":3149:3150   */\n      0x00\n        /* \"#utility.yul\":3146:3147   */\n      dup1\n        /* \"#utility.yul\":3139:3151   */\n      revert\n        /* \"#utility.yul\":3117:3153   */\n    tag_106:\n        /* \"#utility.yul\":3172:3224   */\n      tag_107\n        /* \"#utility.yul\":3216:3223   */\n      dup12\n        /* \"#utility.yul\":3205:3213   */\n      dup4\n        /* \"#utility.yul\":3194:3203   */\n      dup13\n        /* \"#utility.yul\":3190:3214   */\n      add\n        /* \"#utility.yul\":3172:3224   */\n      tag_77\n      jump\t// in\n    tag_107:\n        /* \"#utility.yul\":3162:3224   */\n      swap6\n      pop\n        /* \"#utility.yul\":3277:3280   */\n      0x80\n        /* \"#utility.yul\":3266:3275   */\n      dup11\n        /* \"#utility.yul\":3262:3281   */\n      add\n        /* \"#utility.yul\":3249:3282   */\n      calldataload\n        /* \"#utility.yul\":3233:3282   */\n      swap2\n      pop\n        /* \"#utility.yul\":3307:3309   */\n      dup1\n        /* \"#utility.yul\":3297:3305   */\n      dup3\n        /* \"#utility.yul\":3294:3310   */\n      gt\n        /* \"#utility.yul\":3291:3327   */\n      iszero\n      tag_108\n      jumpi\n        /* \"#utility.yul\":3323:3324   */\n      0x00\n        /* \"#utility.yul\":3320:3321   */\n      dup1\n        /* \"#utility.yul\":3313:3325   */\n      revert\n        /* \"#utility.yul\":3291:3327   */\n    tag_108:\n        /* \"#utility.yul\":3346:3398   */\n      tag_109\n        /* \"#utility.yul\":3390:3397   */\n      dup12\n        /* \"#utility.yul\":3379:3387   */\n      dup4\n        /* \"#utility.yul\":3368:3377   */\n      dup13\n        /* \"#utility.yul\":3364:3388   */\n      add\n        /* \"#utility.yul\":3346:3398   */\n      tag_77\n      jump\t// in\n    tag_109:\n        /* \"#utility.yul\":3336:3398   */\n      swap5\n      pop\n        /* \"#utility.yul\":3451:3454   */\n      0xa0\n        /* \"#utility.yul\":3440:3449   */\n      dup11\n        /* \"#utility.yul\":3436:3455   */\n      add\n        /* \"#utility.yul\":3423:3456   */\n      calldataload\n        /* \"#utility.yul\":3407:3456   */\n      swap2\n      pop\n        /* \"#utility.yul\":3481:3483   */\n      dup1\n        /* \"#utility.yul\":3471:3479   */\n      dup3\n        /* \"#utility.yul\":3468:3484   */\n      gt\n        /* \"#utility.yul\":3465:3501   */\n      iszero\n      tag_110\n      jumpi\n        /* \"#utility.yul\":3497:3498   */\n      0x00\n        /* \"#utility.yul\":3494:3495   */\n      dup1\n        /* \"#utility.yul\":3487:3499   */\n      revert\n        /* \"#utility.yul\":3465:3501   */\n    tag_110:\n        /* \"#utility.yul\":3520:3572   */\n      tag_111\n        /* \"#utility.yul\":3564:3571   */\n      dup12\n        /* \"#utility.yul\":3553:3561   */\n      dup4\n        /* \"#utility.yul\":3542:3551   */\n      dup13\n        /* \"#utility.yul\":3538:3562   */\n      add\n        /* \"#utility.yul\":3520:3572   */\n      tag_77\n      jump\t// in\n    tag_111:\n        /* \"#utility.yul\":3510:3572   */\n      swap4\n      pop\n        /* \"#utility.yul\":3625:3628   */\n      0xc0\n        /* \"#utility.yul\":3614:3623   */\n      dup11\n        /* \"#utility.yul\":3610:3629   */\n      add\n        /* \"#utility.yul\":3597:3630   */\n      calldataload\n        /* \"#utility.yul\":3581:3630   */\n      swap2\n      pop\n        /* \"#utility.yul\":3655:3657   */\n      dup1\n        /* \"#utility.yul\":3645:3653   */\n      dup3\n        /* \"#utility.yul\":3642:3658   */\n      gt\n        /* \"#utility.yul\":3639:3675   */\n      iszero\n      tag_112\n      jumpi\n        /* \"#utility.yul\":3671:3672   */\n      0x00\n        /* \"#utility.yul\":3668:3669   */\n      dup1\n        /* \"#utility.yul\":3661:3673   */\n      revert\n        /* \"#utility.yul\":3639:3675   */\n    tag_112:\n      pop\n        /* \"#utility.yul\":3694:3746   */\n      tag_113\n        /* \"#utility.yul\":3738:3745   */\n      dup11\n        /* \"#utility.yul\":3727:3735   */\n      dup3\n        /* \"#utility.yul\":3716:3725   */\n      dup12\n        /* \"#utility.yul\":3712:3736   */\n      add\n        /* \"#utility.yul\":3694:3746   */\n      tag_77\n      jump\t// in\n    tag_113:\n        /* \"#utility.yul\":3684:3746   */\n      swap2\n      pop\n      pop\n        /* \"#utility.yul\":2205:3752   */\n      swap3\n      swap6\n      swap9\n      swap2\n      swap5\n      swap8\n      pop\n      swap3\n      swap6\n      pop\n      jump\t// out\n        /* \"#utility.yul\":4511:4891   */\n    tag_31:\n        /* \"#utility.yul\":4590:4591   */\n      0x01\n        /* \"#utility.yul\":4586:4598   */\n      dup2\n      dup2\n      shr\n      swap1\n        /* \"#utility.yul\":4633:4645   */\n      dup3\n      and\n      dup1\n        /* \"#utility.yul\":4654:4715   */\n      tag_118\n      jumpi\n        /* \"#utility.yul\":4708:4712   */\n      0x7f\n        /* \"#utility.yul\":4700:4706   */\n      dup3\n        /* \"#utility.yul\":4696:4713   */\n      and\n        /* \"#utility.yul\":4686:4713   */\n      swap2\n      pop\n        /* \"#utility.yul\":4654:4715   */\n    tag_118:\n        /* \"#utility.yul\":4761:4763   */\n      0x20\n        /* \"#utility.yul\":4753:4759   */\n      dup3\n        /* \"#utility.yul\":4750:4764   */\n      lt\n        /* \"#utility.yul\":4730:4748   */\n      dup2\n        /* \"#utility.yul\":4727:4765   */\n      sub\n        /* \"#utility.yul\":4724:4885   */\n      tag_119\n      jumpi\n        /* \"#utility.yul\":4807:4817   */\n      0x4e487b71\n        /* \"#utility.yul\":4802:4805   */\n      0xe0\n        /* \"#utility.yul\":4798:4818   */\n      shl\n        /* \"#utility.yul\":4795:4796   */\n      0x00\n        /* \"#utility.yul\":4788:4819   */\n      mstore\n        /* \"#utility.yul\":4842:4846   */\n      0x22\n        /* \"#utility.yul\":4839:4840   */\n      0x04\n        /* \"#utility.yul\":4832:4847   */\n      mstore\n        /* \"#utility.yul\":4870:4874   */\n      0x24\n        /* \"#utility.yul\":4867:4868   */\n      0x00\n        /* \"#utility.yul\":4860:4875   */\n      revert\n        /* \"#utility.yul\":4724:4885   */\n    tag_119:\n      pop\n        /* \"#utility.yul\":4511:4891   */\n      swap2\n      swap1\n      pop\n      jump\t// out\n        /* \"#utility.yul\":5310:6726   */\n    tag_60:\n        /* \"#utility.yul\":5766:5770   */\n      0x00\n        /* \"#utility.yul\":5795:5798   */\n      0x0120\n        /* \"#utility.yul\":5825:5827   */\n      dup1\n        /* \"#utility.yul\":5814:5823   */\n      dup4\n        /* \"#utility.yul\":5807:5828   */\n      mstore\n        /* \"#utility.yul\":5851:5896   */\n      tag_122\n        /* \"#utility.yul\":5892:5894   */\n      dup2\n        /* \"#utility.yul\":5881:5890   */\n      dup5\n        /* \"#utility.yul\":5877:5895   */\n      add\n        /* \"#utility.yul\":5869:5875   */\n      dup14\n        /* \"#utility.yul\":5851:5896   */\n      tag_75\n      jump\t// in\n    tag_122:\n        /* \"#utility.yul\":5837:5896   */\n      swap1\n      pop\n        /* \"#utility.yul\":5944:5953   */\n      dup3\n        /* \"#utility.yul\":5936:5942   */\n      dup2\n        /* \"#utility.yul\":5932:5954   */\n      sub\n        /* \"#utility.yul\":5927:5929   */\n      0x20\n        /* \"#utility.yul\":5916:5925   */\n      dup5\n        /* \"#utility.yul\":5912:5930   */\n      add\n        /* \"#utility.yul\":5905:5955   */\n      mstore\n        /* \"#utility.yul\":5978:6011   */\n      tag_123\n        /* \"#utility.yul\":6004:6010   */\n      dup2\n        /* \"#utility.yul\":5996:6002   */\n      dup13\n        /* \"#utility.yul\":5978:6011   */\n      tag_75\n      jump\t// in\n    tag_123:\n        /* \"#utility.yul\":5964:6011   */\n      swap1\n      pop\n        /* \"#utility.yul\":6059:6068   */\n      dup3\n        /* \"#utility.yul\":6051:6057   */\n      dup2\n        /* \"#utility.yul\":6047:6069   */\n      sub\n        /* \"#utility.yul\":6042:6044   */\n      0x40\n        /* \"#utility.yul\":6031:6040   */\n      dup5\n        /* \"#utility.yul\":6027:6045   */\n      add\n        /* \"#utility.yul\":6020:6070   */\n      mstore\n        /* \"#utility.yul\":6093:6126   */\n      tag_124\n        /* \"#utility.yul\":6119:6125   */\n      dup2\n        /* \"#utility.yul\":6111:6117   */\n      dup12\n        /* \"#utility.yul\":6093:6126   */\n      tag_75\n      jump\t// in\n    tag_124:\n        /* \"#utility.yul\":6079:6126   */\n      swap1\n      pop\n        /* \"#utility.yul\":6174:6183   */\n      dup3\n        /* \"#utility.yul\":6166:6172   */\n      dup2\n        /* \"#utility.yul\":6162:6184   */\n      sub\n        /* \"#utility.yul\":6157:6159   */\n      0x60\n        /* \"#utility.yul\":6146:6155   */\n      dup5\n        /* \"#utility.yul\":6142:6160   */\n      add\n        /* \"#utility.yul\":6135:6185   */\n      mstore\n        /* \"#utility.yul\":6208:6241   */\n      tag_125\n        /* \"#utility.yul\":6234:6240   */\n      dup2\n        /* \"#utility.yul\":6226:6232   */\n      dup11\n        /* \"#utility.yul\":6208:6241   */\n      tag_75\n      jump\t// in\n    tag_125:\n        /* \"#utility.yul\":6194:6241   */\n      swap1\n      pop\n        /* \"#utility.yul\":6290:6299   */\n      dup3\n        /* \"#utility.yul\":6282:6288   */\n      dup2\n        /* \"#utility.yul\":6278:6300   */\n      sub\n        /* \"#utility.yul\":6272:6275   */\n      0x80\n        /* \"#utility.yul\":6261:6270   */\n      dup5\n        /* \"#utility.yul\":6257:6276   */\n      add\n        /* \"#utility.yul\":6250:6301   */\n      mstore\n        /* \"#utility.yul\":6324:6357   */\n      tag_126\n        /* \"#utility.yul\":6350:6356   */\n      dup2\n        /* \"#utility.yul\":6342:6348   */\n      dup10\n        /* \"#utility.yul\":6324:6357   */\n      tag_75\n      jump\t// in\n    tag_126:\n        /* \"#utility.yul\":6310:6357   */\n      swap1\n      pop\n        /* \"#utility.yul\":6406:6415   */\n      dup3\n        /* \"#utility.yul\":6398:6404   */\n      dup2\n        /* \"#utility.yul\":6394:6416   */\n      sub\n        /* \"#utility.yul\":6388:6391   */\n      0xa0\n        /* \"#utility.yul\":6377:6386   */\n      dup5\n        /* \"#utility.yul\":6373:6392   */\n      add\n        /* \"#utility.yul\":6366:6417   */\n      mstore\n        /* \"#utility.yul\":6440:6473   */\n      tag_127\n        /* \"#utility.yul\":6466:6472   */\n      dup2\n        /* \"#utility.yul\":6458:6464   */\n      dup9\n        /* \"#utility.yul\":6440:6473   */\n      tag_75\n      jump\t// in\n    tag_127:\n        /* \"#utility.yul\":6426:6473   */\n      swap1\n      pop\n        /* \"#utility.yul\":6522:6531   */\n      dup3\n        /* \"#utility.yul\":6514:6520   */\n      dup2\n        /* \"#utility.yul\":6510:6532   */\n      sub\n        /* \"#utility.yul\":6504:6507   */\n      0xc0\n        /* \"#utility.yul\":6493:6502   */\n      dup5\n        /* \"#utility.yul\":6489:6508   */\n      add\n        /* \"#utility.yul\":6482:6533   */\n      mstore\n        /* \"#utility.yul\":6550:6583   */\n      tag_128\n        /* \"#utility.yul\":6576:6582   */\n      dup2\n        /* \"#utility.yul\":6568:6574   */\n      dup8\n        /* \"#utility.yul\":6550:6583   */\n      tag_75\n      jump\t// in\n    tag_128:\n        /* \"#utility.yul\":6542:6583   */\n      swap2\n      pop\n      pop\n        /* \"#utility.yul\":6620:6626   */\n      dup4\n        /* \"#utility.yul\":6614:6617   */\n      0xe0\n        /* \"#utility.yul\":6603:6612   */\n      dup4\n        /* \"#utility.yul\":6599:6618   */\n      add\n        /* \"#utility.yul\":6592:6627   */\n      mstore\n      sub(shl(0xa0, 0x01), 0x01)\n        /* \"#utility.yul\":6668:6674   */\n      dup4\n        /* \"#utility.yul\":6664:6719   */\n      and\n        /* \"#utility.yul\":6658:6661   */\n      0x0100\n        /* \"#utility.yul\":6647:6656   */\n      dup4\n        /* \"#utility.yul\":6643:6662   */\n      add\n        /* \"#utility.yul\":6636:6720   */\n      mstore\n        /* \"#utility.yul\":5310:6726   */\n      swap11\n      swap10\n      pop\n      pop\n      pop\n      pop\n      pop\n      pop\n      pop\n      pop\n      pop\n      pop\n      jump\t// out\n        /* \"#utility.yul\":6731:6963   */\n    tag_62:\n        /* \"#utility.yul\":6770:6773   */\n      0x00\n        /* \"#utility.yul\":6791:6808   */\n      0x01\n      dup3\n      add\n        /* \"#utility.yul\":6788:6928   */\n      tag_130\n      jumpi\n        /* \"#utility.yul\":6850:6860   */\n      0x4e487b71\n        /* \"#utility.yul\":6845:6848   */\n      0xe0\n        /* \"#utility.yul\":6841:6861   */\n      shl\n        /* \"#utility.yul\":6838:6839   */\n      0x00\n        /* \"#utility.yul\":6831:6862   */\n      mstore\n        /* \"#utility.yul\":6885:6889   */\n      0x11\n        /* \"#utility.yul\":6882:6883   */\n      0x04\n        /* \"#utility.yul\":6875:6890   */\n      mstore\n        /* \"#utility.yul\":6913:6917   */\n      0x24\n        /* \"#utility.yul\":6910:6911   */\n      0x00\n        /* \"#utility.yul\":6903:6918   */\n      revert\n        /* \"#utility.yul\":6788:6928   */\n    tag_130:\n      pop\n        /* \"#utility.yul\":6955:6956   */\n      0x01\n        /* \"#utility.yul\":6944:6957   */\n      add\n      swap1\n        /* \"#utility.yul\":6731:6963   */\n      jump\t// out\n\n    auxdata: 0xa26469706673582212203939e2e857f4df7656a30bf2ebfe99f2267342ac6dbdfe78e0acf809b8a2680b64736f6c634300080d0033\n}\n",
    "bytecode": {
      "linkReferences": {},
      "object": "608060405234801561001057600080fd5b506000600181905580546001600160a01b031916331790556109a3806100376000396000f3fe608060405234801561001057600080fd5b506004361061004c5760003560e01c80634eb7d857146100515780637b14119c1461007d5780638da5cb5b14610092578063912950a0146100bd575b600080fd5b61006461005f3660046105e2565b6100de565b6040516100749493929190610648565b60405180910390f35b61009061008b36600461073e565b61031b565b005b6000546100a5906001600160a01b031681565b6040516001600160a01b039091168152602001610074565b6100d06100cb3660046105e2565b610528565b604051908152602001610074565b60608060006060600154851061013b5760405162461bcd60e51b815260206004820152600c60248201527f4e6f20737563682053697465000000000000000000000000000000000000000060448201526064015b60405180910390fd5b600085815260026020526040902060088101548154829160018301916001600160a01b03909116906004840190849061017390610859565b80601f016020809104026020016040519081016040528092919081815260200182805461019f90610859565b80156101ec5780601f106101c1576101008083540402835291602001916101ec565b820191906000526020600020905b8154815290600101906020018083116101cf57829003601f168201915b505050505093508280546101ff90610859565b80601f016020809104026020016040519081016040528092919081815260200182805461022b90610859565b80156102785780601f1061024d57610100808354040283529160200191610278565b820191906000526020600020905b81548152906001019060200180831161025b57829003601f168201915b5050505050925080805461028b90610859565b80601f01602080910402602001604051908101604052809291908181526020018280546102b790610859565b80156103045780601f106102d957610100808354040283529160200191610304565b820191906000526020600020905b8154815290600101906020018083116102e757829003601f168201915b505050505090509450945094509450509193509193565b6000546001600160a01b0316331461039b5760405162461bcd60e51b815260206004820152602d60248201527f4f6e6c79206f776e6572206f6620736d61727420636f6e74726163742063616e60448201527f20707574207570207369746573000000000000000000000000000000000000006064820152608401610132565b6001546000908152600260209081526040909120885190916103c19183918b0190610549565b5086516103d790600183019060208a0190610549565b5085516103ed9060028301906020890190610549565b5084516104039060038301906020880190610549565b5083516104199060048301906020870190610549565b50825161042f9060058301906020860190610549565b5081516104459060068301906020850190610549565b50600180546007830155600080546008840180547fffffffffffffffffffffffff0000000000000000000000000000000000000000166001600160a01b03928316179055825460038054948501815583527fc2575a0e9e593c00f959f8c92f12db2869c3395a3b0502d05e2516446f71f85b90930183905590546040517fb8155a08f2f674afad6b2fd39104a24bab050fd9313f36b2137d6dde7126c49d93610501938d938d938d938d938d938d938d93929190911690610893565b60405180910390a16001805490600061051983610946565b91905055505050505050505050565b6003818154811061053857600080fd5b600091825260209091200154905081565b82805461055590610859565b90600052602060002090601f01602090048101928261057757600085556105bd565b82601f1061059057805160ff19168380011785556105bd565b828001600101855582156105bd579182015b828111156105bd5782518255916020019190600101906105a2565b506105c99291506105cd565b5090565b5b808211156105c957600081556001016105ce565b6000602082840312156105f457600080fd5b5035919050565b6000815180845260005b8181101561062157602081850181015186830182015201610605565b81811115610633576000602083870101525b50601f01601f19169290920160200192915050565b60808152600061065b60808301876105fb565b828103602084015261066d81876105fb565b90506001600160a01b0385166040840152828103606084015261069081856105fb565b979650505050505050565b634e487b7160e01b600052604160045260246000fd5b600082601f8301126106c257600080fd5b813567ffffffffffffffff808211156106dd576106dd61069b565b604051601f8301601f19908116603f011681019082821181831017156107055761070561069b565b8160405283815286602085880101111561071e57600080fd5b836020870160208301376000602085830101528094505050505092915050565b600080600080600080600060e0888a03121561075957600080fd5b873567ffffffffffffffff8082111561077157600080fd5b61077d8b838c016106b1565b985060208a013591508082111561079357600080fd5b61079f8b838c016106b1565b975060408a01359150808211156107b557600080fd5b6107c18b838c016106b1565b965060608a01359150808211156107d757600080fd5b6107e38b838c016106b1565b955060808a01359150808211156107f957600080fd5b6108058b838c016106b1565b945060a08a013591508082111561081b57600080fd5b6108278b838c016106b1565b935060c08a013591508082111561083d57600080fd5b5061084a8a828b016106b1565b91505092959891949750929550565b600181811c9082168061086d57607f821691505b60208210810361088d57634e487b7160e01b600052602260045260246000fd5b50919050565b60006101208083526108a78184018d6105fb565b905082810360208401526108bb818c6105fb565b905082810360408401526108cf818b6105fb565b905082810360608401526108e3818a6105fb565b905082810360808401526108f781896105fb565b905082810360a084015261090b81886105fb565b905082810360c084015261091f81876105fb565b9150508360e08301526001600160a01b0383166101008301529a9950505050505050505050565b60006001820161096657634e487b7160e01b600052601160045260246000fd5b506001019056fea26469706673582212203939e2e857f4df7656a30bf2ebfe99f2267342ac6dbdfe78e0acf809b8a2680b64736f6c634300080d0033",
      "opcodes": "PUSH1 0x80 PUSH1 0x40 MSTORE CALLVALUE DUP1 ISZERO PUSH2 0x10 JUMPI PUSH1 0x0 DUP1 REVERT JUMPDEST POP PUSH1 0x0 PUSH1 0x1 DUP2 SWAP1 SSTORE DUP1 SLOAD PUSH1 0x1 PUSH1 0x1 PUSH1 0xA0 SHL SUB NOT AND CALLER OR SWAP1 SSTORE PUSH2 0x9A3 DUP1 PUSH2 0x37 PUSH1 0x0 CODECOPY PUSH1 0x0 RETURN INVALID PUSH1 0x80 PUSH1 0x40 MSTORE CALLVALUE DUP1 ISZERO PUSH2 0x10 JUMPI PUSH1 0x0 DUP1 REVERT JUMPDEST POP PUSH1 0x4 CALLDATASIZE LT PUSH2 0x4C JUMPI PUSH1 0x0 CALLDATALOAD PUSH1 0xE0 SHR DUP1 PUSH4 0x4EB7D857 EQ PUSH2 0x51 JUMPI DUP1 PUSH4 0x7B14119C EQ PUSH2 0x7D JUMPI DUP1 PUSH4 0x8DA5CB5B EQ PUSH2 0x92 JUMPI DUP1 PUSH4 0x912950A0 EQ PUSH2 0xBD JUMPI JUMPDEST PUSH1 0x0 DUP1 REVERT JUMPDEST PUSH2 0x64 PUSH2 0x5F CALLDATASIZE PUSH1 0x4 PUSH2 0x5E2 JUMP JUMPDEST PUSH2 0xDE JUMP JUMPDEST PUSH1 0x40 MLOAD PUSH2 0x74 SWAP5 SWAP4 SWAP3 SWAP2 SWAP1 PUSH2 0x648 JUMP JUMPDEST PUSH1 0x40 MLOAD DUP1 SWAP2 SUB SWAP1 RETURN JUMPDEST PUSH2 0x90 PUSH2 0x8B CALLDATASIZE PUSH1 0x4 PUSH2 0x73E JUMP JUMPDEST PUSH2 0x31B JUMP JUMPDEST STOP JUMPDEST PUSH1 0x0 SLOAD PUSH2 0xA5 SWAP1 PUSH1 0x1 PUSH1 0x1 PUSH1 0xA0 SHL SUB AND DUP2 JUMP JUMPDEST PUSH1 0x40 MLOAD PUSH1 0x1 PUSH1 0x1 PUSH1 0xA0 SHL SUB SWAP1 SWAP2 AND DUP2 MSTORE PUSH1 0x20 ADD PUSH2 0x74 JUMP JUMPDEST PUSH2 0xD0 PUSH2 0xCB CALLDATASIZE PUSH1 0x4 PUSH2 0x5E2 JUMP JUMPDEST PUSH2 0x528 JUMP JUMPDEST PUSH1 0x40 MLOAD SWAP1 DUP2 MSTORE PUSH1 0x20 ADD PUSH2 0x74 JUMP JUMPDEST PUSH1 0x60 DUP1 PUSH1 0x0 PUSH1 0x60 PUSH1 0x1 SLOAD DUP6 LT PUSH2 0x13B JUMPI PUSH1 0x40 MLOAD PUSH3 0x461BCD PUSH1 0xE5 SHL DUP2 MSTORE PUSH1 0x20 PUSH1 0x4 DUP3 ADD MSTORE PUSH1 0xC PUSH1 0x24 DUP3 ADD MSTORE PUSH32 0x4E6F207375636820536974650000000000000000000000000000000000000000 PUSH1 0x44 DUP3 ADD MSTORE PUSH1 0x64 ADD JUMPDEST PUSH1 0x40 MLOAD DUP1 SWAP2 SUB SWAP1 REVERT JUMPDEST PUSH1 0x0 DUP6 DUP2 MSTORE PUSH1 0x2 PUSH1 0x20 MSTORE PUSH1 0x40 SWAP1 KECCAK256 PUSH1 0x8 DUP2 ADD SLOAD DUP2 SLOAD DUP3 SWAP2 PUSH1 0x1 DUP4 ADD SWAP2 PUSH1 0x1 PUSH1 0x1 PUSH1 0xA0 SHL SUB SWAP1 SWAP2 AND SWAP1 PUSH1 0x4 DUP5 ADD SWAP1 DUP5 SWAP1 PUSH2 0x173 SWAP1 PUSH2 0x859 JUMP JUMPDEST DUP1 PUSH1 0x1F ADD PUSH1 0x20 DUP1 SWAP2 DIV MUL PUSH1 0x20 ADD PUSH1 0x40 MLOAD SWAP1 DUP2 ADD PUSH1 0x40 MSTORE DUP1 SWAP3 SWAP2 SWAP1 DUP2 DUP2 MSTORE PUSH1 0x20 ADD DUP3 DUP1 SLOAD PUSH2 0x19F SWAP1 PUSH2 0x859 JUMP JUMPDEST DUP1 ISZERO PUSH2 0x1EC JUMPI DUP1 PUSH1 0x1F LT PUSH2 0x1C1 JUMPI PUSH2 0x100 DUP1 DUP4 SLOAD DIV MUL DUP4 MSTORE SWAP2 PUSH1 0x20 ADD SWAP2 PUSH2 0x1EC JUMP JUMPDEST DUP3 ADD SWAP2 SWAP1 PUSH1 0x0 MSTORE PUSH1 0x20 PUSH1 0x0 KECCAK256 SWAP1 JUMPDEST DUP2 SLOAD DUP2 MSTORE SWAP1 PUSH1 0x1 ADD SWAP1 PUSH1 0x20 ADD DUP1 DUP4 GT PUSH2 0x1CF JUMPI DUP3 SWAP1 SUB PUSH1 0x1F AND DUP3 ADD SWAP2 JUMPDEST POP POP POP POP POP SWAP4 POP DUP3 DUP1 SLOAD PUSH2 0x1FF SWAP1 PUSH2 0x859 JUMP JUMPDEST DUP1 PUSH1 0x1F ADD PUSH1 0x20 DUP1 SWAP2 DIV MUL PUSH1 0x20 ADD PUSH1 0x40 MLOAD SWAP1 DUP2 ADD PUSH1 0x40 MSTORE DUP1 SWAP3 SWAP2 SWAP1 DUP2 DUP2 MSTORE PUSH1 0x20 ADD DUP3 DUP1 SLOAD PUSH2 0x22B SWAP1 PUSH2 0x859 JUMP JUMPDEST DUP1 ISZERO PUSH2 0x278 JUMPI DUP1 PUSH1 0x1F LT PUSH2 0x24D JUMPI PUSH2 0x100 DUP1 DUP4 SLOAD DIV MUL DUP4 MSTORE SWAP2 PUSH1 0x20 ADD SWAP2 PUSH2 0x278 JUMP JUMPDEST DUP3 ADD SWAP2 SWAP1 PUSH1 0x0 MSTORE PUSH1 0x20 PUSH1 0x0 KECCAK256 SWAP1 JUMPDEST DUP2 SLOAD DUP2 MSTORE SWAP1 PUSH1 0x1 ADD SWAP1 PUSH1 0x20 ADD DUP1 DUP4 GT PUSH2 0x25B JUMPI DUP3 SWAP1 SUB PUSH1 0x1F AND DUP3 ADD SWAP2 JUMPDEST POP POP POP POP POP SWAP3 POP DUP1 DUP1 SLOAD PUSH2 0x28B SWAP1 PUSH2 0x859 JUMP JUMPDEST DUP1 PUSH1 0x1F ADD PUSH1 0x20 DUP1 SWAP2 DIV MUL PUSH1 0x20 ADD PUSH1 0x40 MLOAD SWAP1 DUP2 ADD PUSH1 0x40 MSTORE DUP1 SWAP3 SWAP2 SWAP1 DUP2 DUP2 MSTORE PUSH1 0x20 ADD DUP3 DUP1 SLOAD PUSH2 0x2B7 SWAP1 PUSH2 0x859 JUMP JUMPDEST DUP1 ISZERO PUSH2 0x304 JUMPI DUP1 PUSH1 0x1F LT PUSH2 0x2D9 JUMPI PUSH2 0x100 DUP1 DUP4 SLOAD DIV MUL DUP4 MSTORE SWAP2 PUSH1 0x20 ADD SWAP2 PUSH2 0x304 JUMP JUMPDEST DUP3 ADD SWAP2 SWAP1 PUSH1 0x0 MSTORE PUSH1 0x20 PUSH1 0x0 KECCAK256 SWAP1 JUMPDEST DUP2 SLOAD DUP2 MSTORE SWAP1 PUSH1 0x1 ADD SWAP1 PUSH1 0x20 ADD DUP1 DUP4 GT PUSH2 0x2E7 JUMPI DUP3 SWAP1 SUB PUSH1 0x1F AND DUP3 ADD SWAP2 JUMPDEST POP POP POP POP POP SWAP1 POP SWAP5 POP SWAP5 POP SWAP5 POP SWAP5 POP POP SWAP2 SWAP4 POP SWAP2 SWAP4 JUMP JUMPDEST PUSH1 0x0 SLOAD PUSH1 0x1 PUSH1 0x1 PUSH1 0xA0 SHL SUB AND CALLER EQ PUSH2 0x39B JUMPI PUSH1 0x40 MLOAD PUSH3 0x461BCD PUSH1 0xE5 SHL DUP2 MSTORE PUSH1 0x20 PUSH1 0x4 DUP3 ADD MSTORE PUSH1 0x2D PUSH1 0x24 DUP3 ADD MSTORE PUSH32 0x4F6E6C79206F776E6572206F6620736D61727420636F6E74726163742063616E PUSH1 0x44 DUP3 ADD MSTORE PUSH32 0x2070757420757020736974657300000000000000000000000000000000000000 PUSH1 0x64 DUP3 ADD MSTORE PUSH1 0x84 ADD PUSH2 0x132 JUMP JUMPDEST PUSH1 0x1 SLOAD PUSH1 0x0 SWAP1 DUP2 MSTORE PUSH1 0x2 PUSH1 0x20 SWAP1 DUP2 MSTORE PUSH1 0x40 SWAP1 SWAP2 KECCAK256 DUP9 MLOAD SWAP1 SWAP2 PUSH2 0x3C1 SWAP2 DUP4 SWAP2 DUP12 ADD SWAP1 PUSH2 0x549 JUMP JUMPDEST POP DUP7 MLOAD PUSH2 0x3D7 SWAP1 PUSH1 0x1 DUP4 ADD SWAP1 PUSH1 0x20 DUP11 ADD SWAP1 PUSH2 0x549 JUMP JUMPDEST POP DUP6 MLOAD PUSH2 0x3ED SWAP1 PUSH1 0x2 DUP4 ADD SWAP1 PUSH1 0x20 DUP10 ADD SWAP1 PUSH2 0x549 JUMP JUMPDEST POP DUP5 MLOAD PUSH2 0x403 SWAP1 PUSH1 0x3 DUP4 ADD SWAP1 PUSH1 0x20 DUP9 ADD SWAP1 PUSH2 0x549 JUMP JUMPDEST POP DUP4 MLOAD PUSH2 0x419 SWAP1 PUSH1 0x4 DUP4 ADD SWAP1 PUSH1 0x20 DUP8 ADD SWAP1 PUSH2 0x549 JUMP JUMPDEST POP DUP3 MLOAD PUSH2 0x42F SWAP1 PUSH1 0x5 DUP4 ADD SWAP1 PUSH1 0x20 DUP7 ADD SWAP1 PUSH2 0x549 JUMP JUMPDEST POP DUP2 MLOAD PUSH2 0x445 SWAP1 PUSH1 0x6 DUP4 ADD SWAP1 PUSH1 0x20 DUP6 ADD SWAP1 PUSH2 0x549 JUMP JUMPDEST POP PUSH1 0x1 DUP1 SLOAD PUSH1 0x7 DUP4 ADD SSTORE PUSH1 0x0 DUP1 SLOAD PUSH1 0x8 DUP5 ADD DUP1 SLOAD PUSH32 0xFFFFFFFFFFFFFFFFFFFFFFFF0000000000000000000000000000000000000000 AND PUSH1 0x1 PUSH1 0x1 PUSH1 0xA0 SHL SUB SWAP3 DUP4 AND OR SWAP1 SSTORE DUP3 SLOAD PUSH1 0x3 DUP1 SLOAD SWAP5 DUP6 ADD DUP2 SSTORE DUP4 MSTORE PUSH32 0xC2575A0E9E593C00F959F8C92F12DB2869C3395A3B0502D05E2516446F71F85B SWAP1 SWAP4 ADD DUP4 SWAP1 SSTORE SWAP1 SLOAD PUSH1 0x40 MLOAD PUSH32 0xB8155A08F2F674AFAD6B2FD39104A24BAB050FD9313F36B2137D6DDE7126C49D SWAP4 PUSH2 0x501 SWAP4 DUP14 SWAP4 DUP14 SWAP4 DUP14 SWAP4 DUP14 SWAP4 DUP14 SWAP4 DUP14 SWAP4 DUP14 SWAP4 SWAP3 SWAP2 SWAP1 SWAP2 AND SWAP1 PUSH2 0x893 JUMP JUMPDEST PUSH1 0x40 MLOAD DUP1 SWAP2 SUB SWAP1 LOG1 PUSH1 0x1 DUP1 SLOAD SWAP1 PUSH1 0x0 PUSH2 0x519 DUP4 PUSH2 0x946 JUMP JUMPDEST SWAP2 SWAP1 POP SSTORE POP POP POP POP POP POP POP POP POP JUMP JUMPDEST PUSH1 0x3 DUP2 DUP2 SLOAD DUP2 LT PUSH2 0x538 JUMPI PUSH1 0x0 DUP1 REVERT JUMPDEST PUSH1 0x0 SWAP2 DUP3 MSTORE PUSH1 0x20 SWAP1 SWAP2 KECCAK256 ADD SLOAD SWAP1 POP DUP2 JUMP JUMPDEST DUP3 DUP1 SLOAD PUSH2 0x555 SWAP1 PUSH2 0x859 JUMP JUMPDEST SWAP1 PUSH1 0x0 MSTORE PUSH1 0x20 PUSH1 0x0 KECCAK256 SWAP1 PUSH1 0x1F ADD PUSH1 0x20 SWAP1 DIV DUP2 ADD SWAP3 DUP3 PUSH2 0x577 JUMPI PUSH1 0x0 DUP6 SSTORE PUSH2 0x5BD JUMP JUMPDEST DUP3 PUSH1 0x1F LT PUSH2 0x590 JUMPI DUP1 MLOAD PUSH1 0xFF NOT AND DUP4 DUP1 ADD OR DUP6 SSTORE PUSH2 0x5BD JUMP JUMPDEST DUP3 DUP1 ADD PUSH1 0x1 ADD DUP6 SSTORE DUP3 ISZERO PUSH2 0x5BD JUMPI SWAP2 DUP3 ADD JUMPDEST DUP3 DUP2 GT ISZERO PUSH2 0x5BD JUMPI DUP3 MLOAD DUP3 SSTORE SWAP2 PUSH1 0x20 ADD SWAP2 SWAP1 PUSH1 0x1 ADD SWAP1 PUSH2 0x5A2 JUMP JUMPDEST POP PUSH2 0x5C9 SWAP3 SWAP2 POP PUSH2 0x5CD JUMP JUMPDEST POP SWAP1 JUMP JUMPDEST JUMPDEST DUP1 DUP3 GT ISZERO PUSH2 0x5C9 JUMPI PUSH1 0x0 DUP2 SSTORE PUSH1 0x1 ADD PUSH2 0x5CE JUMP JUMPDEST PUSH1 0x0 PUSH1 0x20 DUP3 DUP5 SUB SLT ISZERO PUSH2 0x5F4 JUMPI PUSH1 0x0 DUP1 REVERT JUMPDEST POP CALLDATALOAD SWAP2 SWAP1 POP JUMP JUMPDEST PUSH1 0x0 DUP2 MLOAD DUP1 DUP5 MSTORE PUSH1 0x0 JUMPDEST DUP2 DUP2 LT ISZERO PUSH2 0x621 JUMPI PUSH1 0x20 DUP2 DUP6 ADD DUP2 ADD MLOAD DUP7 DUP4 ADD DUP3 ADD MSTORE ADD PUSH2 0x605 JUMP JUMPDEST DUP2 DUP2 GT ISZERO PUSH2 0x633 JUMPI PUSH1 0x0 PUSH1 0x20 DUP4 DUP8 ADD ADD MSTORE JUMPDEST POP PUSH1 0x1F ADD PUSH1 0x1F NOT AND SWAP3 SWAP1 SWAP3 ADD PUSH1 0x20 ADD SWAP3 SWAP2 POP POP JUMP JUMPDEST PUSH1 0x80 DUP2 MSTORE PUSH1 0x0 PUSH2 0x65B PUSH1 0x80 DUP4 ADD DUP8 PUSH2 0x5FB JUMP JUMPDEST DUP3 DUP2 SUB PUSH1 0x20 DUP5 ADD MSTORE PUSH2 0x66D DUP2 DUP8 PUSH2 0x5FB JUMP JUMPDEST SWAP1 POP PUSH1 0x1 PUSH1 0x1 PUSH1 0xA0 SHL SUB DUP6 AND PUSH1 0x40 DUP5 ADD MSTORE DUP3 DUP2 SUB PUSH1 0x60 DUP5 ADD MSTORE PUSH2 0x690 DUP2 DUP6 PUSH2 0x5FB JUMP JUMPDEST SWAP8 SWAP7 POP POP POP POP POP POP POP JUMP JUMPDEST PUSH4 0x4E487B71 PUSH1 0xE0 SHL PUSH1 0x0 MSTORE PUSH1 0x41 PUSH1 0x4 MSTORE PUSH1 0x24 PUSH1 0x0 REVERT JUMPDEST PUSH1 0x0 DUP3 PUSH1 0x1F DUP4 ADD SLT PUSH2 0x6C2 JUMPI PUSH1 0x0 DUP1 REVERT JUMPDEST DUP2 CALLDATALOAD PUSH8 0xFFFFFFFFFFFFFFFF DUP1 DUP3 GT ISZERO PUSH2 0x6DD JUMPI PUSH2 0x6DD PUSH2 0x69B JUMP JUMPDEST PUSH1 0x40 MLOAD PUSH1 0x1F DUP4 ADD PUSH1 0x1F NOT SWAP1 DUP2 AND PUSH1 0x3F ADD AND DUP2 ADD SWAP1 DUP3 DUP3 GT DUP2 DUP4 LT OR ISZERO PUSH2 0x705 JUMPI PUSH2 0x705 PUSH2 0x69B JUMP JUMPDEST DUP2 PUSH1 0x40 MSTORE DUP4 DUP2 MSTORE DUP7 PUSH1 0x20 DUP6 DUP9 ADD ADD GT ISZERO PUSH2 0x71E JUMPI PUSH1 0x0 DUP1 REVERT JUMPDEST DUP4 PUSH1 0x20 DUP8 ADD PUSH1 0x20 DUP4 ADD CALLDATACOPY PUSH1 0x0 PUSH1 0x20 DUP6 DUP4 ADD ADD MSTORE DUP1 SWAP5 POP POP POP POP POP SWAP3 SWAP2 POP POP JUMP JUMPDEST PUSH1 0x0 DUP1 PUSH1 0x0 DUP1 PUSH1 0x0 DUP1 PUSH1 0x0 PUSH1 0xE0 DUP9 DUP11 SUB SLT ISZERO PUSH2 0x759 JUMPI PUSH1 0x0 DUP1 REVERT JUMPDEST DUP8 CALLDATALOAD PUSH8 0xFFFFFFFFFFFFFFFF DUP1 DUP3 GT ISZERO PUSH2 0x771 JUMPI PUSH1 0x0 DUP1 REVERT JUMPDEST PUSH2 0x77D DUP12 DUP4 DUP13 ADD PUSH2 0x6B1 JUMP JUMPDEST SWAP9 POP PUSH1 0x20 DUP11 ADD CALLDATALOAD SWAP2 POP DUP1 DUP3 GT ISZERO PUSH2 0x793 JUMPI PUSH1 0x0 DUP1 REVERT JUMPDEST PUSH2 0x79F DUP12 DUP4 DUP13 ADD PUSH2 0x6B1 JUMP JUMPDEST SWAP8 POP PUSH1 0x40 DUP11 ADD CALLDATALOAD SWAP2 POP DUP1 DUP3 GT ISZERO PUSH2 0x7B5 JUMPI PUSH1 0x0 DUP1 REVERT JUMPDEST PUSH2 0x7C1 DUP12 DUP4 DUP13 ADD PUSH2 0x6B1 JUMP JUMPDEST SWAP7 POP PUSH1 0x60 DUP11 ADD CALLDATALOAD SWAP2 POP DUP1 DUP3 GT ISZERO PUSH2 0x7D7 JUMPI PUSH1 0x0 DUP1 REVERT JUMPDEST PUSH2 0x7E3 DUP12 DUP4 DUP13 ADD PUSH2 0x6B1 JUMP JUMPDEST SWAP6 POP PUSH1 0x80 DUP11 ADD CALLDATALOAD SWAP2 POP DUP1 DUP3 GT ISZERO PUSH2 0x7F9 JUMPI PUSH1 0x0 DUP1 REVERT JUMPDEST PUSH2 0x805 DUP12 DUP4 DUP13 ADD PUSH2 0x6B1 JUMP JUMPDEST SWAP5 POP PUSH1 0xA0 DUP11 ADD CALLDATALOAD SWAP2 POP DUP1 DUP3 GT ISZERO PUSH2 0x81B JUMPI PUSH1 0x0 DUP1 REVERT JUMPDEST PUSH2 0x827 DUP12 DUP4 DUP13 ADD PUSH2 0x6B1 JUMP JUMPDEST SWAP4 POP PUSH1 0xC0 DUP11 ADD CALLDATALOAD SWAP2 POP DUP1 DUP3 GT ISZERO PUSH2 0x83D JUMPI PUSH1 0x0 DUP1 REVERT JUMPDEST POP PUSH2 0x84A DUP11 DUP3 DUP12 ADD PUSH2 0x6B1 JUMP JUMPDEST SWAP2 POP POP SWAP3 SWAP6 SWAP9 SWAP2 SWAP5 SWAP8 POP SWAP3 SWAP6 POP JUMP JUMPDEST PUSH1 0x1 DUP2 DUP2 SHR SWAP1 DUP3 AND DUP1 PUSH2 0x86D JUMPI PUSH1 0x7F DUP3 AND SWAP2 POP JUMPDEST PUSH1 0x20 DUP3 LT DUP2 SUB PUSH2 0x88D JUMPI PUSH4 0x4E487B71 PUSH1 0xE0 SHL PUSH1 0x0 MSTORE PUSH1 0x22 PUSH1 0x4 MSTORE PUSH1 0x24 PUSH1 0x0 REVERT JUMPDEST POP SWAP2 SWAP1 POP JUMP JUMPDEST PUSH1 0x0 PUSH2 0x120 DUP1 DUP4 MSTORE PUSH2 0x8A7 DUP2 DUP5 ADD DUP14 PUSH2 0x5FB JUMP JUMPDEST SWAP1 POP DUP3 DUP2 SUB PUSH1 0x20 DUP5 ADD MSTORE PUSH2 0x8BB DUP2 DUP13 PUSH2 0x5FB JUMP JUMPDEST SWAP1 POP DUP3 DUP2 SUB PUSH1 0x40 DUP5 ADD MSTORE PUSH2 0x8CF DUP2 DUP12 PUSH2 0x5FB JUMP JUMPDEST SWAP1 POP DUP3 DUP2 SUB PUSH1 0x60 DUP5 ADD MSTORE PUSH2 0x8E3 DUP2 DUP11 PUSH2 0x5FB JUMP JUMPDEST SWAP1 POP DUP3 DUP2 SUB PUSH1 0x80 DUP5 ADD MSTORE PUSH2 0x8F7 DUP2 DUP10 PUSH2 0x5FB JUMP JUMPDEST SWAP1 POP DUP3 DUP2 SUB PUSH1 0xA0 DUP5 ADD MSTORE PUSH2 0x90B DUP2 DUP9 PUSH2 0x5FB JUMP JUMPDEST SWAP1 POP DUP3 DUP2 SUB PUSH1 0xC0 DUP5 ADD MSTORE PUSH2 0x91F DUP2 DUP8 PUSH2 0x5FB JUMP JUMPDEST SWAP2 POP POP DUP4 PUSH1 0xE0 DUP4 ADD MSTORE PUSH1 0x1 PUSH1 0x1 PUSH1 0xA0 SHL SUB DUP4 AND PUSH2 0x100 DUP4 ADD MSTORE SWAP11 SWAP10 POP POP POP POP POP POP POP POP POP POP JUMP JUMPDEST PUSH1 0x0 PUSH1 0x1 DUP3 ADD PUSH2 0x966 JUMPI PUSH4 0x4E487B71 PUSH1 0xE0 SHL PUSH1 0x0 MSTORE PUSH1 0x11 PUSH1 0x4 MSTORE PUSH1 0x24 PUSH1 0x0 REVERT JUMPDEST POP PUSH1 0x1 ADD SWAP1 JUMP INVALID LOG2 PUSH5 0x6970667358 0x22 SLT KECCAK256 CODECOPY CODECOPY 0xE2 0xE8 JUMPI DELEGATECALL 0xDF PUSH23 0x56A30BF2EBFE99F2267342AC6DBDFE78E0ACF809B8A268 SIGNEXTEND PUSH5 0x736F6C6343 STOP ADDMOD 0xD STOP CALLER "
    },
    "gasEstimates": {
      "creation": {
        "codeDepositCost": "493400",
        "executionCost": "29774",
        "totalCost": "523174"
      },
      "external": {
        "addSite(string,string,string,string,string,string,string)": "infinite",
        "getSite(uint256)": "infinite",
        "owner()": "2359",
        "siteIds(uint256)": "4619"
      }
    },
    "methodIdentifiers": {
      "addSite(string,string,string,string,string,string,string)": "7b14119c",
      "getSite(uint256)": "4eb7d857",
      "owner()": "8da5cb5b",
      "siteIds(uint256)": "912950a0"
    }
  },
  "storageLayout": {
    "storage": [
      {
        "astId": 3,
        "contract": "archly.sol:archly",
        "label": "owner",
        "offset": 0,
        "slot": "0",
        "type": "t_address"
      },
      {
        "astId": 5,
        "contract": "archly.sol:archly",
        "label": "counter",
        "offset": 0,
        "slot": "1",
        "type": "t_uint256"
      },
      {
        "astId": 68,
        "contract": "archly.sol:archly",
        "label": "sites",
        "offset": 0,
        "slot": "2",
        "type": "t_mapping(t_uint256,t_struct(siteInfo)37_storage)"
      },
      {
        "astId": 71,
        "contract": "archly.sol:archly",
        "label": "siteIds",
        "offset": 0,
        "slot": "3",
        "type": "t_array(t_uint256)dyn_storage"
      }
    ],
    "types": {
      "t_address": {
        "encoding": "inplace",
        "label": "address",
        "numberOfBytes": "20"
      },
      "t_array(t_uint256)dyn_storage": {
        "base": "t_uint256",
        "encoding": "dynamic_array",
        "label": "uint256[]",
        "numberOfBytes": "32"
      },
      "t_mapping(t_uint256,t_struct(siteInfo)37_storage)": {
        "encoding": "mapping",
        "key": "t_uint256",
        "label": "mapping(uint256 => struct archly.siteInfo)",
        "numberOfBytes": "32",
        "value": "t_struct(siteInfo)37_storage"
      },
      "t_string_storage": {
        "encoding": "bytes",
        "label": "string",
        "numberOfBytes": "32"
      },
      "t_struct(siteInfo)37_storage": {
        "encoding": "inplace",
        "label": "struct archly.siteInfo",
        "members": [
          {
            "astId": 20,
            "contract": "archly.sol:archly",
            "label": "name",
            "offset": 0,
            "slot": "0",
            "type": "t_string_storage"
          },
          {
            "astId": 22,
            "contract": "archly.sol:archly",
            "label": "location",
            "offset": 0,
            "slot": "1",
            "type": "t_string_storage"
          },
          {
            "astId": 24,
            "contract": "archly.sol:archly",
            "label": "lat",
            "offset": 0,
            "slot": "2",
            "type": "t_string_storage"
          },
          {
            "astId": 26,
            "contract": "archly.sol:archly",
            "label": "lng",
            "offset": 0,
            "slot": "3",
            "type": "t_string_storage"
          },
          {
            "astId": 28,
            "contract": "archly.sol:archly",
            "label": "description",
            "offset": 0,
            "slot": "4",
            "type": "t_string_storage"
          },
          {
            "astId": 30,
            "contract": "archly.sol:archly",
            "label": "imgUrl",
            "offset": 0,
            "slot": "5",
            "type": "t_string_storage"
          },
          {
            "astId": 32,
            "contract": "archly.sol:archly",
            "label": "wikiUrl",
            "offset": 0,
            "slot": "6",
            "type": "t_string_storage"
          },
          {
            "astId": 34,
            "contract": "archly.sol:archly",
            "label": "id",
            "offset": 0,
            "slot": "7",
            "type": "t_uint256"
          },
          {
            "astId": 36,
            "contract": "archly.sol:archly",
            "label": "owner",
            "offset": 0,
            "slot": "8",
            "type": "t_address"
          }
        ],
        "numberOfBytes": "288"
      },
      "t_uint256": {
        "encoding": "inplace",
        "label": "uint256",
        "numberOfBytes": "32"
      }
    }
  },
  "userdoc": {
    "kind": "user",
    "methods": {},
    "version": 1
  }
}